:1000000000060020E90400002D0500003105000075
:1000100000000000000000000000000000000000E0
:100020000000000000000000000000003505000096
:100030000000000000000000390500003D05000040
:1000400029050000290500002905000029050000F8
:1000500029050000290500002905000029050000E8
:1000600041050000290500004505000029050000A4
:1000700049050000290500002905000029050000A8
:100080002905000091150000290500002905000040
:1000900029050000290500002905000029050000A8
:1000A0002905000029050000290500002905000098
:1000B000752200002905000029050000290500001F
:10040000FFFFFFFFFFFFFFFFFFFFFFFFFE3DFFFFBF
:1004100010B5064C2378002B07D1054B002B02D0DA
:10042000044800E000BF0123237010BD88FEFF1FB9
:10043000000000008858000008B5084B002B03D0CE
:100440000748084900E000BF07480368002B03D0B5
:10045000064B002B00D0984708BDC04600000000A6
:10046000885800008CFEFF1F84FEFF1F0000000064
:10047000164B002B00D1144B9D46402292029A1A33
:10048000924600218B460F461348144A121A04F074
:10049000B8F90F4B002B00D098470E4B002B00D023
:1004A00098470020002104000D000D48002802D0CC
:1004B0000C4800E000BF04F075F92000290002F0AC
:1004C00007F804F059F9C0460000080000060020B3
:1004D000000000000000000088FEFF1F480100200F
:1004E000000000000000000072B6084808490160E2
:1004F000084880470849094A094B9B1A03DD043B19
:10050000C858D050FBDC62B60648804708ED00E0D2
:100510000000000091140000B058000000FEFF1F12
:1005200088FEFF1F71040000084800470848004784
:10053000084800470848004708480047084800475F
:1005400008480047084800470848004729050000B8
:100550002D050000310500003505000039050000BB
:100560003D0500005D3E000055400000F93F0000E1
:10057000002934D00123002210B488422CD3012456
:100580002407A14204D2814202D209011B01F8E7EB
:10059000E400A14204D2814202D249005B00F8E7A4
:1005A000884201D3401A1A434C08A04202D3001BD0
:1005B0005C0822438C08A04202D3001B9C08224303
:1005C000CC08A04202D3001BDC082243002803D041
:1005D0001B0901D00909E3E7101C10BC7047002873
:1005E00001D00020C04307B4024802A14018029085
:1005F00003BDC046D90000000029F0D003B5FFF7C5
:10060000B9FF0EBC4243891A1847C046002941D0A1
:1006100010B4041C4C40A44601230022002900D53C
:100620004942002800D5404288422CD301242407A7
:10063000A14204D2814202D209011B01F8E7E40081
:10064000A14204D2814202D249005B00F8E788420D
:1006500001D3401A1A434C08A04202D3001B5C0885
:1006600022438C08A04202D3001B9C082243CC08E2
:10067000A04202D3001BDC082243002803D01B0940
:1006800001D00909E3E7101C6446002C00D5404264
:1006900010BC7047002806D003DB0020C043400890
:1006A00001E08020000607B4024802A14018029031
:1006B00003BDC046190000000029EBD003B5FFF7C9
:1006C000A7FF0EBC4243891A1847C0467047C04670
:1006D000002B11D1002A0FD1002900D1002802D00F
:1006E0000021C943081C07B4024802A14018029027
:1006F00003BDC046D9FFFFFF03B4684601B50298A9
:1007000000F044F8019B9E4602B00CBC7047C04606
:100710009C460304F0B51B0C17043F0C150C1E1C63
:10072000041C000C7E436B4347434543FB18300CCD
:100730001818874202D980235B02ED18030CED18CC
:1007400063465C434A433604360CA1180004801902
:100750004919F0BDF0B583B0161C1F1C0090019123
:1007600000F02EF8041C0D1C221C2B1C301C391C04
:10077000FFF7CEFF009A019B121A8B410899201CAB
:100780000A604B60291C03B0F0BDC046F0B583B0D1
:10079000141C1D1C0090019100F0EEF9221C2B1C72
:1007A000061C0F1CFFF7B4FF009A019B121A8B4125
:1007B0000899301C0A604B60391C03B0F0BDC0467C
:1007C000F0B544465F4656464D46F0B41C1C85B015
:1007D000002900DADBE00F1C0021061C8A46101CF1
:1007E000191C002C00DAC9E0019600908946804669
:1007F000002951D1B84200D871E000F07FFB0028F9
:1008000009D020234546311C1B1A85408740D9401A
:10081000A8460F4386404246150C13041B0C291CA6
:10082000381C9B46FFF7A4FE5B464343041C291C6F
:10083000381C9946FFF7E0FE330C08041843814545
:1008400009D94044631E804500D978E1814500D82C
:1008500075E1023C40444946411A8946081C291C5E
:10086000FFF786FE5A464243071C291C484693461A
:10087000FFF7C2FE36040904360C0E43B34507D910
:1008800046447B1EB04502D8023FB34500D81F1C2A
:1008900024042743002403E0B94211D9002400278F
:1008A0005246381C211C002A03D03B1C0021584210
:1008B000A14105B03CBC90469946A246AB46F0BD6E
:1008C000081C00F01BFB041E00D0BFE0B94500D29D
:1008D00042E1019D0099071C8D424741E0E7002855
:1008E00004D101200021FFF743FE8046404600F07E
:1008F00005FB002852D1414644460B043C1B1B0C0F
:10090000A3460D0C00930124291C5846FFF730FE26
:10091000009F81464743291C5846FFF76DFE330C64
:10092000090419438F4208D94B464144013B88458D
:1009300002D88F4200D91AE19946C91B8B46081C80
:10094000291CFFF715FE009B291C4343071C584632
:100950000093FFF751FE3604009D0904360C0E4348
:10096000B54207D946447B1EB04502D8023FB54286
:1009700000D81F1C49460E04374391E75246D24324
:10098000031C0C1C924600215842A1412CE7002771
:1009900046428F41012149428A4620E720231B1A03
:1009A0004246351C82403C1CDD40DC4087402B1C0D
:1009B000150C3B43291C8640201C009317049046CD
:1009C000FFF7D6FD3F0C011C794381468B46201C66
:1009D000291CFFF711FE009C0904230C19438B45C9
:1009E0000CD94B464144013B884500D9BDE08B45BD
:1009F00000D8BAE002225242914441445C460C1BAA
:100A0000201C291C0194FFF7B3FD391C4143041C31
:100A10008B460198291CFFF7EFFD009A0904130487
:100A20001B0C19438B4509D94144631E884500D9E5
:100A300097E08B4500D894E0023C41445B46CB1ADA
:100A400049469B460B041C4300975DE7009D20230D
:100A50001B1A4A468240DD401543391C009AD94092
:100A600082408846311C0092D9403A1C82400B1CBF
:100A7000134301932F0C2B041B0C391C404602938B
:100A8000FFF776FD029A81464243391C4046934661
:100A9000FFF7B2FD019A0904130C19438B450AD9DB
:100AA0004B464919013B8D425DD88B455BD90223EA
:100AB0005B42994449195A468A1A101C391C039200
:100AC000FFF756FD029B80464343391C03989B4623
:100AD000FFF792FD019A090413041B0C19438B457F
:100AE0000AD943464919013B8D4238D88B4536D93E
:100AF00002235B42984449195D464D1BAB4649466B
:100B0000009D0F04424617432A04120C3B042D0C8F
:100B10001B0C380C111C594342436B436843D318D8
:100B20000D0C5B198C469A4202D980225202801821
:100B30001D0C401983450CD303D00024B0E61C1CC7
:100B400089E665462A041B04120C9B18A6409E42A7
:100B5000F3D2013F0024A3E600240127A0E6984633
:100B6000CAE71C1C6AE79946A5E7994646E70222B0
:100B7000524291444144E0E6F0B55F4656464D4648
:100B80004446F0B40D1C85B0061C9246984602906F
:100B9000019103921F1C141C8346A946002B59D1B6
:100BA000AA4269D9101C00F0A9F900280AD0202314
:100BB0001B1A311CD94085400B1C2B4386408440B6
:100BC0009946B346250C23041B0C291C484698461D
:100BD000FFF7CEFC4646071C4643291C4846FFF754
:100BE0000BFD5A460904130C19438E4209D9091901
:100BF0007B1E8C4200D957E18E4200D854E1023F5F
:100C00000919891B8946081C291CFFF7B1FC4346BA
:100C10004343061C291C48469846FFF7EDFC5A46FC
:100C2000130409041B0C1943884508D90919731EBC
:100C30008C4200D936E1023E884500D832E13804C2
:100C400030430027391C05B03CBC90469946A2466B
:100C5000AB46F0BD019A934262D8181C00F04EF9E1
:100C6000041E60D1019B9F4200D22CE1029F039998
:100C70008F4260410027E5E7002A04D101200021CE
:100C8000FFF776FC041C201C00F038F9002800D087
:100C9000B9E023042D1B1B0CA946260C98460127FE
:100CA000311C4846FFF764FC41464143051C8A4617
:100CB0004846311CFFF7A0FC5A460804130C1843A1
:100CC000824507D900196B1E844202D8824500D99B
:100CD00010E11D1C5346C31A181C311C9A46FFF71D
:100CE00047FC41464143814688465046311CFFF748
:100CF00083FC5A46130409041B0C194388450BD97D
:100D00004B460919013B8C4200D9CFE0884500D8F9
:100D1000CCE002235B42994428044946084391E70A
:100D2000002700208EE720231B1A424657468240A8
:100D3000DF401743524682400192321CDA40291CA0
:100D4000D9408540131C2B4302933D0C3B041B0CE4
:100D50008846081C291C9A46FFF70AFC5346434361
:100D60008146291C40469B46FFF746FC029A09042F
:100D7000130C19438B4506D94B46C919013B8F42C9
:100D800000D8ABE099465A468A1A101C291C934693
:100D9000FFF7EEFB53464343291C804658469A46CC
:100DA000FFF72AFC029A090415042D0C29438A45F1
:100DB00006D94346C919013B8F4200D886E09846C0
:100DC0005746CF1BBA464946019F08044246104386
:100DD0003D042D0C03043F0C1B0C020C291C594331
:100DE00055437B437A43EB180F0CDB198C469D422D
:100DF00002D980277F02D2191D0C521992455FD368
:100E000056D000271EE720231B1A311C2F1CD94067
:100E1000DF4085400B1C84402B4386400193B34642
:100E20002304260C1B0C381C311C9846FFF7A0FB32
:100E300042464243051C311C381C9146FFF7DCFB3F
:100E4000019F09043B0C1943894507D909196B1EF9
:100E50008C424DD889454BD9023D09194A468A1A18
:100E6000101C311C9246FFF783FB43464343071C8B
:100E7000311C50469946FFF7BFFB019A0904130441
:100E80001B0C1943894507D909197B1E8C422DD8A3
:100E900089452BD9023F09194B46CB1A2D04994697
:100EA0002F43FDE61E1CCAE61F1CAAE6994633E73F
:100EB00061460A041B04120C9B18A6409E42A0D255
:100EC00001380027BEE600270120BBE68A4500D88E
:100ED00075E702235B429844C91971E78B4500D836
:100EE00050E702235B429944C9194CE71F1CD3E722
:100EF0001D1CB3E7023D0019ECE6C0461C2101238E
:100F00001B04984201D3000C10391B0A984201D3EC
:100F1000000A08391B09984201D30009043902A2CA
:100F2000105C40187047C046040302020101010131
:100F300000000000000000000FB480B582B000AFD8
:100F40000D4B1B78002B02D101235B420DE03B1CB3
:100F500014333B6009493A693B68081C111C1A1C90
:100F600000F0DAF8031C7B607B68181CBD4602B0F9
:100F700080BC08BC04B01847A4FEFF1F810F00000E
:100F800090B583B000AF78600A4B1B78002B02D17C
:100F900001235B4209E0074B9C68064B5A683B1DE6
:100FA000101C191C0122A0470123181CBD4603B0C8
:100FB00090BDC046A4FEFF1F80B586B000AFB960EB
:100FC0007A603B603B1C0F33021C1A70BB687B616C
:100FD0000EE03B1C0F3300229A563B6A101C9847C8
:100FE0003B681B685A1C3B681A607B6901337B6154
:100FF0007A697B689A42ECDBBD4606B080BDC0468C
:1010000080B58CB000AFF860B9607A603B600023B7
:10101000FB61FB68BB61BB695A1CBA6100221A7094
:101020007B68002B36D0BB681B68FB62FB6A002B19
:1010300007D1BB6930221A70FB690133FB61FB6980
:1010400066E023E0F86A3968FFF7E0FA031C7B6189
:101050007B693A685343FA6AD31ABB62BB6A002BB6
:1010600006DABB6A3B623B6A3022D31ABB6202E0FB
:10107000BB6A3033BB627B69FB62BB695A1CBA61D5
:10108000BA6AD2B21A70FB690133FB61FB6A002BAA
:10109000D8D13CE0BB681B687B627B6A002B07D120
:1010A000BB6930221A70FB690133FB61FB692FE0D9
:1010B0002AE03B68786A191CFFF75AFA031C3B6167
:1010C0003B683A6953437A6AD31A3B623B6A092BFD
:1010D00003D83B6A30333B620BE03B1C38331B7850
:1010E000002B01D0412300E061233A6A9B180A3BA0
:1010F0003B623B697B62BB695A1CBA613A6AD2B2F5
:101100001A70FB690133FB617B6A002BD1D1FB694B
:10111000181CBD460CB080BD80B59CB002AFF86015
:10112000B9607A6000233B660023FB650023BB6146
:101130003B1C4A3300221A7000233B61BB687B666C
:1011400099E17B6C252B07D07A6CFB68101C9847C3
:10115000BB690133BB618BE13B1C4B3301221A702D
:1011600000237B650023BB651CE07B6E01337B663F
:101170007B6E1B785BB27B647B6C2F2B0DDD7B6CF5
:10118000392B0ADC7A6D131C9B009B185B001A1C20
:101190007B6CD318303B7B6504E07B6E013B7B6648
:1011A0000123BB65BB6D002BDFD006233B657B6E47
:1011B00001337B667B6E1B785BB22E2B25D100231F
:1011C0003B650023BB651CE07B6E01337B667B6E59
:1011D0001B785BB27B647B6C2F2B0DDD7B6C392B1A
:1011E0000ADC3A6D131C9B009B185B001A1C7B6C7D
:1011F000D318303B3B6504E07B6E013B7B660123EB
:10120000BB65BB6D002BDFD002E07B6E013B7B66D4
:101210007B6E01337B667B6E1B785BB27B647B6C81
:10122000642B1BD07B6C692B18D07B6C662B15D084
:101230007B6C462B12D07B6C782B0FD07B6C582BA1
:101240000CD07B6C6F2B09D07B6C622B06D07B6C37
:10125000702B03D07B6C752B00D0C5E07B6C642BAE
:1012600002D07B6C692B19D17B681A1D7A601B68D0
:101270007B613A1C1C323B1C1433391C4B310978FE
:101280000091101C191C01220A23FFF7B9FE031C50
:10129000FB653A1C1C32FB6DD3183B667B6C582BEC
:1012A00002D07B6C782B20D17B6C782B03D13B1C3C
:1012B0004B3300221A707B681A1D7A601B683B61F1
:1012C0003A1C1C323B1C1033391C4B3109780091FD
:1012D000101C191C00221023FFF792FE031CFB6553
:1012E0003A1C1C32FB6DD3183B667B6C6F2B08D10C
:1012F0007B681A1D7A601B683B613B1C4A330822DD
:101300001A707B6C622B0DD17B681A1D7A601B688A
:101310003B613B1C4A3302221A703A1C1C32FB6DA3
:10132000D3183B667B6C702B0DD17B681A1D7A60DD
:101330001B683B613B1C4A3310221A703A1C1C325A
:10134000FB6DD3183B667B6C752B0DD17B681A1D2A
:101350007A601B683B613B1C4A330A221A703A1CB4
:101360001C32FB6DD3183B667B6C6F2B08D07B6CFB
:10137000622B05D07B6C702B02D07B6C752B16D149
:101380003B1C4A331B78391C1C313A1C1032381C68
:101390004B3000780090081C111C0022FFF730FE33
:1013A000031CFB653A1C1C32FB6DD3183B667A6D3F
:1013B000F96D3B1C1833F86800902020FFF7FCFD06
:1013C0003B6E002B0FD00AE03B6E5A1E3A661B782C
:1013D0005AB2FB68101C9847BB690133BB613B6E76
:1013E0001B78002BF0D143E07B6C632B0ED17B6824
:1013F0001A1D7A601B68DBB25BB23B643A6CFB6817
:10140000101C9847BB690133BB6131E07B6C732BC7
:1014100027D17B681A1D7A601B68FB64FB6C002B6C
:1014200026D0FB6C181C03F0F4F9031CFB657A6DE5
:10143000F96D3B1C1833F86800902020FFF7BCFDC5
:101440000AE0FB6C5A1CFA641B785AB2FB68101C49
:101450009847BB690133BB61FB6C1B78002BF0D153
:1014600006E07A6CFB68101C9847BB690133BB61CE
:101470007B6E01337B667B6E1B785BB27B647B6C1F
:10148000002B00D05DE6BB69181CBD461AB080BDBC
:1014900080B500AF0A4B9B78DBB21A1C08231340BF
:1014A00007D0074B064A9278D2B208210A43D2B23B
:1014B0009A70044A88235B010021D150BD4680BD4B
:1014C00000D007400070044080B582B000AF021C1D
:1014D000FB1D1A70064BFA1D1278111C1F220A40C0
:1014E0000121081C9040021C1A60BD4602B080BD5C
:1014F00000E100E080B582B000AF021CFB1D1A7055
:10150000FB1D1B785BB2181CFFF7DEFFBD4602B067
:1015100080BDC04680B582B000AF786039607B681E
:101520003A681A65BD4602B080BDC04680B584B039
:1015300000AF78600A1CFB1C1A707B681B68FB609C
:10154000FB6818229343FB60FB1C1B78DA0018230E
:101550001340FA681343FB607B68FA681A60BD4663
:1015600004B080BD80B582B000AF78607B681B6836
:101570001822191C91430A1C7B681A60C0467B68BC
:101580001A6818231340FAD1BD4602B080BDC04688
:1015900080B500AF254A80235B00101C191CFFF7A3
:1015A000B9FF234B1B78DBB2002B2ED0214B1B78CD
:1015B000DBB201225340DBB2002B06D01E4B0122CE
:1015C0001A701C4B01221A7002E01A4B00221A708A
:1015D000164B9A69154B9B6801339A420AD1134BFB
:1015E000164A528892B29A61104B104A92680132A0
:1015F0001A6119E00D4B0D4A926801329A610B4B4A
:101600000E4A528892B21A610EE00B4B01221A70F8
:10161000064B9A69094B5B889BB29A4204D0034BF4
:10162000064A528892B29A61BD4680BD008003404E
:10163000BCFEFF1FBDFEFF1FB4FEFF1FB8FEFF1F55
:1016400080B584B002AF7860FB1C19703B1C1A8017
:10165000FB1C1B78012B06D93849394A394B081C29
:10166000A92102F021F97B68FA1C12781A727B68B2
:1016700001225A727B6864229A727B683A1C128833
:101680009A817B689B893048191CFEF771FF031C07
:101690009AB27B68DA817B68DA892C4B1A807B6886
:1016A000DA892A4B5A807B68181C02F0B1FD7B68EE
:1016B0009A89FA23DB009A4203D17B6800221A70D0
:1016C00006E07B689B89F52B02D17B6802221A70A9
:1016D0007B685B7C002B02D01D4B01221A707B685B
:1016E0001C4A101C191C02F023FD7B6808337A6821
:1016F0009289111C174A009113490191101C191C61
:101700000122002302F0B4FD124A80235B00101C6A
:10171000191C02F0B7FE1120FFF7ECFE0D4B181C50
:10172000FFF720FF0B4B00225A600A4B181C0121C7
:10173000FFF7FCFEBD4602B080BDC0462448000055
:101740005055000038480000006CDC02B8FEFF1F56
:10175000BCFEFF1F0080034080B582B000AF786000
:101760000A1CFB1C1A707B689A89FA23DB009A42D8
:1017700021D17B681B7C002B0ED07B681B7A1A1C46
:10178000FB1C19782A4B4900CB5A2A49CB1A99B22B
:10179000294B5200D15248E07B681B7A1A1C25491C
:1017A000FB1C1878254B4000C35ACB1A99B2224B28
:1017B0005200D15239E07B689A89FA231B019A4280
:1017C00021D17B681B7C002B0ED07B681B7A1A1CF6
:1017D000FB1C19781A4B4900CB5A1A49CB1A99B2FB
:1017E000154B5200D15220E07B681B7A1A1CFB1C5F
:1017F0001978154B4900CB5A1249CB1A99B20E4BA6
:101800005200D15211E07B689B89F52B0DD17B688A
:101810001B7A1A1C0D49FB1C18780D4B4000C35A4B
:10182000CB1A99B2044B5200D152BD4602B080BDD2
:10183000504D0000C05D0000B8FEFF1F504B00007F
:1018400050530000E02E00005051000054BF000033
:10185000504F000080B582B000AF78600A1CFB1CBE
:101860001A70FB1C1B78002B06D07B681B6A402279
:101870001A437B681A6207E07B681B6A4022191CC6
:1018800091430A1C7B681A62BD4602B080BDC04607
:1018900080B582B000AF786039603B68012B07D912
:1018A0000848F823191CFF31074A084B01F0FCFFD8
:1018B0007B683A6804329200D358181CBD4602B0C7
:1018C00080BDC0464C4800005C55000064480000E4
:1018D00080B582B000AF78607B68181C01F06CFCAA
:1018E0007B6800221A707B6800225A707B68002295
:1018F0009A707B6800225A717B680022DA707B68DC
:1019000000229A717B6801221A727B681A22DA60BF
:101910007B680B4A101C191C01F0BEFB084B181CFD
:101920000021FFF797FF064B181C01F077FC044BD2
:10193000181C032101F0E6FCBD4602B080BDC04684
:1019400000B0034080B582B000AF78607B681A2297
:10195000DA607B6800221A747B680C334F4A101CD3
:1019600000211A1C01F00CFDC0464C4B181C002134
:1019700001F03EFD021C80231340F6D0474B181C9B
:101980000021FFF785FF021C454B1A60444B1A6883
:10199000131C9B009B181B01181C6421FEF7E8FD1B
:1019A000031C1A1C3F4B1A603E4B1A683E4B9A426E
:1019B0001BD93C4B1A683D4B9A4203D93C4B002241
:1019C0001A7022E0374B1B68FA2292005343394ABF
:1019D0009B18181C3849FEF7CBFD031CDBB21922FB
:1019E000D31ADAB2324B1A700FE02E4B1B68334A0F
:1019F0005343334A9B18181C2F49FEF7B9FD031CAB
:101A0000DBB21933DAB22A4B1A702E4B1B78DBB2D9
:101A10001A1C274B1B78191C2B4B5200D1522A4BF6
:101A20001B889BB21A1C284B5B889BB2D218264B92
:101A30009B889BB2D218244BDB889BB2D218224BD6
:101A40001B899BB2D218204B5B899BB2D2181E4BCC
:101A50009B899BB2D2181C4BDB899BB2D3181A1CF2
:101A60001A4B1A60194B1B68DB08DAB2184B1A7054
:101A7000144B1B78DBB2062B07D8124B1B78DBB25A
:101A80000133DAB20F4B1A7002E00E4B00221A70CB
:101A90000F4B1B78181CBD4602B080BD00B0034040
:101AA000D0FEFF1FD4FEFF1FCB020000F302000098
:101AB000D8FEFF1F2013F5FF5406000018FCFFFF9F
:101AC000E0EC0A00BEFEFF1FC0FEFF1FDCFEFF1F92
:101AD000E0FEFF1F80B582B000AF78600A1CFB1CDF
:101AE0001A70FB1C1B78002B06D07B681B6A4022F7
:101AF0001A437B681A6207E07B681B6A4022191C44
:101B000091430A1C7B681A62BD4602B080BDC04684
:101B100080B582B000AF786039603B68012B07D98F
:101B20000848F823191CFF31074A084B01F0BCFE96
:101B30007B683A6804329200D358181CBD4602B044
:101B400080BDC046804800007C55000098480000D9
:101B500080B584B000AF78603B1C0F3300221A7050
:101B60007B680922DA607B680C33CE4A101C0021A6
:101B70001A1C01F005FCC046CA4B181C002101F0DC
:101B800037FC021C80231340F6D0C64B181C0021E2
:101B9000FFF7BEFF021CC44B1A60C44B1B889BB2EC
:101BA0001A1C503AC04B1B689A4204D3BF4B1B8887
:101BB0009BB2002B42D1BE4B1B78DBB21A1CBA4B36
:101BC0001B6899B2BB4B5200D152BA4B1B889BB2D7
:101BD0001A1CB84B5B889BB2D218B64B9B889BB241
:101BE000D218B44BDB889BB2D218B24B1B899BB284
:101BF000D218B04B5B899BB2D218AE4B9B899BB27B
:101C0000D218AC4BDB899BB2D3181A1CAA4B1A60B2
:101C1000A94B1B68DB089AB2A44B1A80A44B1B7813
:101C2000DBB2062B07D8A24B1B78DBB20133DAB24A
:101C30009F4B1A7002E09E4B00221A709B4B1B8830
:101C40009BB21A1C503A984B1B689A4203D29B4B8A
:101C500001221A7011E0954B1B889BB21A1CA03A06
:101C6000914B1B689A4203D9944B00221A7004E0EE
:101C7000934B1B78DAB2914B1A70924B1B78DAB205
:101C80008E4B1B78DBB29A420CD18D4B1B78DAB2AB
:101C90008A4B1B78DBB29A4204D0884B1B78DAB2AD
:101CA000874B1A70864B1B78DBB201225340DBB2A4
:101CB000002B02D0844B01221A70834B1B78DBB2BD
:101CC000002B16D07E4B1B78DBB201225340DBB2D7
:101CD000002B07D07D4B1B78DBB20133DAB27B4B94
:101CE0001A7006E07A4B1B78DBB20133DAB2784B1C
:101CF0001A70774B1B78DBB2132B1ED9724B002264
:101D00001A70734B00221A706F4B00221A706F4BBF
:101D100000221A706E4B00221A706E4B00221A605D
:101D20006D4B8022D2011A606C4B00221A706C4BF2
:101D300000221A706B4B00221A70624B1B78DAB2C9
:101D40005F4B1B78DBB29A4200D1E3E05E4B1B781D
:101D5000DBB2002B00D1DDE05A4B1B78DBB2012255
:101D60005340DBB2002B57D0584B1B78DBB20A2B09
:101D700011D95B4B1B78DBB201225340DBB2002B45
:101D800009D0524B1B78DBB25B08DAB2564B1A70A3
:101D9000534B01221A70524B1B78DBB2002B2DD013
:101DA000504B1B78DBB2002B28D0484B1B78DAB2A3
:101DB0004D4B1B78DBB29A4214D8484B1B78DBB2F0
:101DC00001225340DBB2002B03D0444B01221A7096
:101DD00014E0414B1B685A083F4B1A603F4B0022EE
:101DE0001A700BE03B4B1A683B4B1B681A43394B8C
:101DF0001A60394B1B685A08374B1A60334B1B78F3
:101E0000DBB23A4A99008A58511C384A9B009950D3
:101E10002E4B00221A707DE02D4B1B78DAB2324B2C
:101E20001B78DBB29A420FD82E4B1B78DBB2012213
:101E30005340DBB2002B07D0294B1B78DBB2002BC1
:101E400002D0284B01221A70254B1B78DBB2002BE5
:101E500053D0244B1B78DBB2002B4ED01C4B1B788D
:101E6000DAB2214B1B78DBB29A4241D81B4B1B786C
:101E7000DBB201225340DBB2002B03D0174B01220F
:101E80001A703AE0134B1A68134B1B681A43114B34
:101E90001A60114B1B685A080F4B1A600F4B002237
:101EA0001A702AE000B00340E4FEFF1FE8FEFF1FA7
:101EB000FCFEFF1FECFEFF1F00FFFF1F06FEFF1FC3
:101EC00004FEFF1F05FEFF1F04FFFF1F05FFFF1F8E
:101ED00006FFFF1FA8FFFF1F08FEFF1FADFFFF1F2C
:101EE000AEFFFF1FAFFFFF1FACFFFF1F08FFFF1F6D
:101EF000504B1B685A084F4B1A604F4B1B78DBB294
:101F00004E4A99008A58511C4C4A9B0099504A4BA2
:101F100000221A704A4B1B78DAB24A4B1A704A4BAD
:101F20001B78DAB2464B1A70424B1B68002B00D06C
:101F300078E0464B1B68DAB201231340DAB27B68C3
:101F4000DA75424B1A68FF235B0013405B08DAB274
:101F50007B689A753D4B1A68E0231B0113405B0AAE
:101F6000DAB27B685A75394B1A68E023DB011340FB
:101F70001B0BDAB2364B1A707B68DB7D1A1C7B6850
:101F80009B7D191C7B685B7DC918314B1B78C91878
:101F900001230B409A4228D17B681A7D2C4B1B7879
:101FA0009A4203D02A4B1B78002B18D17B685B7DAB
:101FB000012B09D0022B0CD0002B00D014E03B1CCD
:101FC0000F3302221A7009E03B1C0F3303221A70F0
:101FD00004E03B1C0F3305221A70C04604E03B1C92
:101FE0000F3300221A7004E003E03B1C0F3304227D
:101FF0001A70184B00221A70174B00221A700E4BE1
:1020000000221A70114B00221A600A4B8022D20162
:102010001A60124B00221A70114B00221A70114BD9
:1020200000221A703B1C0F331B78181CBD4604B0ED
:1020300080BDC04608FEFF1F06FFFF1F58FFFF1FA1
:1020400004FEFF1F05FEFF1F06FEFF1FA8FFFF1F68
:10205000B0FFFF1F04FFFF1F05FFFF1FADFFFF1FA6
:10206000AEFFFF1FAFFFFF1F80B582B000AF7860EB
:102070000A1CFB1C1A707B68181C01F09DF87B6819
:1020800000225A707B6800229A707B6800225A7185
:102090007B680022DA707B6800229A717B680122DB
:1020A0001A727B680A4A101C191C00F0F5FF084BD5
:1020B000181C0021FFF70EFD054B181C032101F031
:1020C00021F97B68FA1C12781A75BD4602B080BDF2
:1020D00000B0034080B582B000AF021CFB1D1A7037
:1020E000064BFA1D1278111C1F220A400121081C00
:1020F0009040021C1A60BD4602B080BD00E100E0C5
:1021000080B582B000AF021CFB1D1A70FB1D1B784E
:102110005BB2181CFFF7DEFFBD4602B080BDC046B3
:1021200080B584B000AF786039607B681B68FB6065
:10213000FB6880229343FB60FA683B681343FB60B3
:102140007B68FA681A60BD4604B080BD80B582B075
:1021500000AF786039607B681A683B681A437B6817
:102160001A60BD4602B080BD80B582B000AF786015
:102170000A1CBB1C1A80BB1C1A887B689A60BD466F
:1021800002B080BD80B584B000AF78607B681B680A
:10219000FB60FB6880229343FB60FB6801221343D2
:1021A000FB607B68FA681A60BD4604B080BDC0461B
:1021B00080B584B000AF78607B681B68FB60FB680B
:1021C00080229343FB60FB6801229343FB607B68A2
:1021D000FA681A60BD4604B080BDC04680B584B0C0
:1021E00000AF78600A1CFB1C1A707B681B68FB60E0
:1021F000FB6818229343FB60FB1C1B78DA00182352
:102200001340FA681343FB607B68FA681A60BD46A6
:1022100004B080BD80B582B000AF78607B681B6879
:102220001822191C91430A1C7B681A60C0467B68FF
:102230001A6818231340FAD1BD4602B080BDC046CB
:1022400080B582B000AF7860094B00221A6000E0D0
:10225000C0467B68181CFA235900FEF789F9031C55
:102260001A1C034B1B689A42F2D8BD4602B080BDCF
:10227000D8FFFF1F80B500AF274B181C8021FFF748
:1022800065FF264B1B685A1C244B1A60244B1B68A5
:102290005A1C234B1A60234B1B685A1C214B1A6093
:1022A000214B1B685A1C204B1A60204B1B685A1C80
:1022B0001E4B1A601B4B1B68032B05D9194B0022C0
:1022C0001A601B4B01221A70154B1B68312B05D964
:1022D000134B00221A60174B01221A70134B1A6815
:1022E0009023FF339A4205D9104B00221A60124BFB
:1022F00001221A70094B1A68104B9A4209D9074BF0
:1023000000221A600E4B181CFFF71CFB021C0D4B21
:102310001A60BD4680BDC04600000440B4FFFF1FE8
:10232000C0FFFF1FC8FFFF1FD8FFFF1FD0FFFF1F09
:10233000CCFFFF1FC4FFFF1FD4FFFF1FCF0700000C
:102340002C010020B8FFFF1FB0B582B000AF02F033
:10235000B5F902F037F9524B181C0021342202F073
:1023600050FA4F4B181C01F0B3FA4E4B1A784D4BF4
:102370005B789A4210D14B4B5A784A4B9B789A42E1
:102380000AD1484B9A78474BDB789A4204D1454BA7
:102390001A78454B1A700FE0444B00221A604049EE
:1023A000F823DA01414B081C111C1A1C102301F000
:1023B0008FFB3D4B00221A703D4B00221A703C4BA4
:1023C00001225A703A4B01229A703A4A384B101C3B
:1023D000191C01F023FE384B181CFFF779FA324B19
:1023E0001B78364A101C191CFFF73EFE344B0022A6
:1023F0001A74334B00225A74314AFA23DB00101C42
:1024000001211A1CFFF71CF93B1C181C01F0C8FD28
:102410003B1C00221A713B1C00225A713B1C0022FB
:102420009A71284A3B1C101C191C01F06BFD0720F7
:1024300001F0AAF8031C1C1C00231D1C201C291CD5
:10244000144B134AFEF764F9031C0C1C181C211CC6
:10245000114A124BFEF73CF9031C0C1C9BB2194AA3
:10246000101C191CFFF780FE164B181C4021FFF7AB
:1024700057FE1C20FFF744FE124B181CFFF782FE8C
:10248000114B181CFFF7DCFEBD4602B0B0BDC046C4
:10249000F40100000000000080841E000000000025
:1024A000DCFFFF1F007C0000100000201C0000204B
:1024B00020000020240000202C010020000100202A
:1024C0001801002000000440A0860100C046C0465C
:1024D00080B500AFFFF738FF00F002F8FCE7C04618
:1024E00080B500AFD44B1B78002B0AD0D34B181CFF
:1024F000FFF72EFB031C1A1CD14B1A70CE4B002287
:102500001A70D04B1B78082B01D900F07EFD9A0081
:10251000CD4BD3181B689F46CC4B00221A70CB4B77
:102520001B78DBB2CA4A101C191CFFF715F9C44B03
:102530001B78052B01D900F02BFD9A00C54BD31851
:102540001B689F46BD4B9A7DC34B1A70C24B1B78CC
:10255000DBB2002B03D1BB4B00221A7015E0B94B44
:1025600002221A7011E0B54B9A7DBB4B1A70BA4B20
:102570001B78DBB2002B03D1B24B00221A7004E0AF
:10258000B04B01221A7000E0C04600F001FDB34BD1
:102590001B78DBB2002B21D0AC4B1B78DBB20133B4
:1025A000DAB2AA4B1A70A94B1B78DAB2AA4B1B7885
:1025B000DBB29A4207D3A84B1B78DAB2A34B1A704E
:1025C000A04B03221A70A14B1B78DBB2A04A101C4F
:1025D000191CFFF7C1F8A14B00221A70984B1B7809
:1025E000052B01D900F0D6FC9A009D4BD3181B682F
:1025F0009F46924B9A7D984B1A70974B1B78DAB294
:10260000924B1B78DBB29A4203D28E4B04221A7093
:102610000FE0914B1B78DAB28C4B1B78DBB29A42FD
:1026200003D9884B02221A7003E0864B03221A70EA
:1026300022E021E0814B9A7D874B1A70864B1B78F4
:10264000DAB2824B1B78DBB29A4203D27D4B052271
:102650001A700FE0804B1B78DAB27C4B1B78DBB230
:102660009A4203D9774B01221A7003E0754B03227B
:102670001A7001E000E0C04600F08CFC794B1B783A
:10268000DBB2002B21D0714B1B78DBB20133DAB205
:102690006E4B1A706D4B1B78DAB26F4B1B78DBB246
:1026A0009A4207D36C4B1B78DAB2684B1A70654BB1
:1026B00003221A70654B1B78DBB2654A101C191C8B
:1026C000FFF74AF8674B00221A705D4B1B78052B09
:1026D00001D900F061FC9A00634BD3181B689F4638
:1026E000564B9A7D5C4B1A705B4B1B78DAB2574B9A
:1026F0001B78DBB29A4203D2524B04221A700FE0CD
:10270000554B1B78DAB2514B1B78DBB29A4203D996
:102710004C4B02221A7003E04A4B03221A7022E04B
:1027200021E0464B9A7D4C4B1A704B4B1B78DAB22A
:10273000464B1B78DBB29A4203D2424B05221A70F9
:102740000FE0454B1B78DAB2404B1B78DBB29A4264
:1027500003D93C4B01221A7003E03A4B03221A7052
:1027600001E000E0C04600F017FC354B1B78052B5C
:1027700000D982E09A003D4BD3181B689F463C4B22
:102780001B685A1C3A4B1A6077E02C4B9A7D324BEF
:102790001A70314B1B78DAB22C4B1B78DBB29A42A1
:1027A00003D2284B04221A700FE02B4B1B78DAB2AD
:1027B000264B1B78DBB29A4203D9224B02221A70B5
:1027C00003E0204B03221A7057E056E01B4B9A7D22
:1027D000214B1A70204B1B78DAB21C4B1B78DBB2F2
:1027E0009A4203D2174B05221A700FE01A4B1B783E
:1027F000DAB2164B1B78DBB29A4203D9114B012295
:102800001A7003E00F4B03221A7036E035E0194BC3
:102810001B685A1C174B1A602FE00C4B1B78DBB25D
:10282000FF2B07D1054B9B7D062B03D1054B0822BF
:102830001A7022E021E0C046B4FEFF1F0001002014
:102840002A0100200CFEFF1F9C550000B1FFFF1F56
:1028500018010020C055000020FEFF1FCCFFFF1F05
:10286000D8550000C4FFFF1FF055000008560000B7
:102870001400002018000020C046CD4B1B686D2BB3
:1028800023D9CC4B1B78DBB201225340DBB2002BA7
:102890001BD0C94B1B78DBB21A1C131C9B009B1866
:1028A0001A019B18181C6421FDF762FE031CDAB2A2
:1028B000C24B1A70C14B1B78DAB2C14B1A70BD4BB8
:1028C00001221A70BF4B05221A70B94B1B687C2B72
:1028D00013D9B84B1B78DBB2002B0ED0B64B1922A4
:1028E0001A70B54B1B78DBB2B74A101C191CFEF7E7
:1028F00033FFB44B07221A7087E386E3B34B1B7890
:10290000DBB2002B2ED0AC4B1B78DBB2002B06D0F9
:10291000A94B1B78DBB2013BDAB2A74B1A70A64B6E
:102920001B78DAB2A54B1B78DBB29A4207D8A34BCF
:102930001B78DAB2A04B1A70A24B03221A709E4B7E
:102940001B78DBB2002B02D19E4B00221A709A4BEF
:102950001B78DBB29C4A101C191CFEF7FDFE9B4B3A
:1029600000221A709A4B1B78052B00D916E39A00A7
:10297000984BD3181B689F46974B9A7D8F4B1A70C4
:102980008E4B1B78DAB28C4B1B78DBB29A4203D2A7
:102990008C4B04221A700FE0884B1B78DAB2864BFE
:1029A0001B78DBB29A4203D9864B02221A7003E0ED
:1029B000844B03221A7022E021E0874B9A7D7F4BE3
:1029C0001A707E4B1B78DAB27B4B1B78DBB29A42D3
:1029D00003D27C4B05221A700FE0784B1B78DAB2D9
:1029E000754B1B78DBB29A4203D9764B01221A70E1
:1029F00003E0744B03221A7001E000E0C046CDE210
:102A0000764B1B78DBB2002B2ED06B4B1B78DBB2E6
:102A1000002B06D0684B1B78DBB2013BDAB2664B69
:102A20001A70654B1B78DAB2644B1B78DBB29A42A2
:102A300007D8624B1B78DAB25F4B1A70614B0322E6
:102A40001A705D4B1B78DBB2002B02D15D4B00226C
:102A50001A70594B1B78DBB25B4A101C191CFEF72D
:102A60007BFE5E4B00221A70594B1B78052B00D958
:102A7000C6E29A005A4BD3181B689F46564B9A7D64
:102A80004E4B1A704D4B1B78DAB24B4B1B78DBB2B6
:102A90009A4203D24B4B04221A700FE0474B1B782B
:102AA000DAB2454B1B78DBB29A4203D9454B02227E
:102AB0001A7003E0434B03221A7022E021E0464BD8
:102AC0009A7D3E4B1A703D4B1B78DAB23A4B1B781D
:102AD000DBB29A4203D23B4B05221A700FE0374B10
:102AE0001B78DAB2344B1B78DBB29A4203D9354BF0
:102AF00001221A7003E0334B03221A7001E000E058
:102B0000C0467DE2374B1B78DBB2002B22D0364B20
:102B10001B78DBB2354AD35CDAB2274B1A70264BEE
:102B20001B78DBB2284A101C191CFEF715FE2E4B31
:102B30001B78DBB20E2B07D82B4B1B78DBB2013393
:102B4000DAB2294B1A7002E0274B00221A70254B8B
:102B500000221A701E4B1B78052B00D952E29A00F6
:102B6000234BD3181B689F461B4B9B7D072B11D112
:102B7000114B00221A70104B1B78DBB2124A101C4A
:102B8000191CFEF7E9FD0F4B00221A70164B0022AC
:102B90001A7001E000E0C04634E20D4B1B78052BB3
:102BA00000D931E29A00134BD3181B689F46C046E8
:102BB000B8FFFF1FBCFFFF1FB1FFFF1F20FEFF1F5D
:102BC0000DFEFF1F0CFEFF1F18010020C4FFFF1F9A
:102BD0002A0100202056000000010020CCFFFF1F2A
:102BE00038560000D4FFFF1FD5FFFF1F10FEFF1F48
:102BF0005056000068560000E94B9B7D002B5BD1CE
:102C0000E84B181CFFF7D4FAE74B181CFFF702FB40
:102C1000E64B00221A60E649F823DA01E34B081C70
:102C2000111C1A1C102300F053FFDD4B00221A75F3
:102C3000E04B00221A70E04B00221A700AE0DE4BD3
:102C40001B78DE4A0021D154DB4B1B780133DAB20A
:102C5000D94B1A70D84B1B780E2BF0D9D74BFF22CB
:102C60005A70D64BFF22DA70D44BFF225A71D34BE5
:102C7000FF22DA71D14BFF225A72D04BFF22DA7257
:102C8000CE4BFF225A73CD4BFF22DA73CC4B00227E
:102C90001A60CC4B00221A70CB4B06221A70C24B22
:102CA00000225A60C04B181C0121FFF797FABD4B58
:102CB000181CFFF767FA65E1B94B9B7D012B4ED1DC
:102CC000B84B181CFFF774FAB74B181CFFF7A2FAA1
:102CD000B748F823D9018023DA00BC4B00F07EFE10
:102CE000BB4BBC4A1A60B249F823DA01B84B081C46
:102CF000111C1A1C102300F0EBFEA94B01221A75BF
:102D0000AC4B01221A70B44B00221A700AE0B24B8D
:102D10001B78AA4A0021D154AF4B1B780133DAB299
:102D2000AD4B1A70AC4B1B780E2BF0D9A34BFF2286
:102D3000DA71A34B00221A60A24B00221A70A24B38
:102D400006221A70984B00225A60974B181C0121DA
:102D5000FFF744FA934B181CFFF714FA12E1904B5B
:102D60009B7D022B51D18F4B181CFFF721FA8E4B04
:102D7000181CFFF74FFA8E48F823D9018023DA0098
:102D8000924B00F02BFE954B954A1A608849F82328
:102D9000DA01924B081C111C1A1C102300F098FE3B
:102DA0007F4B02221A75834B02221A708D4B002230
:102DB0001A700AE08B4B1B78804A0021D154894B52
:102DC0001B780133DAB2874B1A70864B1B780E2BB7
:102DD000F0D97A4BFF22DA71784BFF225A72784B86
:102DE00000221A60774B00221A70774B06221A7065
:102DF0006D4B00225A606C4B181C0121FFF7EEF955
:102E0000684B181CFFF7BEF9BCE0654B9B7D032B9C
:102E100054D1644B181CFFF7CBF9634B181CFFF718
:102E2000F9F96348F823D9018023DA00674B00F0F1
:102E3000D5FD6D4B6D4A1A605D49F823DA016A4B86
:102E4000081C111C1A1C102300F042FE544B0322D4
:102E50001A75584B03221A70654B00221A700AE04B
:102E6000634B1B78554A0021D154614B1B780133C9
:102E7000DAB25F4B1A705E4B1B780E2BF0D94F4BBA
:102E8000FF22DA714D4BFF225A724C4BFF22DA724D
:102E90004B4B00221A604B4B00221A704A4B062201
:102EA0001A70414B00225A603F4B181C0121FFF75A
:102EB00095F93C4B181CFFF765F963E0384B9B7D97
:102EC000042B57D1374B181CFFF772F9364B181CDF
:102ED000FFF7A0F93648F823D9018023DA003B4BED
:102EE00000F07CFD434B444A1A603149F823DA0173
:102EF000404B081C111C1A1C102300F0E9FD284B44
:102F000004221A752B4B04221A703C4B00221A70B3
:102F10000AE03A4B1B78294A0021D154374B1B78E1
:102F20000133DAB2354B1A70344B1B780E2BF0D9C3
:102F3000224BFF22DA71214BFF225A721F4BFF22D4
:102F4000DA721E4BFF225A731D4B00221A601D4B72
:102F500000221A701C4B06221A70134B00225A6072
:102F6000114B181C0121FFF739F90E4B181CFFF704
:102F700009F907E00A4B9B7D072B03D1124B032273
:102F80001A7001E000E0C046C0463DE0C0463CE0AB
:102F9000C0463AE0C04638E0C04636E0C04634E0BD
:102FA00000010020000004400080034028000020B1
:102FB000DCFFFF1F100000202C00002010FEFF1F70
:102FC000D0FFFF1FD4FFFF1F0CFEFF1F6B66656B5A
:102FD00030000020010101013400002038000020F1
:102FE000020202023C000020400000200303030311
:102FF0004400002048000020040404044C00002089
:10300000C04602E0C04600E0C046BD4680BDC046A6
:1030100090B585B000AF78607B681B0C084A9B18A0
:10302000FB60FB68FA6811687A681204120C0120D0
:10303000041C9440221C0A431A60BD4605B090BD92
:103040000070044080B584B000AF78600023FB605E
:1030500007E00D4A7B689A4200D105E0FB68013326
:10306000FB60FB68002BF4D0FB68002B06D00749FF
:10307000074A084B081C442100F016FCFB68181C8A
:10308000BD4604B080BDC04600B00340B448000057
:1030900080560000CC48000080B584B000AF786056
:1030A00039603B68002B06D13F49404A404B081C21
:1030B0004B2100F0F9FB7B68181CFFF7C3FF3D4B69
:1030C000181CFFF7A5FF3B685B781A1C03231A4006
:1030D0003B681B7999000C230B401343FB603B6852
:1030E0005B79042B03D0FB6810221343FB603B6821
:1030F000DB785A0160231340FA681343FB603B6896
:10310000DB79002B03D0FB6880221343FB607B68D4
:10311000FA689A607B68DB680F229343FB603B6828
:103120005B79042B07D03B685B791A1C032313409F
:10313000FA681343FB603B689B79002B03D0FB6864
:1031400004221343FB603B689B78002B03D0FB6891
:1031500008221343FB607B68FA68DA607B681B6AAD
:1031600003229343FB603B681B781A1C0323134024
:10317000FA681343FB607B68FA681A623B681B7A43
:10318000002B06D07B685B6A08221A437B685A6270
:1031900007E07B685B6A0822191C91430A1C7B6864
:1031A0005A62BD4604B080BDB44800009456000089
:1031B000F44800001B003C1080B582B000AF78607E
:1031C0007B68002B06D11249124A134B081C872139
:1031D00000F06AFB7B6800221A707B6803225A7039
:1031E0007B6801229A707B680322DA707B68012277
:1031F0001A717B6804225A717B6800229A717B687D
:103200000022DA717B6800221A72BD4602B080BDCE
:10321000B4480000A0560000F448000080B586B015
:1032200000AF78603B1C173300221A7000233B610B
:103230007B681A6A402313400BD03B1C17330122D2
:103240001A707B681B6A4022191C91430A1C7B6818
:103250001A627B685B6AC0221A437B685A620AE082
:103260007B68181C00F06EF8021C4023134002D04B
:1032700001233B6108E07B68181C002100F0B8F8CE
:10328000021C80231340EBD07B681B69FB603B1C56
:1032900017331B78002B05D07B681B6A40221A432A
:1032A0007B681A627B68181C00F04CF8021C4023F3
:1032B000134001D001233B613B69002B01D03B69E6
:1032C0001BE07B68DA6C7B689B6CD2187B685B6C5C
:1032D000D2187B681B6CD2187B68DB6BD2187B68BA
:1032E0009B6BD318FB60FB685B08802212021343C0
:1032F000FB60FA687B68DA620023181CBD4606B0E2
:1033000080BDC04680B584B000AF78600A1CFB1C4D
:103310001A707B685B6A07229343FB60FB1C1B7877
:10332000042B08D0FB1C1A7803231A40FB681343B4
:1033300004221343FB607B68FA685A62BD4604B0FE
:1033400080BDC04680B584B000AF78600023FB60CC
:103350007B681A6A8023134003D0FB6880221343E2
:10336000FB607B685A6A4023134003D0FB6840220D
:103370001343FB60FB68181CBD4604B080BDC0460B
:1033800080B586B000AFF860B9607A60BB68012B89
:1033900007D913484E23191CFF31124A124B00F073
:1033A00083FA7B68002B06D10D48A72359000D4AEC
:1033B0000E4B00F079FA7B681A681F2313407B617B
:1033C0007B681B79002B03D07B69402213437B6110
:1033D000FB68BA6892007969D150BD4606B080BDDD
:1033E000B4480000B856000004490000F44800004A
:1033F00080B584B000AF786039603B68012B07D995
:103400000C486423191CFF310B4A0C4B00F04CFA9A
:103410000023FB607B683A689200D25880231340F7
:1034200003D0FB6880221343FB60FB68181CBD4679
:1034300004B080BDB4480000D0560000044900002C
:1034400080B582B000AF7860074B074A1168074A21
:1034500011407A689004C022120302400A431A60A5
:10346000BD4602B080BDC04600700440FFFFF3FFC0
:1034700080B500AF0E4B1B78DBB21A1C0223134041
:1034800008D10B4B9B79DBB21A1C0C2313409B0811
:10349000012B09D1064B5B78DBB21A1C01231A40C1
:1034A000044B9200D35800E00023181CBD4680BD99
:1034B000004006401C57000080B500AF0C4B1B7845
:1034C000DBB2DBB25BB2002B0DDA0A4B1B68002BC0
:1034D00006D10949094A0A4B081C662100F0E4F9A3
:1034E000044B1B6800E00023181CBD4680BDC0468D
:1034F00000500640440100202449000024570000E9
:103500003C49000080B582B000AF1A4B1A68C02356
:103510001B0313409B0C022B10D0032B1DD0002B40
:103520001FD1FFF7C9FF021C80231B029A4202D160
:1035300080231B0200E000237B6015E00E4B1B681C
:10354000002B06D10D490E4A0E4B081C7A2100F0C3
:10355000ABF9094B1B687B6006E0FA239B007B609C
:1035600002E000237B60C0467B68181CBD4602B0A9
:1035700080BDC04600700440400100202449000086
:103580003C5700004849000080B584B000AF021CE1
:10359000FB1D1A70FB1D1B780B2B48D89A00284B7B
:1035A000D3181B689F4600F0A7F8021C2549264B3C
:1035B000CB581B0F0133101C191CFCF7D9FF031C3F
:1035C000FB6037E000F098F8021C1E491E4BCB58F8
:1035D0001B0F0133101C191CFCF7CAFF031CFB60F6
:1035E000184A194BD258E023DB0213401B0C01335D
:1035F000F868191CFCF7BCFF031CFB601AE0FFF71E
:1036000081FF031CFB6015E0FFF756FF031CFB6006
:1036100010E000F031F8031CFB600BE000F050F804
:10362000031CFB6006E0FA239B00FB6002E0002322
:10363000FB60C046FB68181CBD4604B080BDC04698
:10364000EC560000007004404410000080B582B0C9
:1036500000AF7860064A7B685968064BD1507B689A
:103660001B78181CFFF7ECFEBD4602B080BDC046BB
:10367000007004404410000080B582B000AF0F4BD2
:103680001B7ADBB21A1C0E2313405A08FB1D1A705A
:103690000A4B1B7ED9B2BB1D07220A401A70FFF7E6
:1036A000E7FE021CFB1D1978BB1D1B78CB18111CF3
:1036B000D9400B1C181CBD4602B080BD004006401E
:1036C00080B500AF0A4B1B7EDBB2DBB25BB2002BD6
:1036D00007DB074B9B79DBB21A1C0C2313409B08BA
:1036E00001D1044B00E00023181CBD4680BDC0463C
:1036F00000400640006CDC0280B582B000AF1B4B7E
:103700009B79DBB21A1C0C2313409B08012B06D0BB
:1037100002D3022B12D020E0154B7B6020E0FFF794
:10372000A7FE021C114B1B7ADBB2191C0E230B40A7
:103730005B08111CD9400B1C7B6011E00D4B1B6812
:10374000002B06D10C490D4A0D4B081CF52100F049
:10375000ABF8084B1B687B6002E000237B60C0462F
:103760007B68181CBD4602B080BDC04600400640C4
:10377000006CDC0244010020244900005457000082
:103780003C49000080B582B000AF78607B68002BB8
:1037900006D1414890235900404A414B00F084F83B
:1037A000404B9B79DBB21A1C0C2313409B08012B66
:1037B0001ED17B681B78012B1AD13A4B5B78DBB2A8
:1037C0001A1C01231A407B689B789A4210D0354B13
:1037D000344A1278D1B23F220A40D2B21A70C0469F
:1037E000304B9B79DBB21A1C0C2313409B08F7D19A
:1037F0002C4A7B68DB78DB18D9B20E230B40DBB296
:103800001372284B7A685279D201D1B27A68107952
:1038100007220240D2B20A43D2B21A76214B214A81
:103820005278D2B201218A43D1B27A6890780122CB
:103830000240D2B20A43D2B25A701A4B7A68127856
:103840009201D1B27A6852780A43D2B21A70154BFB
:103850005B78DBB21A1C042313400BD07B681B7807
:10386000022B07D1C0460F4B9B79DBB21A1C0223F7
:103870001340F8D0C0467B681B781A1C094B9B7913
:10388000DBB2191C0C230B409B089A42F3D1002396
:10389000181CBD4602B080BD2449000068570000D6
:1038A000584900000040064090B587B002AFF8606C
:1038B000B9607A603B6005483968FA68BB687C6823
:1038C0000094FDF739FB00BEFDE7C04668490000E3
:1038D00080B584B000AF78607B68002B01D10423F1
:1038E0004EE0294A294BD258F0231B0513401A0EEB
:1038F0003B1C0B331A703B1C0B331B780F2B03D173
:1039000080231B02FB6007E03B1C0B331A78204B23
:103910005200D35A9B02FB607B6800221A607B68CE
:10392000FA685A607B6801229A607B688022D20024
:10393000DA607B6800225A617B6800229A617B68AA
:1039400000221A617B68181C00F0C6F9031C002BCA
:103950000FD0104B00221A600E4B0F4A5A600D4BCD
:103960000E4A9A607B680B4ADA617B68181C00F08B
:1039700017F87B6800221A627B6800225A620023D3
:10398000181CBD4604B080BD007004404C100000FF
:1039900098570000D8000020580000209800002010
:1039A00080B584B000AF78607B68002B01D1042320
:1039B00010E07B68DB69FB60FB685B68181C00F04B
:1039C00005F9FB689B68181C00F056F9FB68022299
:1039D0001A600023181CBD4604B080BD80B590B0AD
:1039E00000AFF860B9607A603B60F968BA683B1C68
:1039F0001033081C111C1A1C00F0B8F93B1C1033C2
:103A00001B69F868B9687A6800F082F9031CBB6327
:103A1000BB6B002B01D0BB6B53E03B1C10331B680E
:103A2000BB603B1C10335B687B63BA687B68D31850
:103A3000013BFB63FB6B181C796BFCF7DDFD0B1C7A
:103A4000002B0CD0F86B796BFCF792FD031C013353
:103A50003B633B6B7A6B5343013BFB6328E027E0FE
:103A60001A4BBA681202120A902109050A431A6019
:103A70003B68181C00F0B6F9031CBB63BB6B002B42
:103A800001D0BB6B1DE0FB68181C00F0B7F8031CED
:103A9000BB63FB681B69002B02D0FB681B6998475E
:103AA000BB6B002B00D007E0BA687B6BD318BB6000
:103AB000BA68FB6B9A42D3D9FB68181C00F0F4F883
:103AC000BB6B181CBD4610B080BDC0460400024050
:103AD00080B58EB000AFF860B9607A603B607B68FB
:103AE000002B01D104236BE0F968BA683B1C143346
:103AF000081C111C1A1C00F039F93B1C1433DB683C
:103B0000F868B9683A6800F003F9031C7B637B6BC3
:103B1000002B01D07B6B53E03B1C14331B68BB6054
:103B200046E0294B1A1D7B68191D79601B681360DC
:103B30003B1C1433DB68042B08D1234BBA681202F8
:103B4000120AC021C9040A431A6014E03B1C143352
:103B5000DB68082B0FD11C4B1A1C08327B68191D1F
:103B600079601B681360184BBA681202120AE021D0
:103B7000C9040A431A60FB68181C00F03FF8031CD4
:103B80007B63FB681B69002B02D0FB681B699847AD
:103B90007B6B002B00D00EE03B1C1433DB68BA6853
:103BA000D318BB603B1C1433DB683A68D31A3B6004
:103BB0003B68002BB5D1FB68181C00F075F87B6BD7
:103BC000181CBD460EB080BD0400024080B582B016
:103BD00000AF78607A68074B101C191C0C2200F0AB
:103BE00007FE7B6801331A1C034B1A60BD4602B006
:103BF00080BDC046805700005000002080B584B0D2
:103C000000AF78601A4B70221A707B68181C00F0A5
:103C100063F8031CFB60FB68002B01D0FB6822E00B
:103C2000144B1B68124A101C9847114A3B1C0B335B
:103C300012781A703B1C0B331A782023134001D0E2
:103C4000672310E03B1C0B331A781023134001D07C
:103C5000682308E03B1C0B331A780123134001D082
:103C6000692300E00023181CBD4604B080BDC04697
:103C7000000002405000002080B582B000AF7860A4
:103C80007A68074B101C191C0A2200F0B1FD7B68F2
:103C900001331A1C034B1A60BD4602B080BDC046FA
:103CA0008C5700005400002080B584B000AF7860CD
:103CB0007B68181C00F010F8031CFB60FB68002BED
:103CC00000D003E0034B1B6800209847BD4604B0BA
:103CD00080BDC0465400002080B584B000AF78603D
:103CE0007B68002B01D104230DE07B68DB69FB605E
:103CF0007B68DB69002B05D0FB681B68022B01D1B8
:103D0000002300E06D23181CBD4604B080BDC046F2
:103D100080B584B000AFF860B9607A603B60FB6842
:103D2000002B01D104231DE03B68013BBA6813401E
:103D300004D13B68013B7A68134001D0652311E050
:103D4000FB681A68BB689A4209D8BA687B68D218BF
:103D5000FB681968FB685B68CB189A4201D9662337
:103D600000E00023181CBD4604B080BD80B584B0BF
:103D700000AFF860B9607A60FB68002B01D10423C2
:103D80002BE07B68181C0021202200F03AFDFB6824
:103D90001B68BA68D21A7B681A60FB68DA687B68AD
:103DA0005A60FB685A68FB689B68101C191CFCF77A
:103DB000DFFB031C1A1C7B689A607B680422DA60B4
:103DC0007B6804221A617B6804225A617B680422A2
:103DD0009A617B680422DA610023181CBD4604B096
:103DE00080BDC04680B582B000AF78607A68054B70
:103DF0009A4201D06B2300E00023181CBD4602B09C
:103E000080BDC0466B66656B80B582B000AF7860E0
:103E100039607B68DB78DBB21A1C1023134006D1B3
:103E20007B689B78DBB21A1C2023134007D0094B18
:103E30001B6879683A68081C111C984706E0064B15
:103E40001B6879683A68081C111C9847BD4602B087
:103E500080BDC046E8000020EC00002080B500AF27
:103E6000044B1B68044A101C191CFFF7CDFFBD460C
:103E700080BDC046E40000200060064090B585B0DB
:103E800000AF78607B681B0C084A9B18FB60FB68DE
:103E9000FA6811687A681204120C0120041C94401C
:103EA000221C0A431A60BD4605B090BD0070044054
:103EB00080B584B000AF78600023FB6007E00D4A56
:103EC0007B689A4200D105E0FB680133FB60FB6828
:103ED000002BF4D0FB68002B06D00749074A084B9B
:103EE000081C4621FFF7E0FCFB68181CBD4604B027
:103EF00080BDC04600000440A8490000B85700003B
:103F0000C049000080B582B000AF786039603B687E
:103F1000002B06D11E491F4A1F4B081C4D21FFF7DD
:103F2000C3FC7B68181CFFF7C3FF1C4B181CFFF772
:103F3000A5FF3B681B785A0002231A403B68DB78D8
:103F4000990004230B401A433B689B78D90008234F
:103F50000B401A433B685B78190130230B401A432E
:103F60007B681A603B689B79DA0078231A403B68CB
:103F70001B79990004230B401A433B685B79191C99
:103F800003230B401A437B685A60BD4602B080BDD4
:103F9000A8490000CC570000E84900000000381094
:103FA00080B582B000AF78607B68002B06D10F49E6
:103FB0000F4A104B081C6521FFF776FC7B68002236
:103FC0001A707B6800225A707B6800229A707B68A6
:103FD0000022DA707B6801221A717B6801225A7113
:103FE0007B6800229A71BD4602B080BDA8490000DE
:103FF000D8570000E849000080B500AF044B1A68AC
:10400000044B1B680449081C191C9047BD4680BD21
:10401000F4000020F00000200040054080B582B090
:1040200000AF786039603B689A783B681B785B0129
:10403000DBB21343DAB23B685B781B01DBB213439C
:10404000DBB240221343DAB27B681A70BD4602B07D
:1040500080BDC04680B500AF094B1B68002B05D161
:1040600008480949094A0A4BFFF71EFC094B1A6820
:10407000034B1B680849081C191C9047BD4680BDAE
:10408000F8000020F04900009E030000F0570000F7
:10409000704A0000FC0000200060074090B585B029
:1040A00000AF78607B681B0C084A9B18FB60FB68BC
:1040B000FA6811687A681204120C0120041C9440FA
:1040C000221C0A431A60BD4605B090BD0070044032
:1040D00080B584B000AF78600223BB600023FB6032
:1040E0000AE00F4BFA689200D2587B689A4200D1DE
:1040F00006E0FB680133FB60FA68BB689A42F0D3C4
:10410000FA68BB689A4206D30649074A074B081C5F
:104110004C21FFF7C9FBFB68181CBD4604B080BDED
:1041200008580000804A000018580000984A000013
:1041300080B582B000AF786039603B68002B06D153
:104140002F49304A304B081C5321FFF7ADFB7B68E9
:10415000181CFFF7BDFF021C2C4B9200D358181CF3
:10416000FFF79CFF3B681B781A1C07231A407B68EB
:104170001A603B68DB785A0120231A403B685B7861
:10418000590280239B000B401A433B685B799904DA
:104190008023DB020B401A433B68DB791904802340
:1041A0005B020B401A433B689B79590480239B02B6
:1041B0000B401A433B689B781906F0231B050B4004
:1041C000111C19437A688423D1503B681B79002B5A
:1041D00009D07A688423D358C022111C19437A6805
:1041E0008423D15008E07A688423D358C022191C54
:1041F00091437A688423D150BD4602B080BDC04649
:10420000804A000028580000B44A000010580000FE
:1042100080B582B000AF78607B68002B06D1114971
:10422000114A124B081C7F21FFF73EFB7B680022DE
:104230001A707B6800225A707B680022DA707B68F3
:1042400000221A717B6800225A717B6800229A71E1
:104250007B680022DA717B6800229A70BD4602B04A
:1042600080BDC046804A000034580000B44A0000B7
:1042700080B588B000AFF860B960111C1A1CFB1D36
:104280001970BB1D1A70BB68002B06D17649774A9E
:10429000774B081CA121FFF707FBBB6A002B06D157
:1042A0007149724A734B081CA221FFF7FDFAFB1DEE
:1042B0001B78002B06D16C496C4A6F4B081CA3215C
:1042C000FFF7F2FAFB6A002B06D16749674A6B4B8E
:1042D000081CA421FFF7E8FAFB681B681A1C0723D7
:1042E0001340FA6A111CD9400B1C7B61BB1D1B7863
:1042F000002B02D0012B10D01EE0FB681B6820228F
:10430000191C91430A1CFB681A607869B96AFCF7AA
:104310002FF9031C013BFB6110E0FB681B682022A6
:104320001A43FB681A60BB6A5B007869191CFCF7CA
:104330001FF9031CFB6101E0012390E0FA69504B77
:104340009A4201D901238AE0FB68FA699A603B1C12
:10435000193300221A7079E0BB689B78642B01D96D
:1043600001237CE0BB689B78002B04D13B1C1A33F3
:1043700000221A8018E0BB689B78FA695343181C26
:104380006421FCF7F5F8031C1A1C3B1C1A331A8035
:104390003B1C1A331A88FB699A4205D3FB699AB20F
:1043A0003B1C1A3301321A80BB681B78181CBB688F
:1043B0001B78FA680133DB00D3185B683C22191CB8
:1043C00091430A1CF968431CDB00CB185A60C046B5
:1043D000BB681B78FA680133DB00D3185A683C23AA
:1043E0001340F5D1BB681B78181CBB681B78FA68B2
:1043F0000133DB00D3185A68BB685B789B0013431A
:1044000020221A43F968431CDB00CB185A60C046CF
:10441000BB681B78FA680133DB00D3185A683C2369
:104420001340F5D0BB681B783A1C1A321288F96821
:104430000133DB00CB189A60BB680333BB603B1CC5
:1044400019331A783B1C193301321A703A1C19328D
:10445000FB1D12781B789A4200D27DE70023181CBE
:10446000BD4608B080BDC046804A00004C580000E0
:10447000BC4A0000C84A0000D44A0000E04A0000DC
:10448000FFFF000080B584B000AF786039603A6803
:10449000FF231340FB603B1C0B3300221A703A6869
:1044A00080235B00134006D07B681B6840221A43C0
:1044B0007B681A6020E01FE0FA680123134011D0E6
:1044C0003B1C0B3318783B1C0B331B787A68013389
:1044D000DB00D3185B6840221A437968431CDB0079
:1044E000CB185A603B1C0B331A783B1C0B33013240
:1044F0001A70FB685B08FB60FB68002BDCD1BD46D3
:1045000004B080BD80B582B000AF7860084A084929
:10451000084BC958084B19407B689806C0231B05F7
:1045200003401943034BD150BD4602B080BDC04685
:104530000070044004100000FFFFFFF380B582B05C
:1045400000AF7860084A0849084BC958084B194021
:104550007B681806C0239B0403401943034BD150CA
:10456000BD4602B080BDC04600700440041000008B
:10457000FFFFFFFC80B582B000AF7860084A0849B1
:10458000084BCB58E021181C8843011C7B6858015C
:10459000FF2303401943034BD150BD4602B080BDF9
:1045A000007004400410000080B500AF034A044BC3
:1045B00080214902D150BD4680BDC04600700440F4
:1045C0004410000080B500AFFFF7EEFF0A4B181C47
:1045D000FFF7D8F8094B181CFFF738F8084B094AC1
:1045E0001A600120FFF78EFF0120FFF7A7FF0720C9
:1045F000FFF7C0FFBD4680BD5C5800006458000056
:1046000000FEFF1F006CDC0290B585B000AF786043
:104610007B681B0C084A9B18FB60FB68FA681168F2
:104620007A681204120C0120041C9440221C0A43D4
:104630001A60BD4605B090BD0070044080B586B0DC
:1046400000AFF860B9607A607B68002B06D1094939
:10465000094A0A4B081CD121FFF726F9BB689B00C9
:10466000FA68D3187B617B697A6812881A80BD4624
:1046700006B080BD304B00006C580000484B000075
:1046800080B584B000AFF860B960FB1D1A70FB689C
:10469000BA689200D258084B1A40FB1D1B781902C9
:1046A000E023DB000B40111C1943FB68BA68920041
:1046B000D150BD4604B080BDFFF8FFFF80B582B089
:1046C00000AF294B181CFFF79FFF284B181CFFF762
:1046D0009BFF274B181C00210322FFF7D1FF244B1F
:1046E000181C01210322FFF7CBFF214B181C0221CC
:1046F0000322FFF7C5FF3B1D00221A803B1D1A78DD
:1047000003218A4302210A431A703B1D5A7807216C
:104710008A4302210A435A70154A3B1D101C052189
:104720001A1CFFF78BFF3B1C00221A803B1C1A78D7
:1047300003218A4302210A431A703B1C5A7807213D
:104740008A4302210A435A70094A3B1C101C062165
:104750001A1CFFF773FF074B181C00210022FFF7FC
:104760008FFFBD4602B080BD090038100A00381026
:104770000090044000A00440084B10B5041C002B1E
:1047800002D0002100E000BF054B1868836A002BAF
:1047900000D09847201C00F043F8C04600000000FD
:1047A0008458000070B50E4B0E4D0024ED1AAD106C
:1047B0001E1CAC4204D0A300F35898470134F8E71C
:1047C00001F062F8084B094D0024ED1AAD101E1CD3
:1047D000AC4204D0A300F35898470134F8E770BD09
:1047E000A8580000A8580000A8580000AC580000C5
:1047F00010B50023934203D0CC5CC4540133F9E7D5
:1048000010BD031C8218934202D019700133FAE7DD
:1048100070470023C25C0133002AFBD1581E704749
:10482000FEE7C0462E2E2F736F757263652F6C7373
:10483000675F6C65642E630074706D304368616EF1
:104840006E656C4E756D6265723C32002E2E2F6463
:104850007269766572732F66736C5F61646331365B
:104860002E6800006368616E6E656C47726F7570CC
:10487000203C204144435F525F434F554E5400005B
:104880002E2E2F647269766572732F66736C5F616A
:10489000646331362E6800006368616E6E656C4734
:1048A000726F7570203C204144435F525F434F5507
:1048B0004E5400002E2E2F647269766572732F6637
:1048C000736C5F61646331362E630000696E7374CC
:1048D000616E6365203C2046534C5F46454154550C
:1048E00052455F534F435F41444331365F434F5519
:1048F0004E5400004E554C4C20213D20636F6E6697
:10490000696700006368616E6E656C47726F7570F1
:10491000203C204144435F5343315F434F554E5445
:10492000000000002E2E2F647269766572732F6668
:10493000736C5F636C6F636B2E630000675F7874EA
:10494000616C304672657100675F7874616C3332F8
:104950004672657100000000746172676574436F90
:104960006E6669670000000041535345525420456C
:1049700052524F52202220257320223A2066696C21
:10498000652022257322204C696E65202225642231
:104990002066756E6374696F6E206E616D6520228E
:1049A000257322200A0000002E2E2F64726976657E
:1049B00072732F66736C5F6C70746D722E6300007F
:1049C000696E7374616E6365203C2046534C5F468C
:1049D0004541545552455F534F435F4C50544D52DF
:1049E0005F434F554E540000636F6E666967000069
:1049F0002E2E2F647269766572732F66736C5F73E7
:104A000070692E6300000000696E7374616E6365E7
:104A1000203C2046534C5F464541545552455F5318
:104A20004F435F5350495F434F554E5400000000C1
:104A3000636F6E66696720262620737263436C6F0E
:104A4000636B5F487A000000636F6E666967000001
:104A5000786665720000000068616E646C65000035
:104A600068616E646C652026262078666572000099
:104A7000735F73706948616E646C655B305D0000E4
:104A80002E2E2F647269766572732F66736C5F7455
:104A9000706D2E6300000000696E7374616E636553
:104AA000203C2074706D4172726179436F756E7431
:104AB00000000000636F6E666967000063686E6CDB
:104AC000506172616D73000070776D467265715F41
:104AD000487A00006E756D4F6643686E6C73000017
:104AE000737263436C6F636B5F487A0063686E6CCC
:104AF0004E756D626572203C2046534C5F464541C1
:104B0000545552455F54504D5F4348414E4E454CBD
:104B10005F434F554E546E28626173652900000053
:104B200063686E6C436F756E7420213D202D3100DB
:104B30002E2E2F647269766572732F66736C5F70A8
:104B40006F72742E68000000636F6E666967000004
:104B50000000D200D300D400D500D600D700D80082
:104B6000D900DA00DB00DC00DD00DE00DF00E6005B
:104B7000ED00F600FE00080113011E012A013701B5
:104B8000450153016201720183019401A601B9013B
:104B9000CD01E101F7010D0224023B0254026D0236
:104BA0008702A102BD02D902F602130332035103A8
:104BB00071039203B403D603F9031D04420467048E
:104BC0008D04B404DC0404052D0557058205AE05EB
:104BD000DA050706350664069306C306F4062607BB
:104BE00058078B07BF07F4072A0860089708CF0803
:104BF000080941097B09B609F2092E0A6B0AA90ABC
:104C0000E80A280B680BA90BEB0B2D0C710CB50CEB
:104C1000FA0C3F0D860DCD0D150E5E0EA70EF10E92
:104C20003C0F880FD50F22107010BF100F115F11AD
:104C3000B01102125512A812FD125213A713FE133F
:104C40005514AD1406156015BA1515167116CE1645
:104C50002C178A17E9174918A9180A196C19CF19BE
:104C6000331A971AFC1A621BC91B301C991C021DAF
:104C70006B1DD61D411EAD1E1A1F881FF61F652015
:104C8000D5204621B72129229C2210238523FA23EF
:104C90007024E7245E25D7255026CA264427C0273E
:104CA0003C28B9283729B529342AB42A352BB72B03
:104CB000392CBC2C402DC52D4A2ED02E572FDF2F3E
:104CC0006730F0307A31053291321D33AA333834EF
:104CD000C7345635E635773609379B372E38C23814
:104CE0005739ED39833A1A3BB23B4B3CE43C7E3DAD
:104CF000193EB53E513FEE3F8C402B41CA416B42BD
:104D00000C43AE435044F44498453D46E24689473F
:104D10003048D84880492A4AD44A7F4B2B4CD84C3B
:104D2000854D334EE24E924F4250F350A5515852AA
:104D30000B53C05375542A55E1559856505709588E
:104D4000C3587D59385AF45AB15B6E5C2D5DC05D15
:104D50000000D200D300D400D500D600D700D80080
:104D6000D900DA00DB00DC00DD00DE00DF00E0005F
:104D7000E100E200E300E400ED00F60000010B01B9
:104D80001801240130013E014D015B016B017B01E3
:104D90008C019E01B101C401D701EB010102160291
:104DA0002C0243025B0273028C02A502BF02DA02EC
:104DB000F60212032F034D036B038A03A903C903F1
:104DC000EA030B042E04500474049804BD04E204A6
:104DD00008052F0557057F05A705D105FB05260604
:104DE00051067D06A906D706050734076307930712
:104DF000C407F50727085A088E08C108F6082B09CA
:104E000061099809CF09070A400A790AB30AEE0A2C
:104E1000290B640BA10BDE0B1C0C5B0C9A0CDA0C3F
:104E20001A0D5B0D9E0DE00D230E670EAC0EF00EFD
:104E3000360F7D0FC40F0B1054109E10E710311168
:104E40007C11C81115126212AF12FE124D139D1380
:104E5000EE133E149014E31435158915DD15321642
:104E60008816DE1635178D17E5173E189818F218B4
:104E70004D19A919051A621ABF1A1E1B7D1BDC1BCE
:104E80003C1C9D1CFF1C611DC41D271E8C1EF11E99
:104E9000561FBC1F23208B20F3205C21C5212F220D
:104EA0009A2206237223DE234B24BA242825982530
:104EB00008267926EA265D27CF274228B6282B29FF
:104EC000A029162A8D2A042B7D2BF52B6E2CE82C7D
:104ED000632DDE2D5A2ED72E552FD22F5130D030A4
:104EE0005031D1315232D4325733DA335E34E23476
:104EF0006735EE357436FB3683370B3894381F39F7
:104F0000A939343AC03A4D3BDA3B683CF63C853D22
:104F1000153EA53E363FC83F5A40ED4081411642FE
:104F2000AB424043D7436E4406459E453746D14683
:104F30006B470648A2483E49DB49784A174BB64BB7
:104F4000564CF64C974D384EDB4E7D4F2250A050BC
:104F50000000AD01AF01B101B301B501B701B90165
:104F6000BB01BD01BF01C101C301C501C701D5011D
:104F7000E401F60106021B023102480260027B02D4
:104F80009702B402D202F302160338035D038403CE
:104F9000AD03D60303042F045E048D04C004F304A0
:104FA00028055D059705D0050B0646068506C5064E
:104FB000060749078F07D4071C086508B008FC08D6
:104FC0004A099909EB093C0A900AE60A3E0B970B3D
:104FD000F10B4D0CAB0C0B0D6B0DCD0D310E970E77
:104FE000FD0E650FCF0F3B10A91018118811FA1193
:104FF0006E12E3125913D1134C14C6144315C11584
:105000004216C5164717CC175318D9186419EF194B
:105010007C1A081B991B2A1CBD1C521DE71D7E1EF5
:10502000171FB21F4F20ED208C212D22D022732379
:105030001924C0246A251326C0266E271B28CD28D4
:105040007E29322AE82A9F2B572C112DCC2D8A2E0F
:105050004A2F0A30CC30903154321A33E233AC3418
:10506000783544361237E237B43887395D3A333B06
:10507000093CE43CBE3D9B3E793F59403A411C42CD
:105080000143E843CE44B745A2468E477D486C496C
:105090005D4A504B424C394D304E294F22501F51E2
:1050A0001C521B531D541E55215626572D58375937
:1050B000405A4B5B595C685D785E895F9D60B26168
:1050C000C862DF63F9641566326750687069926A76
:1050D000B56BD96CFF6D276F51707B71A772D5735B
:1050E0000575377669779D78D4790C7B447C7E7D15
:1050F000BB7EF97F38817882BA83FF8443868C87B0
:10510000D5881F8A6A8BB88C078E588FA990FD911D
:105110005293A99400965B97B698139A729BD39C6E
:10512000349E979FFCA063A2CBA334A59FA60CA896
:105130007AA9EBAA5CACCEAD43AFB9B030B2AAB39A
:1051400025B5A1B61FB89EB920BBA2BC28BE54BFCE
:105150000000180119011A011B011C011D011E018B
:105160001F012001210122012401260128012A0119
:105170002C012E01300132013401360139013C018C
:105180003F014201450148014B014E0151015401CB
:1051900059015E01630168016D01720177017C01B3
:1051A000810186018B01900195019A019F01A9015E
:1051B000B901C901DA01EB01FD010F02210234023C
:1051C00047025A026E0282029702AC02C102D70263
:1051D000ED0204031B0332034A0362037A039303C1
:1051E000AC03C603E003FA03150430044C0468045E
:1051F0008404A104BE04DB04F90417053605550533
:1052000074059405B405D505F605170639065B0641
:105210007D06A006C306E7060B072F07540779078C
:105220009E07C407EB071108380860088808B00813
:10523000D80801092B0954097F09A909D409FF09D4
:105240002B0A570A830AB00ADD0A0B0B390B670BCE
:10525000960BC50BF50B250C550C850CB60CE80C04
:105260001A0D4C0D7E0DB10DE50D180E4D0E810E73
:10527000B60EEB0E210F570F8D0FC40FFB0F33101F
:105280006B10A310DC1015114E118811C311FD1104
:1052900038127412AF12EC1228136513A213E01324
:1052A0001E145D149C14DB141A155A159B15DC157D
:1052B0001D165E16A016E31625176817AC17F01713
:1052C00034187818BD18031949198F19D5191C1AE3
:1052D000641AAB1AF31A3C1B851BCE1B171C611CEE
:1052E000AC1CF71C421D8D1DD91D261E721EBF1E33
:1052F0000D1F5B1FA91FF71F46209620E5203621B2
:105300008621D72128227A22CC221F237123C5236C
:1053100018246C24C02415256A25C02516266C2661
:10532000C3261A277127C92721287A28D3282C2990
:105330008629E0293B2A952AF12A4C2BA82B052CFB
:10534000622CBF2C1C2D7A2D982DB62DD22DF02D30
:105350000000180119011A011B011C011D011E0189
:105360001F012001210122012401260128012A0117
:105370002C012E01300132013401360139013C018A
:105380003F014201450148014B014E0151015401C9
:1053900059015E01630168016D01720177017C01B1
:1053A000810186018B01900195019A019F01A9015C
:1053B000B301BD01C701D101DB01E501EF01F90135
:1053C00003020D02170228023A024C025E02710229
:1053D00084029702AB02BF02D402E802FD0213036B
:1053E00028033E0355036B0383039A03B203CA03E6
:1053F000E203FB0314042D04470461047B049504B9
:10540000B104CC04E804040520053C055A057705E1
:105410009405B205D105EF050E062E064D066D0664
:105420008D06AE06CF06F00611073307560778073C
:105430009B07BE07E20706082A084F087308990869
:10544000BE08E4080A09310958097F09A609CE09EE
:10545000F7091F0A480A710A9B0AC40AEE0A190BC7
:10546000440B6F0B9A0BC60BF30B1F0C4C0C790CF7
:10547000A60CD40C020D310D600D8F0DBE0DEE0D7E
:105480001E0E4F0E7F0EB00EE20E140F460F780F59
:10549000AB0FDE0F111045107910AE10E21018118D
:1054A0004D118311B911EF1126125D129412CC1215
:1054B00004133C137513AE13E81321145B149614F4
:1054C000D0140B1546158215BE15FB15371674162C
:1054D000B216EF162D176B17AA17E91728186818B8
:1054E000A818E81829196A19AB19ED192F1A711A99
:1054F000B41AF71A3A1B7D1BC11B061C4A1C8F1CD1
:10550000D51C1A1D601DA61DED1D341E7B1EC31E5D
:105510000A1F531F9B1FE41F2D207720C1200B2142
:105520005521A021EB2137228322CF221B23682380
:10553000B523032451249F24EE243C258B25DB2511
:105540002B267B26CB261C276D27BF27112850280A
:105550004C45445F496E697400000000414443318A
:10556000365F4765744368616E6E656C436F6E7637
:10557000657273696F6E56616C75650041444331A5
:10558000365F4765744368616E6E656C436F6E7617
:10559000657273696F6E56616C7565001825000041
:1055A0008E2500007C2600006A270000FC280000F1
:1055B000002A0000042B00008C2F00009A2B000012
:1055C000882500008825000044250000662500008D
:1055D0008825000088250000762600007626000039
:1055E000F225000034260000762600007626000012
:1055F0006427000064270000E02600002227000046
:105600006427000064270000782800007E2700003F
:105610008A270000CC2700000E2800001A2800006E
:10562000FC290000FC29000078290000BA290000AC
:10563000FC290000FC290000002B0000002B0000CA
:105640007C2A0000BE2A0000002B0000002B000076
:10565000962B0000962B0000962B0000962B000046
:10566000962B0000682B0000862F0000862F00007C
:10567000862F0000862F0000862F0000F82B0000E8
:1056800041444331365F476574496E7374616E639C
:105690006500000041444331365F496E6974000083
:1056A00041444331365F47657444656661756C7487
:1056B000436F6E666967000041444331365F53654E
:1056C000744368616E6E656C436F6E666967000057
:1056D00041444331365F4765744368616E6E656C63
:1056E000537461747573466C61677300A63500006E
:1056F000A6350000C4350000C4350000FE350000AA
:10570000083600002E360000123600002E3600004B
:105710001C3600001C3600002636000080841E0067
:1057200000127A00434C4F434B5F4765744F7363DD
:10573000304572436C6B467265710000434C4F43B9
:105740004B5F476574457233326B436C6B467265D1
:1057500071000000434C4F434B5F4765744F7574B5
:10576000436C6B4672657100434C4F434B5F53650E
:10577000744D63676C697465436F6E66696700009A
:105780008021017002780A42FCD07047BFF36F8F0E
:10579000BFF34F8F70470000080010001800200072
:1057A0003000400060008000C00000018001000265
:1057B00000030004000600004C50544D525F476542
:1057C00074496E7374616E63650000004C50544DF3
:1057D000525F496E697400004C50544D525F4765EA
:1057E0007444656661756C74436F6E66696700002A
:1057F000535049305F44726976657249525148612D
:105800006E646C65720000000080034000900340ED
:1058100018003C1019003C1054504D5F4765744906
:105820006E7374616E63650054504D5F496E6974A8
:105830000000000054504D5F476574446566617513
:105840006C74436F6E6669670000000054504D5FD2
:10585000536574757050776D0000000000020103FD
:10586000000100000000000000000100504F5254F1
:105870005F53657450696E436F6E66696700000020
:105880004300000024FEFF1FF8B5C046F8BC08BC6A
:105890009E467047F8B5C046F8BC08BC9E467047A7
:0858A000D0ABFF7F0100000006
:0458A80039040000BF
:0458AC0011040000E3
:1058B00000127A00010101000040000001FF000019
:1058C000FF00FF00FF00FF000000000000000000DC
:1058D000FF000000000000000000000000000000C9
:1058E00000000000000000000000000000000000B8
:1058F00000000000805800000000000000000000D0
:105900000000000000000000000000000000000097
:105910000000000000000000000000000000000087
:105920000000000000000000000000000000000077
:0859300000000000000000006F
:08780000000000000000000080
:047C00000000000080
:04000003000004E90C
:00000001FF
