:10000000000C00200D020000D5000000D700000009
:1000100000000000000000000000000000000000E0
:10002000000000000000000000000000D9000000F7
:100030000000000000000000DB000000DD00000008
:10004000E1000000E9000000F1000000F9000000FC
:100050000101000009010000110100001901000068
:1000600021010000290100003101000039010000D8
:100070004101000049010000510100005901000048
:1000800061010000BD050000710100007901000060
:100090008101000089010000251000009901000085
:1000A000A1010000A9010000B1010000B901000098
:1000B000C1010000C9010000D1010000D901000008
:1000C000F03F000000FCFF1F1000000010FCFF1FAD
:1000D000E8050000FEE7FEE7FEE7FEE7FEE7FEE7D5
:1000E00010B5FFF7FCFF10BD10B5FFF7F8FF10BD0E
:1000F00010B5FFF7F4FF10BD10B5FFF7F0FF10BD0E
:1001000010B5FFF7ECFF10BD10B5FFF7E8FF10BD0D
:1001100010B5FFF7E4FF10BD10B5FFF7E0FF10BD0D
:1001200010B5FFF7DCFF10BD10B5FFF7D8FF10BD0D
:1001300010B501F057FB10BD10B501F05BFB10BD11
:1001400010B5FFF7CCFF10BD10B5FFF7C8FF10BD0D
:1001500010B5FFF7C4FF10BD10B5FFF7C0FF10BD0D
:1001600010B5FFF7BCFF10BD10B5FFF7B8FF10BD0D
:1001700010B5FFF7B4FF10BD10B5FFF7B0FF10BD0D
:1001800010B5FFF7ACFF10BD10B5FFF7A8FF10BD0D
:1001900010B5FFF7A4FF10BD10B5FFF7A0FF10BD0D
:1001A00010B5FFF79CFF10BD10B5FFF798FF10BD0D
:1001B00010B5FFF794FF10BD10B5FFF790FF10BD0D
:1001C00010B5FFF78CFF10BD10B5FFF788FF10BD0D
:1001D00010B5FFF784FF10BD10B5FFF780FF10BD0D
:1001E000030030B5091ACD181C1AA24200D830BD40
:1001F0001C6804332C60F6E710B5030000241A1ABB
:10020000914200D810BD1C600433F8E710B572B6F7
:1002100003F0EAF80B4C0C4B9C4206D30B4B9C4270
:100220000AD362B603F0F2F8FEE7A26861682068BC
:10023000FFF7D6FF0C34EEE761682068FFF7DCFFBC
:100240000834EBE7C0000000CC000000D400000040
:10025000FFFFFFFFFFFFFFFFFFFFFFFFFFFFFFFFAE
:10026000FFFFFFFFFFFFFFFFFFFFFFFFFFFFFFFF9E
:10027000FFFFFFFFFFFFFFFFFFFFFFFFFFFFFFFF8E
:10028000FFFFFFFFFFFFFFFFFFFFFFFFFFFFFFFF7E
:10029000FFFFFFFFFFFFFFFFFFFFFFFFFFFFFFFF6E
:1002A000FFFFFFFFFFFFFFFFFFFFFFFFFFFFFFFF5E
:1002B000FFFFFFFFFFFFFFFFFFFFFFFFFFFFFFFF4E
:1002C000FFFFFFFFFFFFFFFFFFFFFFFFFFFFFFFF3E
:1002D000FFFFFFFFFFFFFFFFFFFFFFFFFFFFFFFF2E
:1002E000FFFFFFFFFFFFFFFFFFFFFFFFFFFFFFFF1E
:1002F000FFFFFFFFFFFFFFFFFFFFFFFFFFFFFFFF0E
:10030000FFFFFFFFFFFFFFFFFFFFFFFFFFFFFFFFFD
:10031000FFFFFFFFFFFFFFFFFFFFFFFFFFFFFFFFED
:10032000FFFFFFFFFFFFFFFFFFFFFFFFFFFFFFFFDD
:10033000FFFFFFFFFFFFFFFFFFFFFFFFFFFFFFFFCD
:10034000FFFFFFFFFFFFFFFFFFFFFFFFFFFFFFFFBD
:10035000FFFFFFFFFFFFFFFFFFFFFFFFFFFFFFFFAD
:10036000FFFFFFFFFFFFFFFFFFFFFFFFFFFFFFFF9D
:10037000FFFFFFFFFFFFFFFFFFFFFFFFFFFFFFFF8D
:10038000FFFFFFFFFFFFFFFFFFFFFFFFFFFFFFFF7D
:10039000FFFFFFFFFFFFFFFFFFFFFFFFFFFFFFFF6D
:1003A000FFFFFFFFFFFFFFFFFFFFFFFFFFFFFFFF5D
:1003B000FFFFFFFFFFFFFFFFFFFFFFFFFFFFFFFF4D
:1003C000FFFFFFFFFFFFFFFFFFFFFFFFFFFFFFFF3D
:1003D000FFFFFFFFFFFFFFFFFFFFFFFFFFFFFFFF2D
:1003E000FFFFFFFFFFFFFFFFFFFFFFFFFFFFFFFF1D
:1003F000FFFFFFFFFFFFFFFFFFFFFFFFFFFFFFFF0D
:10040000FFFFFFFFFFFFFFFFFFFFFFFFFEFBFFFF01
:1004100070B5012300250400428385754575C375B9
:1004200001830575511A0B4803F094FA0A4B1860C2
:10043000200000F0BDFE6571084D2100280000F08D
:100440006FFE40222B6A280093432B62032100F0A9
:10045000BDFE70BDF0E8260014FCFF1F00B0034095
:10046000427D044B002A02D00022427501321A70EC
:100470001878704744FCFF1F827D044B002A02D08D
:100480000022827501321A701878704745FCFF1FF0
:10049000C07D704710B50D4B018B1B68428B0C4C17
:1004A00099420BD893420BD8581A0A4B0A491B6839
:1004B000584303F052FA2070207810BD934202D3C3
:1004C000FF232370F8E70023FBE7C04610FCFF1F63
:1004D00046FCFF1F14FCFF1F102700000F4A1049A5
:1004E000136810B59C00605008684C6800198C684F
:1004F0000019CC6800190C6900194C6900198C6945
:10050000C9690019401807490860062B03D8013350
:10051000C008136010BD0023FAE7C04640FCFF1F6F
:100520001CFCFF1F3CFCFF1F0523020070B50C32B2
:10053000C36004000021174800F0B4FE8026154D6A
:100540000021280000F0BFFE3042F8D02869124D8B
:100550002860FFF7C3FF2860227D002A0BD10F49D6
:100560000B68642809D801330B60E2751E2B02D991
:1005700001236275A375286870BD013B01201D2B06
:1005800005D860750023A275E0750B60F3E762750E
:10059000F8E7C04600B0034010FCFF1F18FCFF1F27
:1005A000002382B001930193019B834201D302B0E7
:1005B0007047C046019B0133F5E7FFFF0222014B64
:1005C0001A65704700800340014B1878C0B270472D
:1005D00058FCFF1F10B50822040080210020800075
:1005E00083B2214207D00133013AD2B298B249080E
:1005F000002AF4D110BD0233F6E7FFFF70B51600F4
:100600000122124B0D001A700400FFF7E3FF104B9C
:1006100018802800FFF7DEFF0E4B18803000FFF730
:10062000D9FF0D4B1880A8192018C0B2FFF7D2FFD0
:100630000A4B102118800023094A1360094A1180CF
:10064000094A1370094A137070BDC04658FCFF1F59
:1006500048FCFF1F4CFCFF1F52FCFF1F4AFCFF1F02
:1006600054FCFF1F02FCFF1F47FCFF1F4EFCFF1F37
:100670000123F7B5002100936B466A461F481971A4
:100680005971802400F00EFE1C4E0021300000F055
:100690001AFE2042F8D0FA243569194FADB2A400F1
:1006A000FA3DAF4202D2174B1C80F7BDFA231B0163
:1006B0009C42F8D06434A4B222000021124800F019
:1006C000B7FE1248FFF76CFF0123002100936B4631
:1006D0006A460A4819715971802700F0E3FD00212C
:1006E000064800F0F0FD3842F9D0002237691100C9
:1006F0000548BFB200F09CFED3E7C04600B00340FF
:10070000FF0F000000FCFF1F00F003401027000057
:10071000F0B50024384D8BB002A928000C7001F010
:1007200033F8F0230222FC355B006B60EB68334E3C
:100730001343EB608023324FDB03336003A938009F
:100740000C704C7000F05AFE8021BA1CD37F380028
:100750000B43D377210000F073FE21002200380004
:1007600000F066FE0123022204AF05A83B707A70F8
:10077000BC7001F091F805A9224801F043F8224B22
:1007800001220193214B390000931E48230001F000
:100790008DF802211B4801F0F7F8C4218900735835
:1007A0001B4A01271A408023DB0113437350802327
:1007B0009B02336007AE300000F0FAFC7470B47036
:1007C0007471F470B471134C31002000377200F072
:1007D000A7FC4022236A032193432362200000F0F8
:1007E000F5FC200000F008FDFFF742FFEB683B43FB
:1007F000EB600BB0F0BDC0460070034000E100E0CC
:1008000000F0034000800340006CDC02308C1100DB
:10081000FF00FFFF00B0034010B50B4C0221200089
:1008200001F0CBF8002301211A00200001F098F814
:100830000221200001F0A8F8182322689A432260C0
:1008400022681A42FCD110BD008003400122F8B595
:10085000A54BA64C1A612368A54D9B1823602B78E5
:10086000002B3DD014209621A24F89003B8826689A
:100870005843A14BC01803F070F8FA2370439B0053
:10088000C0189E4B80B218801A88002192B29C48F2
:1008900000F0CEFD2368052B15D19A4E02213000C1
:1008A00001F08BF83C2300220121300001F058F8C0
:1008B0000221300001F068F81822336893431A00CF
:1008C0000823134333608D4B1A883B889A4207D321
:1008D0003A88002192B28A4800F0AAFD00232B70CA
:1008E000894E307805283CD803F0ACF806003C006F
:1008F0006C009C00CD001C012368632B31D9834F11
:10090000388801380F282AD803F08CF82419290DCB
:100910002929290D292929292929290801232B7069
:100920003B885B083AE0734B744A1B8800219BB2FA
:1009300013801288724892B200F07AFDF0E700212D
:100940006E4B6F4819801A8892B200F071FDFFF764
:1009500063FFE5E7012320222B703A8033700023E8
:100960002360F8BD2368632BFBD9684F684B398837
:100970001B881940614B13D0002119801A886048E8
:1009800092B200F055FDFFF747FF3B88012B17D1CE
:10099000013333703378022BC2D11E333B80DEE744
:1009A0001A88002A02D101232B70EEE7514A5448DD
:1009B000128892B21A801A8892B200F039FDE4E7E8
:1009C0000123E6E72368632BCBD9504F514B39887D
:1009D0001B881940494B13D0002119801A884848B8
:1009E00092B200F025FDFFF717FF3B88012B17D1CE
:1009F000023333703378032B00D091E7464BCDE7B9
:100A00001A88002A02D101232B70EEE7394A3C48AC
:100A1000128892B21A801A8892B200F009FDE4E7B7
:100A20000223E6E72368632B00D89AE7374F3B4B56
:100A300039881B881940314B13D0002119801A883E
:100A40002F4892B200F0F4FCFFF7E6FE3B88012B42
:100A500017D1033333703378042B00D060E7023BA7
:100A60009CE71A88002A02D101232B70EEE7214A65
:100A70002348128892B21A801A8892B200F0D8FCE9
:100A8000E4E70323E6E72368632B00D869E71F4FF9
:100A9000234B39881B881940184B12D0002119802C
:100AA0001A88174892B200F0C3FCFFF7B5FE3B88E6
:100AB000002B16D1053333703378052B00D02FE788
:100AC0009CE71A88002A02D101232B70EFE7094A1C
:100AD0000B48128892B21A801A8892B200F0A8FCD1
:100AE000E5E70423E7E7C046FC70034054FCFF1F22
:100AF0004EFCFF1F00FCFF1FE0B1FFFF50FCFF1F7B
:100B000000F003400080034047FCFF1F02FCFF1F72
:100B100048FCFF1F4CFCFF1F0080FFFF52FCFF1F23
:100B20004AFCFF1F0027094B39001F801A8808481C
:100B300092B200F07DFCFFF76FFE1022054B37707C
:100B40001A80054B2F701F7027600AE750FCFF1FAB
:100B500000F0034002FCFF1F58FCFF1F0022044B63
:100B60001A601A68824200D37047C046F9E7C0464F
:100B700098FCFF1FF8B562B632241C4E013C3000D1
:100B8000FFF7D2FC1A4F38600A20FFF7E7FF002C6E
:100B9000F3D1184C2368002B05D03000FFF7C4FCBC
:100BA0000023386023603000FFF774FC124C134DB3
:100BB000207022782B789A42EBD0114A2378127851
:100BC0009A42E6D022780121D2B20020FFF716FD2A
:100BD000FFF7FAFC0028FBD12B78094A0A30137082
:100BE0002378DBB22B70FFF7B9FFD2E75CFCFF1F65
:100BF00094FCFF1F78FCFF1F04FCFF1F0AFCFF1F73
:100C000008FCFF1FF8B50124524B1C7062B6524D10
:100C10002B68002B06D05148FFF786FC504B18601C
:100C200000232B604F4E30780328F0D802F0FAFEF4
:100C300002244E73494D2800FFF712FC002814D0FF
:100C4000494F21003A780020D2B2FFF7D7FCFFF7D6
:100C5000BBFC0028FBD1022333703B78434ADBB254
:100C600013701378424ADBB213702800FFF704FCBC
:100C70000028CCD03470CAE73C4D2B78FC2B21D90E
:100C80002B78FF232B703A4F324B2A781C703B781D
:100C90009A420CD000212A780800D2B2FFF7AEFCAD
:100CA000FFF792FC0028FBD10A30FFF757FF2B78A3
:100CB0002A48DBB23B70FFF7EBFB02230028A6D0EB
:100CC0003370A4E72B780333DBB2DBE7234D280036
:100CD000FFF7C6FB002813D0002221001000FFF709
:100CE0008DFCFFF771FC0028FBD1204B1E491A78C0
:100CF0003070D2B20A7018701B781D4ADBB21370C4
:100D00002800FFF7B9FB002881D0124B1B78002B7D
:100D1000B0D00323D4E7154D2B78002B15D02B78BA
:100D2000032B12D82C7000200A4B114F18702A7810
:100D30003B789A42BBD02A780100D2B2FFF75EFC22
:100D4000FFF742FC0028FBD1AEE72B78033BDBB278
:100D50002B70E8E78DFCFF1F78FCFF1F5CFCFF1F7A
:100D600094FCFF1F07FCFF1F06FCFF1F05FCFF1F75
:100D700009FCFF1F10B5002401008305A34209D11F
:100D800072B68022064BD200064800F04DFCA0420D
:100D900002D062B6200010BD62B60124FAE7C04658
:100DA0006B66656BA4FCFF1FF8B504000D0008001E
:100DB0000023134A4178877809023F04C91907784C
:100DC0009E08C919C77804333F06B600C9199BB2FB
:100DD000B1500430A82BEDD172B60A48210000F0C2
:100DE0006BFC002802D062B6002008E062B6225CEC
:100DF0002B5C9A42F8D10130A828F8D1A738F8BD69
:100E0000E0FCFF1FA4FCFF1F13B50D4C23785A1CF8
:100E10002270002B00D172B604220A49684602F003
:100E2000FBFA6B4618885A882378002B05D0013BC3
:100E3000DBB22370002B00D162B61204104316BD42
:100E40007CFCFF1FDAFCFF1FF0B50024364B8DB091
:100E50000493364B08AA04A90093200001230894A8
:100E600002F0C0F9324D286000F05EFF286800F003
:100E70008FFF304BDC6162B602942D4D2E4B04A9DE
:100E800028681E7800F0A0FF2C4B002849D00122D2
:100E900004A928681A7001F0B9FC286800F078FFEE
:100EA000286801F0BDFFFFF7AFFF244B08901B78C7
:100EB00084B2002B07D0204B02941B78002B02D069
:100EC000002E00D103941E4F3B68092B11D9FFF768
:100ED0007BFB061E0DD102F07DFA002809D0144BD1
:100EE000186801F008FB012102003000FFF786FBC3
:100EF0003E60114E3378002BBFD0039BE31A3B2B8F
:100F000006DC039BA34203D8029BE41A042CB4DD45
:100F1000286801F0BDF800232868337000F038FF1E
:100F2000ABE71870BCE7C0468C3B0000007C0000BB
:100F300088FCFF1FFC70034082FFFF1FD8FCFF1FCF
:100F400098FCFF1FF7B500236A46137053702C4AB4
:100F500001AD2B706B70137072B62A4C00F080FDDF
:100F600000F04EFD20006A46042100F0F9FB20004D
:100F70002A00052100F0F4FB022122692369920670
:100F8000DB080B407821204CD20F1343FF311F4A5E
:100F90001F482360FFF73CFA08231E4E1E4F3360A4
:100FA000F1221E4D12012B68934211D9FFF7B0FBBD
:100FB0001B4D34220021280002F032FA280000F0F4
:100FC000D5FA2068032819D802F02CFD1214161146
:100FD00032000021104800F065F900210E4800F0B1
:100FE00072F980231842F8D03B692B60D8E7FEE7FE
:100FF000FFF72AFFFFF7BEFDFFF704FE0020FEBD4E
:101000007CFCFF1FC0F00F409CFCFF1FAC0D0000DC
:101010005CFCFF1F80FCFF1F00B00340A0FCFF1F13
:10102000A4FCFF1F0120294970B50B69034220D0A1
:10103000274B284A1B781478DBB2002B1AD0002CDF
:1010400003D1CB69002B00D01070FFF7FFFBFA2211
:10105000214D92002B8814339BB293420FD02B80EA
:101060002888642102F079FC89B2002901D100F0BE
:10107000C7FE70BD0861002CE9D01370E7E70023BC
:10108000164C2B806388164E01339BB26380336805
:1010900001333360FFF798FA002803D1114A13682F
:1010A000013313603368092B04D900230122336014
:1010B0000D4B1A60FA2362889B009A42D0D100231C
:1010C0006380238801339BB22380C9E7FC7003400F
:1010D00058FCFF1F8CFCFF1F80FFFF1FDAFCFF1F67
:1010E00090FCFF1F98FCFF1F78FCFF1F13B50B88B7
:1010F000048849884088E41A431A9BB2884204D283
:10110000FA2189005B189BB2013CA0B2844204D052
:1011100001211B041843117016BD0021F9E7FFFFE0
:101120008023224A30B514681B05234313600C2228
:1011300003240B799B0013404A7822404C791A43D0
:10114000042C01D010231A436025CB785B012B407F
:101150001343CA79002A01D0802213430F228360EF
:10116000C3689343042C02D00C3A144023438A7979
:10117000002A01D0042213438A78002A01D00822D1
:1011800013430324C360026A0B78A2432340134332
:1011900003620A7A0823002A03D0426A1343436297
:1011A00030BD426A9A434262FAE7C0463C8004403E
:1011B00003210122002382700271521803704170D2
:1011C000C17042718371C371037270470722436A11
:1011D0009343042904D0043A1140013211430B43D4
:1011E00043627047036A0200802018404023526A1D
:1011F0001A4200D018437047F7B54022036A040032
:101200000026134203D0036A013693430362C023CE
:1012100080274025626A1343636223683B423DD1C5
:101220002000FFF7DFFF2842F7D001252369019353
:10123000002E03D04023226A134323622000FFF7CD
:10124000D1FF43062CD4002D2AD1E26CA36C676C2D
:10125000D318266CDB19E06B9B19A16B1B185B186C
:1012600080210193019B09025B080B430193019BC1
:10127000E362E26EA36E606ED3188446276E634409
:10128000E66DDB19A06D9B191B180193019B5B0890
:1012900019430191019B23632800FEBD0025C5E78A
:1012A0000125F9E71F2310B5146823405479002C59
:1012B00001D0202423431279002A01D04022134375
:1012C00089000B5010BD802389000858184000D0B9
:1012D0001800704730B580250C4A41680C4B0D4C06
:1012E000D15003786D021B0411592B400A4D29403F
:1012F0000B4313514378C0209B0400031168034043
:10130000064801400B43136030BDC04600700440E6
:101310004410000004100000FFFFFEFFFFFFF3FF7A
:1013200070B51B4B9C799E791D7A24072D07A40F5D
:10133000F6B26D0F954215D0F5070BD5012C02D0F2
:101340001D78AD0706D501255E78AE435E709E79A7
:101350002E42FCD10E261D7A520032402136B54372
:101360002A431A7201255A78AA430D402A430325BD
:101370005A701A78AA4302431A70012C01D08207CE
:1013800004D501209A7902408A42FBD1002070BD29
:1013900000400640F8B5164B0027DC789D79E4B292
:1013A000ED0604D42025DE7801377540DD703B263C
:1013B0001D782E40042535431D7010259E792E4240
:1013C000FCD0002F00D0DC7060254901C00129400D
:1013D00001431F2004402143C9B2D9701C389979B8
:1013E00089080142FBD1002A00D090470020F8BDB7
:1013F0000040064010B5FFF7CDFF10BD80230B4A1B
:1014000010B514681B062343136048220230C37FC3
:1014100093430A78012A01D13F3213434A78002AC4
:1014200001D008221343C37710BDC0463C8004405E
:10143000D3B2490012054018120F03704270704772
:1014400010220430C37F0901934311401943C1772F
:1014500070470423002807D0C2696933002A03D0EB
:101460001268022A00D1002318007047702370B55B
:101470000C4D2B70FFF7EDFF041E0ED10A4B280018
:101480001B6898472B78DBB29A0605D4DA0606D497
:10149000DB0702D5692400E06724200070BD6824C2
:1014A000FBE7C0460000024088FFFF1F70B5050043
:1014B0000E0014000420002D15D020220021200051
:1014C00001F0AEFF2B686868F61AEB68266063606F
:1014D000297A02F042FA0423A0600020E36023612D
:1014E0006361A361E36170BD30B504000420002C8A
:1014F00010D0581E0B00134303406520002B09D168
:1015000025680130A94205D389186268AD18A9423F
:1015100000D8180030BDFFFF70B5042300281AD092
:10152000C5690C226C680D49200001F075FF0C4B59
:1015300001341C60AC681C220A49200001F06CFFD9
:10154000094B01341C6000231A0019001800A04741
:1015500002232B600023180070BDC046EA3A000049
:1015600088FFFF1FCE3A000084FFFF1F70B5040004
:101570000420002C27D0164A164BD35883401B0F4B
:101580000F2B21D0144A5B009B5A9B0263600123FE
:10159000237280230025DB002560E3606561A5617F
:1015A00025612000FFF755FFA84209D00B4B0C4ADC
:1015B000E3615A600B4A20001D609A60FFF7ACFFA0
:1015C00000202062606270BD80231B02DEE7C046FF
:1015D000007004404C100000B03A0000CCFFFF1F28
:1015E000D8FFFF1F8CFFFF1F802110B5034B0A227D
:1015F0001C68C90001230248A04710BD84FFFF1FDB
:101600000C3000F070B504000D00FFF722FF002839
:1016100004D1012D02D12000FFF7E6FF70BD10B507
:101620000121FFF7EFFF10BDF0B505000F0014001A
:101630008BB002AA1E00FFF739FF069B220039007B
:101640002800FFF751FF00281CD1194B6B309E4238
:1016500018D1029E039F701E04193900200002F069
:101660007CF9002902D001307843441E0021280073
:10167000FFF7C8FFA64207D9002301932800FFF710
:10168000CEFF01980BB0F0BD9022330212051B0A69
:101690001343084A28001360FFF7E8FE2B69019006
:1016A000002B00D09847019B002BE7D1F619E1E70A
:1016B0006B66656B04000240F0B505008BB00F004F
:1016C00014001E000420002A17D002AA2800FFF7E9
:1016D000EDFE059B320039002800FFF705FF0028CA
:1016E0000BD101002800029FFFF78CFF002E06D1CE
:1016F00034002800FFF793FF20000BB0F0BD231D3E
:1017000001932268134B1A60059B042B15D1C0224C
:101710003B021B0AD20413430F4A13602800FFF751
:10172000A5FE2B690400002B00D09847002CE0D1C7
:10173000059B019CFF18F61AD8E7082BEED1230071
:10174000083301936268054B1A603B021B0AE022D2
:10175000E0E7C04608000240040002400C000240DE
:1017600001238B401178002903D142699A434261D9
:1017700070475278002A04D1836042691343436161
:10178000F6E74360F9E7FFFF80230B4A10B51468C2
:101790001B04234313600222036893430A78036007
:1017A0000123002A03D002689A43026010BD026838
:1017B00013430360FAE7C0463C800440064AC378FE
:1017C000890010B58958DB0603D5044B1B68984780
:1017D00010BD034BFAE7C04618000020200000208F
:1017E0002400002010B500210148FFF7E7FF10BDDD
:1017F0000060074010B501210148FFF7DFFF10BD71
:10180000007007401F4A30B50023904208D01E4A9E
:101810000133904204D01D4BC3185A1E934102332A
:101820001B4A9B009C581B4B220CD2180123A4B2CC
:10183000A3401568F0242B43136007220B7824057E
:1018400013400360CB784A785B01520213434A7914
:10185000083092041343CA79120413438A7952045C
:1018600013438A78120622401343C3670A79C023C0
:10187000002A03D0C26F1343C36730BDC26F9A43BF
:10188000C267FAE700800340009003400060FCBF9D
:10189000F83A000000700440002303704370C370E6
:1018A000037143718371C37183707047F7B50D0085
:1018B000072117000268060009980A40D040002B53
:1018C00003D0012B1AD0012017E020223368089999
:1018D0009343336002F041F8441E204B9C42F2D8FF
:1018E00003235F43EB193C270093631C9BB2B46056
:1018F0000193009B9D420BD10020FEBD2023326846
:1019000013433360089B590002F027F80400E4E712
:10191000A8786428D7D80021884207D06431604372
:1019200002F01BF80199A04200D281B22B78DB00B3
:10193000F318DA68BA43DA60DA683A42FCD16A78B6
:10194000D868920094462022104362460243DA602F
:10195000DA683A42FCD019610335CAE7FFFF00009C
:1019600070B5050080680C0086B2300064215843D1
:1019700001F0F0FF80B2864201D80136B0B20134E6
:10198000E4002C19A06070BD70B5CAB2CB0503D5B8
:10199000402301680B430360002301254026002AF1
:1019A00000D170BD2A4204D0D9004118CC6834431C
:1019B000CC600133DBB25208F1E770B5CAB2CB0597
:1019C00003D5402103688B43036000230125402693
:1019D000002A00D170BD2A4204D0D9004118CC6839
:1019E000B443CC600133DBB25208F1E7034B013B57
:1019F000002B00D17047C046F9E7C04631750000A2
:101A0000012110B50E4B0F4C0F4A0800E2500F4A4F
:101A1000FFF7F0FC002101220800FFF781FC0C48D1
:101A2000FFF758FCB7220B4B0B4992041A6063581E
:101A30000A4A1A4080235B041343635010BDC0461A
:101A4000441000000070044000000310ED19000075
:101A5000043B00000CFCFF1F04100000FFFFFFFC14
:101A60008022F0B580264D4B92001968F6000A439B
:101A70001A601A68E02432431A6080221968120141
:101A80000A431A608022196852010A431A608022B0
:101A9000196892010A431A60414A424B1168E400F6
:101AA00019402143116080215068490018400843C3
:101AB000506055683C480540022005435560D56C90
:101AC0001D400D43D564D76C384D2F400743D76474
:101AD00097681F400F439760176D1F402743176596
:101AE000D7681F403C43D4601469314F1C400C43FD
:101AF00014611469274010243C4314612D4A146872
:101B00001C40146054681C4054602B4A54681C40AC
:101B10000C43546094681C4026439660D4681C4073
:101B20000C43D46014691C400C431461C0245669F2
:101B3000E4001E403443546194691C409461D469AC
:101B40001C400C43D4611D4A14691C400C431461B1
:101B500014692C400443146154691C400C435461C3
:101B600054692540284350619069154C184008433A
:101B7000906190690440442020439061D0691840EE
:101B80000143D1610F4A116C19401164516C194025
:101B90005164916F0B409367F0BDC046388004409C
:101BA00000900440FFF8FFFFFCFFFFFEFDFFFFFE7B
:101BB000EFFFFFFE00A0044000B0044000C004405E
:101BC000BBFFFFFE00D0044030B50400EC34002A17
:101BD00012D01300A5331B78A43200211B2B02D88E
:101BE000002B05D0012115789D4205D8002903D08E
:101BF00013882380002030BD012323800023073079
:101C0000C377F7E7802310B55B00138049782E3B3C
:101C1000DF2907D90B002033034CDBB29B001B5993
:101C200098470300180010BD0C3B000000207047CF
:101C3000C21DE7300378012B03D8D3770122024B72
:101C40001A7000207047C04682FFFF1F0300E73371
:101C50001B781B2B10D8002B07D00200EC32117818
:101C60000A1C994200D21A1CD3B20122ED30037033
:101C7000024B00201A7070471B23F6E782FFFF1FFC
:101C800009230020138070470730C37F591E8B4102
:101C9000002013807047012300201380704700202C
:101CA000108070470223002013807047ED300378C6
:101CB000002013807047EC300378002013807047B9
:101CC000802310B55B0013804978202904D0902927
:101CD00009D100F0CBFB10BD03000122EC331A80C8
:101CE00000230730C377D220F5E70020704700209B
:101CF0007047002070470020704700207047002088
:101D00007047002070470020704700207047002077
:101D10007047002070470020704701230020138087
:101D2000704700201080704740230A4A5360516971
:101D30000B43536180230849084A1B048858034316
:101D40008B5001220020064B1A60FC33D861054BF2
:101D500018707047C0F00F40007004403C10000045
:101D600000700340430000200020014B18707047B2
:101D7000430000200A78034B00201A700822024B0F
:101D80001A70704730000020430000200020704788
:101D9000094B1A78072A0DD8012200211A70074B27
:101DA000D961074959611A620232DA618022054B12
:101DB000D2031A600020704743000020FC700340EB
:101DC000C309000000E100E0054B00201B78072B51
:101DD00005D1044B01301A780A705B784B7070475C
:101DE0004300002030000020034B04481B88984229
:101DF000804140427047C0464600002087130000E3
:101E00001022954BF0B51B699449134022D00888E5
:101E1000934B0022984203D00B8801339BB20B8076
:101E20000121904B904C196223785B18DBB2237030
:101E30008E4B187801380A2820D801F003FE0E00D6
:101E4000140022002D004A0087001F00B800C400C3
:101E5000DA00FF000B800122E2E702211970002165
:101E6000834B19700AE00121002AFAD080480178DA
:101E7000142901D11139F4E7013101707D4B1A7039
:101E8000F0BD002A01D00122F8E701207A490A704A
:101E9000774908700421E4E7764C75482478017886
:101EA00094420AD10131C9B201700529E6D9012154
:101EB000197072490B68013306E00124022905D824
:101EC0006E491C700B681B190B60D7E70470052165
:101ED000C7E7684966480C780178944213D101310C
:101EE000C9B201700A29C9D9012AE0D162490C7826
:101EF000102CDCD101340C7061490A740621197070
:101F000005230370BAE7CD1E022D14D85A4E35783A
:101F1000691CC9B231705A4E7455102903D8042176
:101F200019700123EDE7012AC1D11129BFD10B3965
:101F300019700270A2E706390429B8D84E4D2978E5
:101F40004E1C2E704E4D6C540521E9E7002AAED090
:101F5000474801780131C9B201700E2993D9002197
:101F600080254848464F017002314E1EBE5D002E4E
:101F700002D006782E43067001316D080A29F4D18B
:101F80000025457080354E1EBE5D002E02D046787D
:101F90002E43467001316D081229F4D13A48016888
:101FA00001310160072119700023237066E740208A
:101FB000364948602178332900D85FE700202C4952
:101FC000087009214DE72A48304C0178402501313D
:101FD000C9B20170042901D8A5604FE765600829DE
:101FE00000D04BE7002101700720234908700A2127
:101FF00037E70127234A204C107825783A002841FA
:102000001B4EC0B2317882430131C9B2317004290C
:1020100001D902003A401D484027002A0AD04760F3
:10202000082900D02AE7002131708D4204D0013DFB
:10203000257023E78760F3E70B2112E7402013495F
:1020400048600B4801780131C9B20170102900D0F5
:1020500014E70F3905E7C04600F00F4046000020A6
:10206000FFFF0000FC7003404A00002043000020F6
:1020700049000020450000204400002028000020E6
:1020800032000020300000202C000020C0F00F4063
:1020900070B5050048350400A621280001F08FF82E
:1020A000EE342070074C2000FEF764FE002801D1BA
:1020B000CF2070BD29002000FEF776FE0028F7D063
:1020C0000020F6E7007C00000E4B0F4A84B09A58BF
:1020D00000920E4A9A580192832252019B580C4A50
:1020E00002930C4B10789B68039300236946C95CEC
:1020F00001334018C0B2102BF8D10130C0B21070BB
:1021000004B0704700700440581000005C100000DC
:102110004800002010E000E0D12070470300EA33BF
:102120001B88E7301B0A0370002070470300012260
:10213000E7331B7849300370014B00201A70704759
:1021400082FFFF1F03000122E7331B784830037032
:10215000014B00201A70704782FFFF1F0300E73316
:102160001A78131C0F2A00D90F2301224D30037057
:10217000014B00201A70704782FFFF1F0300E733F6
:102180001A780123002A04D0131C0F2A00D90F2328
:10219000DBB201224C300370014B00201A707047F3
:1021A00082FFFF1F01224118E7300378CB74024BF6
:1021B00000201A707047C04682FFFF1FFF230122D4
:1021C0004018C370014B00201A70704782FFFF1F38
:1021D0000A00603A0123072A09DC93405130027853
:1021E000134301220370044B00201A7070476839B2
:1021F0008B405230F3E7C04682FFFF1F0A00703A5F
:102200000123072A09DC9340513002789A43027077
:102210000122044B00201A70704778398B405230ED
:10222000F3E7C04682FFFF1F0300E7331B78FF2B55
:1022300006D07E22190091435332012906D15B0852
:10224000012263300370024B1A70002210007047A5
:1022500082FFFF1F012343720020704740185D3842
:1022600003780020138070479139030030B50800CF
:10227000332900D96DE001F0D5FB456C1A236C269B
:102280002C2E312C47494B6C6C4D51535557596C82
:102290006C6C6C6C6C6C6C6C6C6C6C6C6C6C6C6C7E
:1022A0006C6C6C6C6C6C6C6C6C626466686AEA3347
:1022B0001988090A4B425941FF310020118030BD75
:1022C0000133D97FF6E763331978FF394B1E994103
:1022D000F2E70121F1E7E7331978EEE71C008021EE
:1022E00000203834483349002568002D08D02D7867
:1022F0007F2D02D00130A9B2C0B204349C42F3D188
:102300000128DAD0FF21D8E7997FD3E7E833E3E764
:10231000E933E1E7EA331988090ACEE74B33DBE713
:102320004A33D9E74833D7E74933D5E719004D3168
:1023300009784C331B7809011943C9B2BDE7513301
:10234000CAE75233C8E74E33C6E74F33C4E75033CA
:10235000C2E780214900B0E70300F0B587B0E83359
:1023600003921F78D123012F57D8D03B00249C46DD
:10237000BA016432821880216300490005AD5953C7
:102380000100E7310978012911D0002905D002297F
:102390002ED03F2903D8565C00E03F265E53002C28
:1023A0002BD103000131E73319706446E3E70026BF
:1023B0005E53B74219D1013E5E5305AD5D5B019599
:1023C000D51C00953D350295009D019E2D78761B0C
:1023D000B5B20195009D01350095009E029DAE426B
:1023E000F2D16E4605ADB688D8E796787642E3E737
:1023F0006646002FD2D09678D0E7012CD5D1802127
:1024000005AB1A8849008A4201D0039C22805A8871
:1024100000238A4201D0E9300270180007B0F0BDF5
:102420000122831C70B5DA770400FEF7EDFC6084AE
:10243000000CA084002070BD030070B5EA331B8837
:10244000040015001B0AFE2B0CD11B220649483044
:1024500001F028F8002805D1ED342378002B01D1B4
:10246000FF332B80002070BDC43B00000300F7B594
:10247000EA331C880500240A631E9C41431CDB7F51
:102480001600A400002B01D008231C432B8E002B28
:1024900001D010231C436B469F1D80233A005B0034
:1024A000952128003B80FFF7C7FF3B88FF2B01D118
:1024B000DF3B1C432B0063331B78FF2B01D1BF3B59
:1024C0001C43AB7F002B01D080231C4334800020B1
:1024D000FEBD00239A008218926B8A4204D0002A23
:1024E00004D10E339B001950002003E00133042B6C
:1024F000F0D1D0207047EA300088000A7047F8B564
:102500000600070005000C00383648373368002BFA
:1025100005D0DB69002B09D10436BE42F6D1FF2C71
:1025200009D02102280000F049FF04E02100280022
:102530009847D228F0D0F8BDF8B505000700040090
:102540000E00383548372B68002B05D0DB69002B8F
:102550000AD10435BD42F6D1330AFF2B09D0310030
:10256000200000F02BFF04E0002120009847D22833
:10257000EFD0F8BD70B505000600040038354836C8
:102580002B68002B07D0DB6A002B01D02000984776
:102590000435B542F4D1E18E2000FFF7CDFF0023D2
:1025A000238670BDF7B51D000300EA331B881202B5
:1025B00043860B02C28604000E0083860586042231
:1025C0002C30089900F028FF002D03D12000FFF7E0
:1025D000D1FFF7BDFEF718FC230025000027483384
:1025E000A062383501932B68002B0BD05B6A002B5F
:1025F00004D020009847002800D00127019B043513
:102600009D42F0D1002FE4D1FF2EE2D1DEE7FFFFA3
:102610000300F0B585B04D3303921A78294B0C00B6
:1026200091005E18CB5A0500002B06D17388002B51
:1026300003D1811CC97F00292DD00123FF2C2AD072
:102640002B002900EA334B311B8808781B0A011C38
:10265000A04200D9211C28004A300078CFB2041CC7
:10266000B84200D20C1CE4B2181BC0B2A34201D283
:10267000E01AC0B2012300280DD09A40124BD35A61
:10268000AA1CD27F002A0ED0104BFD21584301F026
:1026900064F90F4E83B20096039A21002800FFF7D9
:1026A00081FF05B0F0BD5843FD2101F056F9094AFC
:1026B0000300904200D913009BB20028EBD1012304
:1026C000E9E7C046A03F0000803F00006A310000FB
:1026D000E03F0000FFFF000070B50023040006008B
:1026E00005000386383448362368002B07D01B6B5F
:1026F000002B01D0280098470434B442F4D170BDB7
:1027000070B50D0004000023421C6519D3774335D2
:102710008377FFF7E1FF2978FF2911D023004B339E
:102720001A78131C8A4200D90B1CD9B2002907D091
:1027300023004A331A78131C8A4200D20B1CD9B2E8
:1027400020000A00FFF764FF002070BDF7B50022EB
:102750000500431CDA77FFF7BFFF2B00EA331F8821
:10276000A03B1C783F0ABC4219D202331B780D4AA9
:102770005B009E5A3221300001F0EFF880B2381A27
:102780003F1A7B425F41C01B844200DA0400064BC3
:10279000E1B200930A0033002800FFF703FF002096
:1027A000FEBDC046803F0000E43F0000002273B53C
:1027B0000500431CDA77FFF78FFF2B00EA331C88F4
:1027C000240A1CD09E3B1B780E4A5B009E5A322185
:1027D000300001F0C2F880B20019241A63425C4153
:1027E0002B004B3319780019814200DD0100064BA4
:1027F000C9B200930A0033002800FFF7D3FE00207F
:1028000076BDC046803F0000E43F0000F0B50F00F9
:1028100089B00400FEF7F8FA3B78049000931E2379
:10282000009A9A437B78A12A02D0C12A00D09CE06A
:10283000002601250099E27A2273A27AA172E2723F
:10284000A27BE273627B63732369A2736361049B5F
:1028500023613B78812B03D0C72B01D00023637207
:10286000A31CDA7F002A1CD01F2905D8092903D010
:102870002A00324300D1DA77210003AA223104A8CA
:10288000FEF734FC059080B2002807D105AB5B88C9
:10289000C72B03D802AB1B79002B02D00022A31C4C
:1028A000DA77002E00D19DE0E37AC12B00D092E0D0
:1028B000A07B02AB7A783978033300F063FD237E86
:1028C000002B00D195E0210003AA143104A8FEF7E3
:1028D0000DFC059080B2002807D105AB5B88632B07
:1028E00003D802AB1B79002B01D000232376237E73
:1028F000002B00D17DE00023A27A2376E37A9A426E
:1029000000D06BE0627BA37B9A4267D1802302AA4E
:102910005B00D380002D00D1C5E123690693637E5F
:10292000002B11D02100551D2A001A3106A8FEF7F0
:10293000DDFBE123079080B29B00984202D82B7800
:10294000002B01D000236376387803005933DBB2C3
:10295000162B57D801229A401300AD4A134251D08A
:10296000637E002B4ED100257AE019000123009AE6
:1029700000261A4203D0DF368E42B6417642009AD4
:102980009A43FE2A10D01F2200989043802812D12B
:10299000009A2000D206120F072A08D8513000787A
:1029A0001041CC25184213D000252B0043E75230AC
:1029B0000078083AF4E76B461B78CC255BB2002B15
:1029C00006DB230063331A78009B5B089A42EBD046
:1029D000280009B0F0BD237BC12B01D00025F7E70B
:1029E000E07B66E702AB79783878DA1C00F0AAFC65
:1029F00065E702AB03331B78022B00D086E7013B6F
:102A00002376EBE7A1382628ADD801F013F827008C
:102A1000ACFF3600ACFF3B00ACFF6100ACFF7300C5
:102A2000ACFF9600ACFFACFFACFFACFFACFFA90065
:102A3000ACFFAD00ACFFB100ACFFB500ACFFD40003
:102A4000ACFFDE00ACFFACFFACFFACFFACFFACFFFB
:102A5000ACFFF800ACFFFC00ACFF0501002565767B
:102A6000802202ABDB8852009342B1D007A9FF3A23
:102A700020000B7000F091FCAAE723007A78E7337E
:102A80001A7070E77B78002B07D0FF2B13D123003F
:102A900063331B78FF2B00D065E7637E002B00D1EA
:102AA00023720123210020006376042210311A30A2
:102AB00000F0B2FC57E77E22190091430129ECD1C6
:102AC0002200633212785B089A4200D04BE7E4E7B9
:102AD000FFF7FAFA23004E331870FFF7F5FA2300D8
:102AE0004F331870FFF7F0FA230050331870494B3A
:102AF0000122C5E7237A002B00D034E72300E4331A
:102B00001A78963B1B789A4203D9FF2302AAD380F6
:102B100029E79A4200D026E72300E5331A78963B4E
:102B20001B789A42F1D800D01DE72300E6331A78CB
:102B3000963B1B789A42E8D215E72300E4331A88C3
:102B4000963B1B889A4200D00DE72300E6331A78A3
:102B5000963B1B789A4200D005E70123237202E7D7
:102B600023007A78E4338BE723007A78E53387E72C
:102B700023007A78E63383E72300E4331A88963B10
:102B80001B889A4200D0EEE62300E6331A78963B83
:102B90001B789A4200D0E6E67B78FF2B03D1220017
:102BA00063321370DFE67E2219009143012900D0C1
:102BB000D9E65B08F3E722007B78633212785B0684
:102BC0009B0E9A4200D0CEE69FE72300E4331A889A
:102BD000963B1B889A4200D0C5E62300E6331A785C
:102BE000963B1B789A4200D0BDE6230063331A78E7
:102BF000FF2A8AD0012352001343DBB286E7230069
:102C00007A78E8333CE723007A78E93338E7C0463E
:102C10001554550082FFFF1F802202A95200CA806E
:102C2000627A7B78002A00D19DE62200E832127891
:102C3000002A00D197E6D125012A00D910E720000B
:102C4000E73001783F2900D98DE62200A43201291E
:102C500006D92500A635022920D12B7002A9CB80E8
:102C600003780133DBB203703F2B01D90023637279
:102C7000802302A9C9885B00994200D173E6210034
:102C80000023A5310B7023004032A6331D7808784D
:102C90000133401B08709342F8D128E72D78552D59
:102CA000DED15354DAE7002E22D002AB03331B7877
:102CB000D125E3189A7AC12A00D089E6597B2200EF
:102CC0002300483238331D68002D00D180E6287873
:102CD000884209D12B691D1E00D179E602AA06326D
:102CE0003900200098473EE604339A42EBD175E65E
:102CF0002300260048330193009B3836DB0720D59C
:102D00003368002B06D0DB68002B11D1019B043601
:102D1000B342F5D17978D125C52900D9A0E62E4B4B
:102D20008A00D35802AA063220009847050097E689
:102D300002AA06323900200098470500D228E5D0C3
:102D40008EE6A31CDB7F002B04D0FEF75DF86084C9
:102D5000000CA0843368002B06D05B69002B25D1C2
:102D6000019B0436B342F5D100252000A577FFF77B
:102D7000B3FC631CDD777978A9421ED0FF2900D10E
:102D80006EE622004B321278914202D90121D977A6
:102D9000110022004A3212788A4202D90121D977E1
:102DA00011000A002000FFF733FCDCE539002000A9
:102DB00098470500D228D3D052E62300EA331B8877
:102DC0000D00002B00D14BE623004A3319782A006E
:102DD0002000FFF71DFC43E6683C0000F7B5040047
:102DE0000F001600FFF778FC230025004833383524
:102DF00001932B68002B06D01B6A002B08D1019B86
:102E000004359D42F5D131002000FFF778FB05E045
:102E10003200390020009847D228F0D0F7BDFFFFDC
:102E2000F0B505000600383504002F0087B048369D
:102E30003B68002B07D09B69002B01D020009847EE
:102E40000437BE42F4D1E37F002B04D1A37F002BD3
:102E50004ED10123E3772000FEF7C6FF002826D0DD
:102E60002F003B68002B07D05B6B002B01D02000AC
:102E700098470437B742F4D1230049331A78997838
:102E8000914205D2FF2A03D00122631CDA770A009F
:102E900023004A331978914205D9002A03D0012230
:102EA000631CDA770A0000212000FFF797FF238ECA
:102EB000002B1BD0FDF7A8FF210002AB0490DA1C09
:102EC000283104A8FEF712F9A38D059080B205AF52
:102ED000984208D803D17A88E38D9A4203D202AB94
:102EE000DB78002B37D02000FFF744FB07B0F0BDA4
:102EF000FDF78AFF039080B2002804D103AA3E4B5D
:102F000052889A42A7D92F003B68002B07D09B68B4
:102F1000002B01D0200098470437BE42F4D1230093
:102F20004B3332781978914205D2FF2A03D001221F
:102F3000631CDA770A0023004A331978914205D9D5
:102F4000002A03D00122631CDA770A000021200046
:102F5000FFF744FF7DE72B68002B08D09B6A002B0E
:102F600002D03900200098470435B542F3D1A58E30
:102F70002B0AFF2BBAD0238E3E880193002E09D056
:102F8000300258430A2100F0E8FC1C4B984200D95B
:102F9000180086B27888019B000243431849180044
:102FA00000F0DBFC154B984200D918003618B6B279
:102FB000002E9BD0638E9D4213D9ED1AADB2320A1A
:102FC000290A8A4200D835005D19ADB22300EA33E0
:102FD0001B88AB4200D189E729002000FFF7ACFA3B
:102FE00084E79D42F2D25D1BADB2320A290A8A42C1
:102FF00000D835005D1BE8E757020000FFFF000026
:10300000102700000300020010B5E7334B321B7895
:1030100012789A4202D31A1E00D1013203004A33B9
:103020001A70A0331B881B0A9A4203D9002B01D0C7
:10303000FFF7D4FE0122024B00201A7010BDC046DB
:1030400082FFFF1F030010B5E7331B78FE22FF2B22
:1030500007D002004A321478221C9C4200D21A1C6B
:10306000D2B203004B331A709F331B881B0A934262
:1030700001D9FFF7B3FE0122014B00201A7010BDE9
:1030800082FFFF1FF8B5060000250400431C4836E8
:10309000DD770F0085771B2230000B4900F0BCF96B
:1030A00022000123E4325B4213809370E31DDD773D
:1030B000327839002000FFF791FE2000FEF7E8FF8C
:1030C000024B28001D70F8BDC43B000082FFFF1FAB
:1030D0000023421C10B5D377837703004A32EA33CA
:1030E0001B8812781B0A9A4206D902004A321278CB
:1030F0009A4201D80133DAB2FFF770FE002010BD0A
:1031000010B500220400431CDA774A348277E93391
:103110001B8824781B0A9C4201D2013BDAB2FFF7DC
:103120005DFE002010BD10B50024431CDC778477C1
:1031300049331A78FFF752FE200010BD10B5002465
:10314000431CDC7784774A331A78FFF747FE200068
:1031500010BD002210B5431CDA77E9331B881B0A27
:10316000DAB2012B06D903004A331B78934205D209
:10317000013AD2B2FFF732FE002010BD1A00F9E783
:1031800010B502000024431CDC774B32E9331B8866
:1031900012781B0A9A4204D92200A34201D00133BB
:1031A000DAB2FFF71BFE002010BD10B50024431C4F
:1031B000DC7722008477FFF711FE200010BD00228B
:1031C000130010B594B2A14207D85A1ED2B2FD2AFC
:1031D00001D90233DBB2180010BD845C01321B1927
:1031E000DBB2EFE7F0B585B04F4C0A9F0291009239
:1031F00003932080002F00D181E0A6213800FFF743
:10320000DEFF3B00A6331B78834200D077E039799C
:10321000BB78FA7800250F2902D89A426D41EDB2A9
:103220007B790F2B00D90025FB7E403BDBB2BE2B08
:1032300065D9002D63D02000A4224830390000F069
:10324000EBF84022FF21394800F0EAF8364C384BC1
:10325000220019786C3211705A789E7894462200B8
:1032600060466B32107022006A321670DA782000E5
:1032700001926A46127969300270200068300200BB
:1032800018795B7910702000673003702300723367
:103290001970230061467133197023006A46703338
:1032A0001E70230012796F331A7022000123E4325A
:1032B0005B4213802200E63213700233A377039B34
:1032C000029E9B00F3180193019BB34226D1002676
:1032D000A3199B6B002B0FD05B68002B09D00099C2
:1032E000002900D089593A00002D00D12A00200081
:1032F00098470436102EEBD1200005B0F0BDA42273
:103300000C490D4800F088F84022FF210B4800F0DE
:1033100087F801220A4B00251A7092E702CE20009E
:10332000FFF7D7F8D0E7C0464C000020B0000020DF
:10333000A83A0000C43B000094000020F0000020E8
:1033400082FFFF1F10B51E2304009C43A12C01D057
:10335000C12C06D1A52802D00123A72804D102231D
:1033600002E00123184201D1137010BD20396129F8
:10337000F5D9F9E72030C0B20223042800D901238F
:103380000B70704710B5062802D001221A7010BDCC
:1033900019001000FFF7EEFFF9E770B50400160002
:1033A0000D00FEF7E1FC320029002000FEF7E2FCF0
:1033B00005002000FEF7EAFC280070BDEA30038813
:1033C0008B4203D00122024B01801A707047C04625
:1033D0003C010020034B1878002802D00022012075
:1033E0001A7070473C0100200823064A9178194260
:1033F00002D091780B43937088230021024A5B012D
:10340000D150704700D007400070044010B500F064
:103410000BF8FDF797FD10BD10B500F0D8FA10BD00
:1034200010B500F0EAFA10BD37B5184C1849220063
:10343000002000F079F8802380225B00D200002178
:10344000200000F04DF8134C134D220029000120FC
:1034500000F06AF8802380225B00D2000021200067
:1034600000F03EF80D4B1B680193022B0DDD0C4C58
:1034700029002200022000F057F8802380225B0000
:10348000D2000021200000F02BF837BD44010020BD
:10349000E83F000080010020EA3F0000EC3F000010
:1034A000BC01002003000B4330B59B0707D000246C
:1034B000A2420BD100200FE004300431043A032A69
:1034C000F5D903680C68A342F6D0F0E7035D651CEC
:1034D0000C5DA34201D0181B30BD2C00E8E7FFFFB4
:1034E000F0B5C5680124AE0710D08026B600B24200
:1034F00007D08026F600B2420AD080267600B2427B
:1035000004D1084F5E1E0124BE4204D92000F0BD44
:10351000010023002431154301610160C361C560CE
:103520000024F3E7FEFFFF00F7B50D000190100047
:10353000140000F033F82B78722B1FD0772B04D0B7
:10354000612B26D10823144A01E004230222022021
:10355000691C032784460426012508782B2810D0EF
:10356000622813D0E260019A62611B0704D502222F
:103570000021200000F062F82000FEBD002301229F
:10358000E5E760463A4303430131E6E732432B4324
:10359000FAE70024F0E7C04602800000F0B5C468F6
:1035A00089B00500A30722D0230718D4476906690C
:1035B00000F022F8380000F04DFA230502D5300063
:1035C00000F092F90B4BA40DA4059C4207D12022D8
:1035D000296A684600F05CFA684600F0CBF83C22A5
:1035E00000212800FFF71CFF002009B0F0BD0120DA
:1035F0004042FAE7000080AD73B5002813D000F018
:10360000EFF80500280076BD30006043094BC01874
:1036100000F0E6F8002801D001256D420134019B3D
:10362000A342F1DCEEE7044B04001B6805000193A4
:103630003C26F4E744010020EC3F0000F7B5394B8D
:10364000C56804000E0000921D4201D1022741E02E
:1036500043691800019300F009FA071EF6D1009B98
:10366000012B28D0022B2BD0002BEFD1002EEDDB2D
:10367000AB0404D52368E26A9A4200D2E362A069EF
:10368000B0420EDCE26A2368934200D21300226942
:1036900019180092891AB14203DB216B4218B24219
:1036A0002EDC20231D430023A662A36063601E4B13
:1036B0001D40E5600EE0200000F038F83618D5E730
:1036C000019800F0CDF9E268002805DA802301278F
:1036D0001343E3603800FEBDE16A2368994200D9D4
:1036E0000B00A1695B1821695B1A920603D5A26AD7
:1036F000934200DA1300834200DA0300F618B5E7BC
:10370000361AAA0701D5711AA160EA0703D5009AF3
:103710009B1AF31A6360009B9E19202326609D4329
:10372000C5E7C04603001000BFCFF7FFC26893078C
:1037300005D1212201200E4B40421A607047202300
:10374000134012030AD5002B02D0806A0138F5E736
:103750000368826900699B18181AF7E7002B01D0EB
:10376000806AEBE70368826900699B18181AE5E72D
:103770004001002010B5040000F006F80100200010
:1037800000F07AF910BDFFFF032110B5421C08427A
:1037900018D1114C0368114959189943214219D085
:1037A000DCB2411C002C0BD0FF242402811C2342DC
:1037B00006D0FF2109040B40591E8B41C318D91CA8
:1037C000881A04E0431C0078002801D1981A10BD23
:1037D0001800DCE70430DDE780808080FFFEFEFE1D
:1037E00070B50326C36804001E4011D09B0611D596
:1037F000856A00F08FF8E268094B20001340E3600F
:1038000000F010F80022060029002000FFF716FF44
:10381000300070BD036882699D180369ED1AEAE7FC
:10382000FFCFFFFF70B5040005690168C26A124B43
:10383000C0680340E36082230340022B02D00120D2
:10384000404270BD80235B021840FAD0914200D202
:1038500011008D4208D10020E268084BE562134058
:103860002560A060E360ECE7491B2200280000F01F
:1038700007F80028EFD0E2E7FFFFF7FFFFFFFEFFAA
:10388000F7B5D56801900E0014005769EB0205D515
:10389000102338001D4300F0E3F8A061104B1D42D7
:1038A0000FD0A169380000F0EDF8002806DA802377
:1038B0000120E26840421343E3600FE0094B1D40E2
:1038C000E56032000199380000F0E8F843005B0839
:1038D000F61AA3699E19A6610028E8D1FEBDC0466C
:1038E00010000200EFFFFDFF10B5002811D080216D
:1038F0000C38490501608268002A0AD013688B429F
:1039000007D14368546803331B194360936883608D
:10391000F1E710BD202310B50400C2689A43E260AD
:103920008369826A93420CD0FFF77CFFE368074A01
:103930001A4010231343E360A36AA3612369E3627F
:103940002360E268024B1340E36010BDEFCFFFFF3E
:10395000BFBFFFFF03000B4321D4002931D0012258
:10396000D207030901E0090112099942FBD9430872
:1039700001E0490052089942FBD900E04908401A89
:1039800007D35241FAD30146104670474908401800
:10399000F7D29218FAD34018014610467047CB0F61
:1039A00000D04942021000D54042534008B5FFF70D
:1039B000D4FF0CBC521000D34042002A00D549422B
:1039C0001847F446002000F001F86047704784462D
:1039D000830708D18B0706D1131F04D304C904C081
:1039E000043BFBD21A1D524205D0891A801A8B5C07
:1039F00083540132FBD1604670478446043A09D3B0
:103A0000830707D109060B0A19430B0C1943043A23
:103A100002C0FCD2043203D001700130013AFBD164
:103A2000604670478C4671460139095C49008E44F6
:103A3000614670478C46411E7144095E49008E44C0
:103A4000614670478C46411E7144095A49008E44B4
:103A50006146704703B469460220ABBE02B07047AE
:103A600003B469460C20ABBE02B0704703B469468C
:103A70000920ABBE02B0704703B469460E20ABBE4E
:103A800002B0704703B469460A20ABBE02B070476B
:103A90000FB469460D20ABBE04B070470FB4694641
:103AA0000520ABBE04B0704700000000000000001D
:103AB0000800100018002000300040006000800066
:103AC000C00000018001000200030004000610B5E0
:103AD000002905D004688C439340194021430160BC
:103AE000BFF36F8FBFF34F8F10BD8021017002783D
:103AF0000A42FCD07047FFFF18003C1019003C1030
:103B00001A003C1000000000000001002D1C000005
:103B1000F31C0000F71C0000311C00004D1C0000CD
:103B200019210000192100001921000019210000AD
:103B3000192100001921000019210000192100009D
:103B4000811C0000891C0000971C00009F1C0000C5
:103B5000231D0000FB1C0000FF1C0000031D0000D3
:103B6000071D00000B1D00000F1D0000131D0000AD
:103B7000171D0000EB1C0000EF1C0000A51C00003E
:103B8000AD1C0000B71C00001B1D0000060000005B
:103B9000C91B000000000000C11C0000051C000043
:103BA0000000000000000000000000000000000015
:103BB0000000000000000000000000000000000005
:103BC00000000000FEFE01FE0700FFFFFF0000FFF7
:103BD000FFFFFFFFFFFFFFFFFFFFFFFFFFFFFFFFF5
:103BE00000FFFFFF000000000000000000000000D8
:103BF00000000000000000000000000000000000C5
:103C000000000000000000000000000000000000B4
:103C100000000000000000000000000000000000A4
:103C20000000000000000000000000000000000094
:103C30000000000000000000000000000000000084
:103C40000000000000000000000000000000000074
:103C50000000000000000000000000000000000064
:103C60000000000000000000AB310000AD270000A4
:103C70004D27000081310000533100003D3100002C
:103C80002731000001310000D13000002124000064
:103C9000192100001921000019210000192100003C
:103CA0001921000019210000012700000127000050
:103CB0000127000001270000012700000127000064
:103CC0000127000001270000012700000127000054
:103CD0000127000001270000012700000127000044
:103CE0000127000001270000853000001D21000091
:103CF00019210000192100001921000019210000DC
:103D000019210000192100001921000019210000CB
:103D100045300000053000002D2100004521000045
:103D20005D2100007D210000192100001921000003
:103D3000192100001921000019210000192100009B
:103D4000192100001921000019210000192100008B
:103D5000192100001921000019210000192100007B
:103D60001921000019210000A5210000A521000053
:103D7000A5210000A5210000A5210000A52100002B
:103D8000A5210000A5210000A5210000A52100001B
:103D9000A5210000A5210000A5210000A52100000B
:103DA000A5210000A5210000BD210000BD210000CB
:103DB000BD210000BD210000BD210000BD2100008B
:103DC000BD210000BD210000BD210000BD2100007B
:103DD000BD210000BD210000BD210000BD2100006B
:103DE000BD210000BD210000D1210000D121000033
:103DF000D1210000D1210000D1210000D1210000FB
:103E0000D1210000D1210000D1210000D1210000EA
:103E1000D1210000D1210000D1210000D1210000DA
:103E2000D1210000D1210000FD210000FD21000072
:103E3000FD210000FD210000FD210000FD2100000A
:103E4000FD210000FD210000FD210000FD210000FA
:103E5000FD210000FD210000FD210000FD210000EA
:103E6000FD210000FD210000292200005522000054
:103E7000192100001921000019210000192100005A
:103E8000192100001921000019210000192100004A
:103E9000192100001921000019210000192100003A
:103EA00019210000192100006D2400006922000082
:103EB0006922000069220000692200003924000004
:103EC00069220000692200006922000069220000C6
:103ED00069220000692200006922000069220000B6
:103EE0001921000019210000692200006922000048
:103EF0006922000069220000692200006922000096
:103F000019210000192100001921000019210000C9
:103F100019210000192100001921000019210000B9
:103F200019210000192100005D2200005D2200001F
:103F30005D2200005D2200005D2200005D22000085
:103F40005D2200005D2200005D2200005D22000075
:103F50005D2200005D2200005D2200005D22000065
:103F60005D2200005D22000069220000692200003D
:103F70006922000069220000692200005923000024
:103F80000000FC0DE209FE06F6047E037902BF0183
:103F90003C01E0009E0070004F00380028001C002B
:103FA000000000000000BC020100000001009001C0
:103FB0000200000002002003040000000500BC0213
:103FC000080000000B002C01100000001600580231
:103FD000200000002D002C01400000005A00F401D8
:103FE0000000C8000000C800720077000300000055
:103FF000D0071000FFFFFF02FFFFFFFF000040019E
:107C00000000000000000000000000000000000074
:107C10000000000000000000000000000000000064
:107C20000000000000000000000000000000000054
:107C30000000000000000000000000000000000044
:107C40000000000000000000000000000000000034
:107C50000000000000000000000000000000000024
:107C60000000000000000000000000000000000014
:107C70000000000000000000000000000000000004
:107C800000000000000000000000000000000000F4
:107C900000000000000000000000000000000000E4
:087CA0000000000000000000DC
:040000030000020DEA
:00000001FF
