:10000000000C00200D020000D5000000BD0D000016
:1000100000000000000000000000000000000000E0
:10002000000000000000000000000000D9000000F7
:100030000000000000000000DB000000DD00000008
:10004000E1000000E9000000F1000000F9000000FC
:100050000101000009010000110100001901000068
:1000600021010000290100003101000039010000D8
:100070004101000049010000510100005901000048
:1000800061010000110400008105000079010000F9
:100090008101000089010000AD0B00009901000002
:1000A000A1010000A9010000B1010000B901000098
:1000B000C1010000C9010000D1010000D901000008
:1000C000B84B000080FCFF1F0400000084FCFF1FF1
:1000D000D4050000FEE7FEE7FEE7FEE7FEE7FEE7E9
:1000E00010B5FFF7FCFF10BD10B5FFF7F8FF10BD0E
:1000F00010B5FFF7F4FF10BD10B5FFF7F0FF10BD0E
:1001000010B5FFF7ECFF10BD10B5FFF7E8FF10BD0D
:1001100010B5FFF7E4FF10BD10B5FFF7E0FF10BD0D
:1001200010B5FFF7DCFF10BD10B5FFF7D8FF10BD0D
:1001300010B5FFF7D4FF10BD10B5FFF7D0FF10BD0D
:1001400010B501F015F910BD10B5FFF7C8FF10BDCF
:1001500010B5FFF7C4FF10BD10B5FFF7C0FF10BD0D
:1001600010B5FFF7BCFF10BD10B5FFF7B8FF10BD0D
:1001700010B5FFF7B4FF10BD10B5FFF7B0FF10BD0D
:1001800010B5FFF7ACFF10BD10B5FFF7A8FF10BD0D
:1001900010B5FFF7A4FF10BD10B5FFF7A0FF10BD0D
:1001A00010B5FFF79CFF10BD10B5FFF798FF10BD0D
:1001B00010B5FFF794FF10BD10B5FFF790FF10BD0D
:1001C00010B5FFF78CFF10BD10B5FFF788FF10BD0D
:1001D00010B5FFF784FF10BD10B5FFF780FF10BD0D
:1001E000030030B5091ACD181C1AA24200D830BD40
:1001F0001C6804332C60F6E710B5030000241A1ABB
:10020000914200D810BD1C600433F8E710B572B6F7
:1002100002F07AFE0B4C0C4B9C4206D30B4B9C42DB
:100220000AD362B602F082FEFEE7A2686168206827
:10023000FFF7D6FF0C34EEE761682068FFF7DCFFBC
:100240000834EBE7C0000000CC000000D400000040
:10025000FFFFFFFFFFFFFFFFFFFFFFFFFFFFFFFFAE
:10026000FFFFFFFFFFFFFFFFFFFFFFFFFFFFFFFF9E
:10027000FFFFFFFFFFFFFFFFFFFFFFFFFFFFFFFF8E
:10028000FFFFFFFFFFFFFFFFFFFFFFFFFFFFFFFF7E
:10029000FFFFFFFFFFFFFFFFFFFFFFFFFFFFFFFF6E
:1002A000FFFFFFFFFFFFFFFFFFFFFFFFFFFFFFFF5E
:1002B000FFFFFFFFFFFFFFFFFFFFFFFFFFFFFFFF4E
:1002C000FFFFFFFFFFFFFFFFFFFFFFFFFFFFFFFF3E
:1002D000FFFFFFFFFFFFFFFFFFFFFFFFFFFFFFFF2E
:1002E000FFFFFFFFFFFFFFFFFFFFFFFFFFFFFFFF1E
:1002F000FFFFFFFFFFFFFFFFFFFFFFFFFFFFFFFF0E
:10030000FFFFFFFFFFFFFFFFFFFFFFFFFFFFFFFFFD
:10031000FFFFFFFFFFFFFFFFFFFFFFFFFFFFFFFFED
:10032000FFFFFFFFFFFFFFFFFFFFFFFFFFFFFFFFDD
:10033000FFFFFFFFFFFFFFFFFFFFFFFFFFFFFFFFCD
:10034000FFFFFFFFFFFFFFFFFFFFFFFFFFFFFFFFBD
:10035000FFFFFFFFFFFFFFFFFFFFFFFFFFFFFFFFAD
:10036000FFFFFFFFFFFFFFFFFFFFFFFFFFFFFFFF9D
:10037000FFFFFFFFFFFFFFFFFFFFFFFFFFFFFFFF8D
:10038000FFFFFFFFFFFFFFFFFFFFFFFFFFFFFFFF7D
:10039000FFFFFFFFFFFFFFFFFFFFFFFFFFFFFFFF6D
:1003A000FFFFFFFFFFFFFFFFFFFFFFFFFFFFFFFF5D
:1003B000FFFFFFFFFFFFFFFFFFFFFFFFFFFFFFFF4D
:1003C000FFFFFFFFFFFFFFFFFFFFFFFFFFFFFFFF3D
:1003D000FFFFFFFFFFFFFFFFFFFFFFFFFFFFFFFF2D
:1003E000FFFFFFFFFFFFFFFFFFFFFFFFFFFFFFFF1D
:1003F000FFFFFFFFFFFFFFFFFFFFFFFFFFFFFFFF0D
:10040000FFFFFFFFFFFFFFFFFFFFFFFFFEFBFFFF01
:100410008022114B52001A65104A1278D2B2012A7A
:1004200007D0002A02D0022A09D070471A619A61C7
:10043000FBE79A6801321A619A680132F7E7186996
:100440009A6800210132904201D11961F4E79A685B
:1004500001321A619961E8E70080034084FCFF1FC4
:10046000F7B5022500260400170001744574867450
:1004700000F0F0FFE7742700083738002570257575
:10048000667500F0E7FF25721A4D2100280000F084
:1004900097FF3900280000F093FFF5232100164F45
:1004A00010310093012233000197280000F0DCFF97
:1004B000F523210001221331009301973300280016
:1004C00000F0D2FF80212800490001F027F88022A7
:1004D0000A4B92021A6018232A689A432A602A68F3
:1004E0001A40FCD16A602A689A43082313432B60A0
:1004F000F7BDC04600800340006CDC0200E100E074
:10050000012904D0002902D0022900D07047014BF4
:100510001970FBE784FCFF1F7FB50023040001AACC
:1005200002AE03AD4168006813705370337073708E
:100530002B706B7000F008FF3200E168A06800F0DB
:1005400003FF2A006169206900F0FEFE7FBD020002
:10055000036830B519698368D4681B690069E34092
:100560000124006955692340E840A34020408000F1
:100570001B185068C140080020401818107630BD84
:100580008022094B52001A65084A1869118888426E
:1005900002D0118889B2196198695188884202D0C5
:1005A000528892B29A6170470090034086FCFF1F08
:1005B000F0B5012300252F4E87B004000F00300056
:1005C0001321039205AA1370557000F0BDFE80231D
:1005D0001B03B36026002000083600F03BFF30000C
:1005E00000F038FF6A460223127B23706374E274C2
:1005F00023752372204A214B27741A80E522204F4D
:10060000920021003800A57465755A8000F0D8FE6C
:100610003100380000F0D4FEF5232100194E1031CE
:10062000009301222B000196380000F01DFFF523F6
:10063000210001221331009301962B00380000F0B5
:1006400013FF80213800490000F068FF80220E4B24
:10065000D2021A6018233A689A433A603A681A40FC
:10066000FCD17A603A689A43082313433B6007B091
:10067000F0BDC04600F00F406842000086FCFF1F3E
:1006800000900340006CDC0200E100E070B58025C2
:1006900002002D034048002907D1404B404A8560A5
:1006A0001A80E52292005A8070BD537F8B4254D944
:1006B0004560107F01280FD13A484900095A374C4C
:1006C0009B0021803849CB5890693849584302F043
:1006D000D4FE80B26080E7E7022802D149003448A6
:1006E000ECE7032802D149003248E7E7042802D1A9
:1006F00049003148E2E70B2807D130484900095A40
:10070000264C9B0021802E49DDE7052802D14900B7
:100710002C48D3E7062807D12B484900095A1F4C1B
:100720009B0021802949CEE7072802D149002848AB
:10073000F4E70C2802D149002648BFE7082802D177
:1007400049002548EAE7092802D149002348E5E79E
:100750000A28A9D149002248E0E700230F4C456050
:100760002380FF2914D0137F581E042801D90C2B95
:1007700002D189000C4BA6E7981F042802D88900F3
:10078000124BA0E70B2B00D08EE789000C4B9AE7A9
:1007900093699BB2638087E700F00F4086FCFF1FE0
:1007A0006842000036420000C83D0000A0860100FB
:1007B000F8420000F843000092440000D8440000D2
:1007C000C83500002C460000C8410000C8390000B0
:1007D000924200004E4300009C430000444400004D
:1007E000E64500000022044B1A601A68824200D3DA
:1007F0007047C046F9E7C046F8FCFF1F10B500245B
:1008000001008305A34209D172B68022064BD200B3
:10081000064800F0FDFCA04202D062B6200010BDE8
:1008200062B60124FAE7C0466B66656B04FDFF1FE4
:10083000F8B504000D0008000023134A41788778BA
:1008400009023F04C91907789E08C919C7780433FB
:100850003F06B600C9199BB2B1500430A82BEDD1A8
:1008600072B60A48210000F01BFD002802D062B6D3
:10087000002008E062B6225C2B5C9A42F8D101307D
:10088000A828F8D1A738F8BD48FDFF1F04FDFF1FB9
:1008900013B50D4C23785A1C2270002B00D172B670
:1008A00004220A49684602F047FB6B4618885A88BA
:1008B0002378002B05D0013BDBB22370002B00D145
:1008C00062B61204104316BDA1FCFF1F3EFDFF1FC0
:1008D000F0B50026924B8FB00693924B0AAA06A958
:1008E0000093300001230A9602F00CFA8E4C20602F
:1008F00000F0AAFF206800F0DBFF62B6206801F07C
:100900008AFB0500B0420DD0FFF7C2FF874B884A33
:100910001880000C588001233100864813605671FE
:1009200000F0DEFA29008448FFF7B0FE002201271C
:10093000824B1A805A80824B06A920681E7800F0EC
:10094000D3FF804B002800D1C7E006A920681F70A4
:1009500001F0ECFC206800F0ABFF206801F0F0FF34
:10096000FFF796FF774B784D1B782880000C688046
:10097000002B0FD004222900704802F0DDFA704BE2
:100980001B78002B06D0002E04D1042229006F48CA
:1009900002F0D2FA02F0AEFA00282DD0206801F061
:1009A0003AFB624E03903388002B13D17388029375
:1009B000002B0FD100280DD0FFF76AFF6B465C4A71
:1009C00030801B7A000C708002995A48176053716E
:1009D00000F086FA03995848FFF758FE514B5C4ED9
:1009E000A2331B782068337001F015FB33789842EE
:1009F00002D00022574B1A60564B574A1968914251
:100A000014D11A68524E01321A60464B2068A23344
:100A10001B78337001F0FFFA3378984206D0484BC8
:100A20000422494949481F7002F086FA444B1B785A
:100A3000002B16D0444B454A1B881288991A3B2933
:100A400006DC934204D33D4A12889B1A012B08DD31
:100A5000206801F0ADF80022394B20681A7000F0D0
:100A600027FF3E4B1B78002B00D064E72F490B88F3
:100A7000002B03D14B88002B00D15CE70F2202AB87
:100A8000D218280000F0B0F90A90000C042800D811
:100A900051E78025314B1F700021264800F031FAC4
:100AA0002842F9D0234B2E4A1B6913602D4A9342EA
:100AB0000BD9214B2C499A698A4226D00FD82B4951
:100AC0008A4219D02A498A421BD00523184A00219C
:100AD0001848136000F004FA2DE718703DE7254927
:100AE0008A4216D024498A4215D024498A42ECD140
:100AF000234A9A61234A02E0234A9A61234A9A834D
:100B0000E3E7234A9A61234AF9E7234A9A61234A91
:100B1000F5E7234AF3E7234A9A61234AEFE7C04601
:100B200054470000007C0000ECFCFF1FF0FCFF1F9E
:100B3000E0FCFF1F00B00340A4FCFF1F3AFDFF1FB5
:100B4000EAFFFF1F38FDFF1F42FDFF1FF4FCFF1FE0
:100B500046FDFF1FF8FCFF1F10270000E8FCFF1FE9
:100B6000FCFCFF1F85070000A05A0000603B00004E
:100B700094430000AC7100000C7B0000086B000087
:100B8000C46D0000092700001C3E0000063700006D
:100B900050460000073300009D5D0000082E000055
:100BA0000B87FFFFC87D00000A23000001231A4ABB
:100BB00010B51169194209D0FA20184913610B8840
:100BC000800014339BB2834206D00B80136ADB078C
:100BD00001D500F0A5FE10BD00230B80104B5988F5
:100BE000013189B259800F490868013008600868EE
:100BF000002801D10C480860FA21588889008842F1
:100C0000E4D1002159801988013189B2198001216C
:100C1000064B1970DAE7C046FC700340E8FFFF1F7F
:100C20003EFDFF1FF8FCFF1F1127000000FDFF1F06
:100C3000F0B50026464B85B01E7072B600F0C8FCB9
:100C400000F090FC434D444B04222B60AB602B61C1
:100C500006236A60280001326B61EA60FFF75CFCE2
:100C60003E4C34223100200002F06AF9200000F0EE
:100C700071FA69463A4800F089FBE0220221394BBB
:100C8000FF325A60DA6801270A438021DA60364A67
:100C9000C9031160DA68354C3A43DA608022344B7C
:100CA000D202DA6731003A002000FFF781FC3200FF
:100CB00039003048FFF7D4FB02212E48FFF720FC13
:100CC00062B66420FFF78EFD2800FFF740FC052880
:100CD00008D802F037FC2D0329313935264BA361A2
:100CE000264BA38301AC200000F0E0F8002501238F
:100CF000234E2100300023726570A5706571E57088
:100D0000A57100F08BF84022336A300093433362C0
:100D1000032100F0D9F805231A4A29003000136096
:100D200000F0DEF805B0F0BD174BA361174BD8E714
:100D3000174BA361174BD4E7174BA361174BD0E7B1
:100D4000174BA361174BCCE7174BA361174BC8E7B1
:100D5000A1FCFF1FC4FCFF1F80F00F4004FDFF1F1C
:100D600000700340FC70034000E100E0A4FCFF1FA2
:100D700004E100E08AFCFF1F603B0000012E000040
:100D800000B00340E0FCFF1F94430000022B000072
:100D9000A05A000003260000086B00000423000096
:100DA000AC7100000B87FFFF0C7B000005200000EA
:100DB00010B5FFF73DFFFFF78BFDFFFF04207146E5
:100DC000084202D0EFF3098001E0EFF30880816967
:100DD0000A88044B9A4200D0FEE70231816120204C
:100DE00070470000ABBE000013B50B88048849882B
:100DF0004088E41A431A9BB2884204D2FA2189003F
:100E00005B189BB2013CA0B2844204D001211B04B8
:100E10001843117016BD0021F9E7FFFF8023224A15
:100E200030B514681B05234313600C2203240B798F
:100E30009B0013404A7822404C791A43042C01D07D
:100E400010231A436025CB785B012B401343CA79EA
:100E5000002A01D0802213430F228360C36893438A
:100E6000042C02D00C3A144023438A79002A01D082
:100E7000042213438A78002A01D008221343032452
:100E8000C360026A0B78A2432340134303620A7AC9
:100E90000823002A03D0426A1343436230BD426AEA
:100EA0009A434262FAE7C0463C8004400321012293
:100EB000002382700271521803704170C170427138
:100EC0008371C371037270470722436A93430429F5
:100ED00004D0043A1140013211430B43436270477E
:100EE0001F2310B5146823405479002C01D020240E
:100EF00023431279002A01D04022134389000B506A
:100F000010BD802389000858184000D01800704791
:100F100030B580250C4A41680C4B0D4CD1500378FC
:100F20006D021B0411592B400A4D29400B431351EC
:100F30004378C0209B040003116803400648014029
:100F40000B43136030BDC0460070044044100000E5
:100F500004100000FFFFFEFFFFFFF3FF70B51B4B07
:100F60009C799E791D7A24072D07A40FF6B26D0F88
:100F7000954215D0F5070BD5012C02D01D78AD0791
:100F800006D501255E78AE435E709E792E42FCD177
:100F90000E261D7A520032402136B5432A431A727A
:100FA00001255A78AA430D402A4303255A701A781E
:100FB000AA4302431A70012C01D0820704D50120F4
:100FC0009A7902408A42FBD1002070BD0040064061
:100FD000F8B5164B0027DC789D79E4B2ED0604D411
:100FE0002025DE7801377540DD703B261D782E40C8
:100FF000042535431D7010259E792E42FCD0002F0C
:1010000000D0DC7060254901C001294001431F2048
:1010100004402143C9B2D9701C389979890801422A
:10102000FBD1002A00D090470020F8BD00400640C8
:1010300010B5FFF7CDFF10BD0423002807D0C2690B
:101040006933002A03D01268022A00D10023180055
:101050007047FFFF702370B50C4D2B70FFF7ECFF4E
:10106000041E0ED10A4B28001B6898472B78DBB270
:101070009A0605D4DA0606D4DB0702D5692400E017
:101080006724200070BD6824FBE7C04600000240D2
:10109000F0FFFF1F70B505000E0014000420002DA6
:1010A00015D020220021200001F04AFF2B6868683B
:1010B000F61AEB6826606360297A02F0DEF90423F1
:1010C000A0600020E36023616361A361E36170BD00
:1010D00030B504000420002C10D0581E0B00134320
:1010E00003406520002B09D125680130A94205D3B2
:1010F00089186268AD18A94200D8180030BDFFFFFA
:1011000070B5042300281AD0C5690C226C680D49FB
:10111000200001F011FF0C4B01341C60AC681C2254
:101120000A49200001F008FF094B01341C6000232C
:101130001A0019001800A04702232B600023180092
:1011400070BDC046B2460000F0FFFF1F964600008B
:10115000ECFFFF1F70B504000420002C27D0164AB6
:10116000164BD35883401B0F0F2B21D0144A5B0022
:101170009B5A9B0263600123237280230025DB00BE
:101180002560E3606561A56125612000FFF754FFDC
:10119000A84209D00B4B0C4AE3615A600B4A20006D
:1011A0001D609A60FFF7ACFF00202062606270BD96
:1011B00080231B02DEE7C046007004404C10000094
:1011C000784600003400002040000020F4FFFF1F9C
:1011D000802110B5034B0A221C68C9000123024874
:1011E000A04710BDECFFFF1F0C3000F070B50400ED
:1011F0000D00FFF721FF002804D1012D02D12000AE
:10120000FFF7E6FF70BD10B50121FFF7EFFF10BD3E
:10121000F0B505000F0014008BB002AA1E00FFF706
:1012200039FF069B220039002800FFF751FF0028F4
:101230001CD1194B6B309E4218D1029E039F701E29
:1012400004193900200002F018F9002902D00130F9
:101250007843441E00212800FFF7C8FFA64207D9A3
:10126000002301932800FFF7CEFF01980BB0F0BDDB
:101270009022330212051B0A1343084A2800136008
:10128000FFF7E8FE2B690190002B00D09847019BE7
:10129000002BE7D1F619E1E76B66656B04000240AD
:1012A000F0B505008BB00F0014001E000420002ACA
:1012B00017D002AA2800FFF7EDFE059B3200390087
:1012C0002800FFF705FF00280BD101002800029F2E
:1012D000FFF78CFF002E06D134002800FFF793FFA4
:1012E00020000BB0F0BD231D01932268134B1A6040
:1012F000059B042B15D1C0223B021B0AD2041343C9
:101300000F4A13602800FFF7A5FE2B690400002B8D
:1013100000D09847002CE0D1059B019CFF18F61ADD
:10132000D8E7082BEED12300083301936268054B00
:101330001A603B021B0AE022E0E7C04608000240B8
:10134000040002400C00024001238B401178002968
:1013500003D142699A43426170475278002A04D10E
:101360008360426913434361F6E74360F9E7FFFF97
:1013700010B5034B034A1B6811680348984710BD1A
:10138000840000208000002000A0064080230B4A3B
:1013900010B514681B0423431360022203689343AF
:1013A0000A7803600123002A03D002689A4302608E
:1013B00010BD026813430360FAE7C0463C80044056
:1013C0001F4A30B50023904208D01E4A0133904294
:1013D00004D01D4BC3185A1E934102331B4A9B0075
:1013E0009C581B4B220CD2180123A4B2A3401568B1
:1013F000F0242B43136007220B782405134003606D
:10140000CB784A785B01520213434A790830920440
:101410001343CA79120413438A79520413438A7816
:10142000120622401343C3670A79C023002A03D05F
:10143000C26F1343C36730BDC26F9A43C267FAE7F6
:1014400000800340009003400060FCBFC0460000E5
:1014500000700440002303704370C3700371437134
:101460008371C37183707047F7B50D0007211700B2
:101470000268060009980A40D040002B03D0012BD7
:101480001AD0012017E02022336808999343336073
:1014900001F0F3FF441E204B9C42F2D803235F432C
:1014A000EB193C270093631C9BB2B4600193009B33
:1014B0009D420BD10020FEBD2023326813433360D0
:1014C000089B590001F0D9FF0400E4E7A8786428DC
:1014D000D7D80021884207D06431604301F0CDFFA6
:1014E0000199A04200D281B22B78DB00F318DA68B0
:1014F000BA43DA60DA683A42FCD16A78D868920076
:1015000094462022104362460243DA60DA683A4287
:10151000FCD019610335CAE7FFFF000070B5CAB2FD
:10152000CB0503D5402301680B430360002301254D
:101530004026002A00D170BD2A4204D0D9004118AB
:10154000CC683443CC600133DBB25208F1E7FFFFD3
:10155000034B013B002B00D17047C046F9E7C04662
:1015600031750000012110B5114B124C124A0800D0
:10157000E250124AFFF75CFD012202201100FFF742
:10158000EDFC0F48FFF7C4FCB7220E4B92041A6023
:101590000D4B0E49E2581140802252040A43E021CB
:1015A000E250E2588A43110080220A43E25010BD03
:1015B00044100000007004400000031051150000AA
:1015C000CC46000080FCFF1F04100000FFFFFFFC62
:1015D00080228020394B9200196830B50A431A6086
:1015E0001A68C00002431A608022196812010A4377
:1015F0001A608022196852010A431A608022E0248E
:10160000196892010A431A602D4B2E4A1968E400AA
:101610001140214319608021DD6C490015400D43C4
:10162000DD641D6D154025431D65DD6815402C43A7
:10163000C025DC601C69AD0014400C431C61224CC9
:10164000236813402B432360636813401D431F4BE3
:1016500065605C681E4D144004435C609C681440E7
:1016600020439860186910400843186102201C69E3
:101670002C4004431C615C6914400C435C615C6950
:101680002C4004435C619C6914400C439C619C6940
:101690002540284398610F488369134019430E4B36
:1016A0008161196C0D4811401964596C0A405A64E3
:1016B0000B490C4A8B5803408B5030BD3880044096
:1016C00000900440FFF8FFFF00A0044000B0044079
:1016D000FCFFFFFE00C0044000D00440FFFFF3FF0A
:1016E000007004400C10000030B50400EC34002AF7
:1016F00012D01300A5331B78A43200211B2B02D873
:10170000002B05D0012115789D4205D8002903D072
:1017100013882380002030BD01232380002307305D
:10172000C377F7E7802310B55B00138049782E3B21
:10173000DF2907D90B002033034CDBB29B001B5978
:1017400098470300180010BDD446000000207047E1
:10175000C21DE7300378012B03D8D3770122024B57
:101760001A7000207047C046EAFFFF1F0300E733EE
:101770001B781B2B10D8002B07D00200EC321178FD
:101780000A1C994200D21A1CD3B20122ED30037018
:10179000024B00201A7070471B23F6E7EAFFFF1F79
:1017A00009230020138070470730C37F591E8B41E7
:1017B0000020138070470123002013807047002011
:1017C000108070470223002013807047ED300378AB
:1017D000002013807047EC3003780020138070479E
:1017E000802310B55B0013804978202904D090290C
:1017F00009D100F0CBFB10BD03000122EC331A80AD
:1018000000230730C377D220F5E70020704700207F
:10181000704700207047002070470020704700206C
:10182000704700207047002070470020704700205C
:10183000704700207047002070470123002013806C
:10184000704700201080704740230A4A5360516956
:101850000B43536180230849084A1B0488580343FB
:101860008B5001220020064B1A60FC33D861054BD7
:1018700018707047C0F00F40007004403C1000002A
:1018800000700340A30000200020014B1870704737
:10189000A30000200A78034B00201A700822024B94
:1018A0001A70704790000020A300002000207047AD
:1018B000094B1A78072A0DD8012200211A70074B0C
:1018C000D961074959611A620232DA618022054BF7
:1018D000D2031A6000207047A3000020FC70034070
:1018E000C309000000E100E0054B00201B78072B36
:1018F00005D1044B01301A780A705B784B70704741
:10190000A300002090000020034B04481B8898424D
:10191000804140427047C046A6000020BF12000030
:101920001022954BF0B51B699449134022D00888CA
:10193000934B0022984203D00B8801339BB20B805B
:101940000121904B904C196223785B18DBB2237015
:101950008E4B187801380A2820D801F003FE0E00BB
:10196000140022002D004A0087001F00B800C400A8
:10197000DA00FF000B800122E2E70221197000214A
:10198000834B19700AE00121002AFAD080480178BF
:10199000142901D11139F4E7013101707D4B1A701E
:1019A000F0BD002A01D00122F8E701207A490A702F
:1019B000774908700421E4E7764C7548247801786B
:1019C00094420AD10131C9B201700529E6D9012139
:1019D000197072490B68013306E00124022905D809
:1019E0006E491C700B681B190B60D7E7047005214A
:1019F000C7E7684966480C780178944213D10131F1
:101A0000C9B201700A29C9D9012AE0D162490C780A
:101A1000102CDCD101340C7061490A740621197054
:101A200005230370BAE7CD1E022D14D85A4E35781F
:101A3000691CC9B231705A4E7455102903D804215B
:101A400019700123EDE7012AC1D11129BFD10B394A
:101A500019700270A2E706390429B8D84E4D2978CA
:101A60004E1C2E704E4D6C540521E9E7002AAED075
:101A7000474801780131C9B201700E2993D900217C
:101A800080254848464F017002314E1EBE5D002E33
:101A900002D006782E43067001316D080A29F4D170
:101AA0000025457080354E1EBE5D002E02D0467862
:101AB0002E43467001316D081229F4D13A4801686D
:101AC00001310160072119700023237066E740206F
:101AD000364948602178332900D85FE700202C4937
:101AE000087009214DE72A48304C01784025013122
:101AF000C9B20170042901D8A5604FE765600829C3
:101B000000D04BE7002101700720234908700A210B
:101B100037E70127234A204C107825783A002841DE
:101B20001B4EC0B2317882430131C9B231700429F1
:101B300001D902003A401D484027002A0AD04760D8
:101B4000082900D02AE7002131708D4204D0013DE0
:101B5000257023E78760F3E70B2112E74020134944
:101B600048600B4801780131C9B20170102900D0DA
:101B700014E70F3905E7C04600F00F40A60000202B
:101B8000FFFF0000FC700340AA000020A30000201B
:101B9000A9000020A5000020A4000020880000204B
:101BA00092000020900000208C000020C0F00F4028
:101BB00070B5050048350400A621280001F08FF813
:101BC000EE342070074C2000FEF718FE002801D1EB
:101BD000CF2070BD29002000FEF72AFE0028F7D094
:101BE0000020F6E7007C00000E4B0F4A84B09A58A4
:101BF00000920E4A9A580192832252019B580C4A35
:101C000002930C4B10789B68039300236946C95CD0
:101C100001334018C0B2102BF8D10130C0B210709F
:101C200004B0704700700440581000005C100000C1
:101C3000A800002010E000E0D12070470300EA3344
:101C40001B88E7301B0A0370002070470300012245
:101C5000E7331B7849300370014B00201A7070473E
:101C6000EAFFFF1F03000122E7331B7848300370AF
:101C7000014B00201A707047EAFFFF1F0300E73393
:101C80001A78131C0F2A00D90F2301224D3003703C
:101C9000014B00201A707047EAFFFF1F0300E73373
:101CA0001A780123002A04D0131C0F2A00D90F230D
:101CB000DBB201224C300370014B00201A707047D8
:101CC000EAFFFF1F01224118E7300378CB74024B73
:101CD00000201A707047C046EAFFFF1FFF23012251
:101CE0004018C370014B00201A707047EAFFFF1FB5
:101CF0000A00603A0123072A09DC93405130027838
:101D0000134301220370044B00201A707047683996
:101D10008B405230F3E7C046EAFFFF1F0A00703ADB
:101D20000123072A09DC9340513002789A4302705C
:101D30000122044B00201A70704778398B405230D2
:101D4000F3E7C046EAFFFF1F0300E7331B78FF2BD2
:101D500006D07E22190091435332012906D15B0837
:101D6000012263300370024B1A700022100070478A
:101D7000EAFFFF1F012343720020704740185D38BF
:101D800003780020138070479139030030B50800B4
:101D9000332900D96DE001F0D5FB456C1A236C2680
:101DA0002C2E312C47494B6C6C4D51535557596C67
:101DB0006C6C6C6C6C6C6C6C6C6C6C6C6C6C6C6C63
:101DC0006C6C6C6C6C6C6C6C6C626466686AEA332C
:101DD0001988090A4B425941FF310020118030BD5A
:101DE0000133D97FF6E763331978FF394B1E9941E8
:101DF000F2E70121F1E7E7331978EEE71C008021D3
:101E000000203834483349002568002D08D02D784B
:101E10007F2D02D00130A9B2C0B204349C42F3D16C
:101E20000128DAD0FF21D8E7997FD3E7E833E3E749
:101E3000E933E1E7EA331988090ACEE74B33DBE7F8
:101E40004A33D9E74833D7E74933D5E719004D314D
:101E500009784C331B7809011943C9B2BDE75133E6
:101E6000CAE75233C8E74E33C6E74F33C4E75033AF
:101E7000C2E780214900B0E70300F0B587B0E8333E
:101E800003921F78D123012F57D8D03B00249C46C2
:101E9000BA016432821880216300490005AD5953AC
:101EA0000100E7310978012911D0002905D0022964
:101EB0002ED03F2903D8565C00E03F265E53002C0D
:101EC0002BD103000131E73319706446E3E70026A4
:101ED0005E53B74219D1013E5E5305AD5D5B01957E
:101EE000D51C00953D350295009D019E2D78761BF1
:101EF000B5B20195009D01350095009E029DAE4250
:101F0000F2D16E4605ADB688D8E796787642E3E71B
:101F10006646002FD2D09678D0E7012CD5D180210B
:101F200005AB1A8849008A4201D0039C22805A8856
:101F300000238A4201D0E9300270180007B0F0BDDA
:101F40000122831C70B5DA770400FEF7A1FC6084DF
:101F5000000CA084002070BD030070B5EA331B881C
:101F6000040015001B0AFE2B0CD11B220649483029
:101F700001F028F8002805D1ED342378002B01D199
:101F8000FF332B80002070BD8C4700000300F7B5A5
:101F9000EA331C880500240A631E9C41431CDB7F36
:101FA0001600A400002B01D008231C432B8E002B0D
:101FB00001D010231C436B469F1D80233A005B0019
:101FC000952128003B80FFF7C7FF3B88FF2B01D1FD
:101FD000DF3B1C432B0063331B78FF2B01D1BF3B3E
:101FE0001C43AB7F002B01D080231C433480002096
:101FF000FEBD00239A008218926B8A4204D0002A08
:1020000004D10E339B001950002003E00133042B50
:10201000F0D1D0207047EA300088000A7047F8B548
:102020000600070005000C00383648373368002BDF
:1020300005D0DB69002B09D10436BE42F6D1FF2C56
:1020400009D02102280000F049FF04E02100280007
:102050009847D228F0D0F8BDF8B505000700040075
:102060000E00383548372B68002B05D0DB69002B74
:102070000AD10435BD42F6D1330AFF2B09D0310015
:10208000200000F02BFF04E0002120009847D22818
:10209000EFD0F8BD70B505000600040038354836AD
:1020A0002B68002B07D0DB6A002B01D0200098475B
:1020B0000435B542F4D1E18E2000FFF7CDFF0023B7
:1020C000238670BDF7B51D000300EA331B8812029A
:1020D00043860B02C28604000E0083860586042216
:1020E0002C30089900F028FF002D03D12000FFF7C5
:1020F000D1FFF7BDFEF7CCFB2300250000274833B6
:10210000A062383501932B68002B0BD05B6A002B43
:1021100004D020009847002800D00127019B0435F7
:102120009D42F0D1002FE4D1FF2EE2D1DEE7FFFF88
:102130000300F0B585B04D3303921A78294B0C009B
:1021400091005E18CB5A0500002B06D17388002B36
:1021500003D1811CC97F00292DD00123FF2C2AD057
:102160002B002900EA334B311B8808781B0A011C1D
:10217000A04200D9211C28004A300078CFB2041CAC
:10218000B84200D20C1CE4B2181BC0B2A34201D268
:10219000E01AC0B2012300280DD09A40124BD35A46
:1021A000AA1CD27F002A0ED0104BFD21584301F00B
:1021B00064F90F4E83B20096039A21002800FFF7BE
:1021C00081FF05B0F0BD5843FD2101F056F9094AE1
:1021D0000300904200D913009BB20028EBD10123E9
:1021E000E9E7C046684B0000484B00006A31000038
:1021F000A84B0000FFFF000070B50023040006009C
:1022000005000386383448362368002B07D01B6B43
:10221000002B01D0280098470434B442F4D170BD9B
:1022200070B50D0004000023421C6519D3774335B7
:102230008377FFF7E1FF2978FF2911D023004B3383
:102240001A78131C8A4200D90B1CD9B2002907D076
:1022500023004A331A78131C8A4200D20B1CD9B2CD
:1022600020000A00FFF764FF002070BDF7B50022D0
:102270000500431CDA77FFF7BFFF2B00EA331F8806
:10228000A03B1C783F0ABC4219D202331B780D4A8E
:102290005B009E5A3221300001F0EFF880B2381A0C
:1022A0003F1A7B425F41C01B844200DA0400064BA8
:1022B000E1B200930A0033002800FFF703FF00207B
:1022C000FEBDC046484B0000AC4B0000002273B579
:1022D0000500431CDA77FFF78FFF2B00EA331C88D9
:1022E000240A1CD09E3B1B780E4A5B009E5A32216A
:1022F000300001F0C2F880B20019241A63425C4138
:102300002B004B3319780019814200DD0100064B88
:10231000C9B200930A0033002800FFF7D3FE002063
:1023200076BDC046484B0000AC4B0000F0B50F0036
:1023300089B00400FEF7ACFA3B78049000931E23AA
:10234000009A9A437B78A12A02D0C12A00D09CE04F
:10235000002601250099E27A2273A27AA172E27224
:10236000A27BE273627B63732369A2736361049B44
:1023700023613B78812B03D0C72B01D000236372EC
:10238000A31CDA7F002A1CD01F2905D8092903D0F5
:102390002A00324300D1DA77210003AA223104A8AF
:1023A000FEF722FD059080B2002807D105AB5B88BF
:1023B000C72B03D802AB1B79002B02D00022A31C31
:1023C000DA77002E00D19DE0E37AC12B00D092E0B5
:1023D000A07B02AB7A783978033300F063FD237E6B
:1023E000002B00D195E0210003AA143104A8FEF7C8
:1023F000FBFC059080B2002807D105AB5B88632BFE
:1024000003D802AB1B79002B01D000232376237E57
:10241000002B00D17DE00023A27A2376E37A9A4252
:1024200000D06BE0627BA37B9A4267D1802302AA33
:102430005B00D380002D00D1C5E123690693637E44
:10244000002B11D02100551D2A001A3106A8FEF7D5
:10245000CBFCE123079080B29B00984202D82B78F6
:10246000002B01D000236376387803005933DBB2A8
:10247000162B57D801229A401300AD4A134251D06F
:10248000637E002B4ED100257AE019000123009ACB
:1024900000261A4203D0DF368E42B6417642009AB9
:1024A0009A43FE2A10D01F2200989043802812D110
:1024B000009A2000D206120F072A08D8513000785F
:1024C0001041CC25184213D000252B0043E7523091
:1024D0000078083AF4E76B461B78CC255BB2002BFA
:1024E00006DB230063331A78009B5B089A42EBD02B
:1024F000280009B0F0BD237BC12B01D00025F7E7F0
:10250000E07B66E702AB79783878DA1C00F0AAFC49
:1025100065E702AB03331B78022B00D086E7013B53
:102520002376EBE7A1382628ADD801F013F8270071
:10253000ACFF3600ACFF3B00ACFF6100ACFF7300AA
:10254000ACFF9600ACFFACFFACFFACFFACFFA9004A
:10255000ACFFAD00ACFFB100ACFFB500ACFFD400E8
:10256000ACFFDE00ACFFACFFACFFACFFACFFACFFE0
:10257000ACFFF800ACFFFC00ACFF05010025657660
:10258000802202ABDB8852009342B1D007A9FF3A08
:1025900020000B7000F091FCAAE723007A78E73363
:1025A0001A7070E77B78002B07D0FF2B13D1230024
:1025B00063331B78FF2B00D065E7637E002B00D1CF
:1025C00023720123210020006376042210311A3087
:1025D00000F0B2FC57E77E22190091430129ECD1AB
:1025E0002200633212785B089A4200D04BE7E4E79E
:1025F000FFF7FAFA23004E331870FFF7F5FA2300BD
:102600004F331870FFF7F0FA230050331870494B1E
:102610000122C5E7237A002B00D034E72300E433FE
:102620001A78963B1B789A4203D9FF2302AAD380DB
:1026300029E79A4200D026E72300E5331A78963B33
:102640001B789A42F1D800D01DE72300E6331A78B0
:10265000963B1B789A42E8D215E72300E4331A88A8
:10266000963B1B889A4200D00DE72300E6331A7888
:10267000963B1B789A4200D005E70123237202E7BC
:1026800023007A78E4338BE723007A78E53387E711
:1026900023007A78E63383E72300E4331A88963BF5
:1026A0001B889A4200D0EEE62300E6331A78963B68
:1026B0001B789A4200D0E6E67B78FF2B03D12200FC
:1026C00063321370DFE67E2219009143012900D0A6
:1026D000D9E65B08F3E722007B78633212785B0669
:1026E0009B0E9A4200D0CEE69FE72300E4331A887F
:1026F000963B1B889A4200D0C5E62300E6331A7841
:10270000963B1B789A4200D0BDE6230063331A78CB
:10271000FF2A8AD0012352001343DBB286E723004D
:102720007A78E8333CE723007A78E93338E7C04623
:1027300015545500EAFFFF1F802202A95200CA80EB
:10274000627A7B78002A00D19DE62200E832127876
:10275000002A00D197E6D125012A00D910E72000F0
:10276000E73001783F2900D98DE62200A432012903
:1027700006D92500A635022920D12B7002A9CB80CD
:1027800003780133DBB203703F2B01D9002363725E
:10279000802302A9C9885B00994200D173E6210019
:1027A0000023A5310B7023004032A6331D78087832
:1027B0000133401B08709342F8D128E72D78552D3E
:1027C000DED15354DAE7002E22D002AB03331B785C
:1027D000D125E3189A7AC12A00D089E6597B2200D4
:1027E0002300483238331D68002D00D180E6287858
:1027F000884209D12B691D1E00D179E602AA063252
:102800003900200098473EE604339A42EBD175E642
:102810002300260048330193009B3836DB0720D580
:102820003368002B06D0DB68002B11D1019B0436E6
:10283000B342F5D17978D125C52900D9A0E62E4B30
:102840008A00D35802AA063220009847050097E66E
:1028500002AA06323900200098470500D228E5D0A8
:102860008EE6A31CDB7F002B04D0FEF711F86084FA
:10287000000CA0843368002B06D05B69002B25D1A7
:10288000019B0436B342F5D100252000A577FFF760
:10289000B3FC631CDD777978A9421ED0FF2900D1F3
:1028A0006EE622004B321278914202D90121D9778B
:1028B000110022004A3212788A4202D90121D977C6
:1028C00011000A002000FFF733FCDCE5390020008E
:1028D00098470500D228D3D052E62300EA331B885C
:1028E0000D00002B00D14BE623004A3319782A0053
:1028F0002000FFF71DFC43E630480000F7B5040058
:102900000F001600FFF778FC230025004833383508
:1029100001932B68002B06D01B6A002B08D1019B6A
:1029200004359D42F5D131002000FFF778FB05E02A
:102930003200390020009847D228F0D0F7BDFFFFC1
:10294000F0B505000600383504002F0087B0483682
:102950003B68002B07D09B69002B01D020009847D3
:102960000437BE42F4D1E37F002B04D1A37F002BB8
:102970004ED10123E3772000FEF7C6FF002826D0C2
:102980002F003B68002B07D05B6B002B01D0200091
:1029900098470437B742F4D1230049331A7899781D
:1029A000914205D2FF2A03D00122631CDA770A0084
:1029B00023004A331978914205D9002A03D0012215
:1029C000631CDA770A0000212000FFF797FF238EAF
:1029D000002B1BD0FDF75CFF210002AB0490DA1C3A
:1029E000283104A8FEF700FAA38D059080B205AF48
:1029F000984208D803D17A88E38D9A4203D202AB79
:102A0000DB78002B37D02000FFF744FB07B0F0BD88
:102A1000FDF73EFF039080B2002804D103AA3E4B8D
:102A200052889A42A7D92F003B68002B07D09B6899
:102A3000002B01D0200098470437BE42F4D1230078
:102A40004B3332781978914205D2FF2A03D0012204
:102A5000631CDA770A0023004A331978914205D9BA
:102A6000002A03D00122631CDA770A00002120002B
:102A7000FFF744FF7DE72B68002B08D09B6A002BF3
:102A800002D03900200098470435B542F3D1A58E15
:102A90002B0AFF2BBAD0238E3E880193002E09D03B
:102AA000300258430A2100F0E8FC1C4B984200D940
:102AB000180086B27888019B000243431849180029
:102AC00000F0DBFC154B984200D918003618B6B25E
:102AD000002E9BD0638E9D4213D9ED1AADB2320AFF
:102AE000290A8A4200D835005D19ADB22300EA33C5
:102AF0001B88AB4200D189E729002000FFF7ACFA20
:102B000084E79D42F2D25D1BADB2320A290A8A42A5
:102B100000D835005D1BE8E757020000FFFF00000A
:102B2000102700000300020010B5E7334B321B787A
:102B300012789A4202D31A1E00D1013203004A339E
:102B40001A70A0331B881B0A9A4203D9002B01D0AC
:102B5000FFF7D4FE0122024B00201A7010BDC046C0
:102B6000EAFFFF1F030010B5E7331B78FE22FF2B9F
:102B700007D002004A321478221C9C4200D21A1C50
:102B8000D2B203004B331A709F331B881B0A934247
:102B900001D9FFF7B3FE0122014B00201A7010BDCE
:102BA000EAFFFF1FF8B5060000250400431C483665
:102BB000DD770F0085771B2230000B4900F0BCF950
:102BC00022000123E4325B4213809370E31DDD7722
:102BD000327839002000FFF791FE2000FEF7E8FF71
:102BE000024B28001D70F8BD8C470000EAFFFF1F54
:102BF0000023421C10B5D377837703004A32EA33AF
:102C00001B8812781B0A9A4206D902004A321278AF
:102C10009A4201D80133DAB2FFF770FE002010BDEE
:102C200010B500220400431CDA774A348277E93376
:102C30001B8824781B0A9C4201D2013BDAB2FFF7C1
:102C40005DFE002010BD10B50024431CDC778477A6
:102C500049331A78FFF752FE200010BD10B500244A
:102C6000431CDC7784774A331A78FFF747FE20004D
:102C700010BD002210B5431CDA77E9331B881B0A0C
:102C8000DAB2012B06D903004A331B78934205D2EE
:102C9000013AD2B2FFF732FE002010BD1A00F9E768
:102CA00010B502000024431CDC774B32E9331B884B
:102CB00012781B0A9A4204D92200A34201D00133A0
:102CC000DAB2FFF71BFE002010BD10B50024431C34
:102CD000DC7722008477FFF711FE200010BD002270
:102CE000130010B594B2A14207D85A1ED2B2FD2AE1
:102CF00001D90233DBB2180010BD845C01321B190C
:102D0000DBB2EFE7F0B585B04F4C0A9F029100921D
:102D100003932080002F00D181E0A6213800FFF727
:102D2000DEFF3B00A6331B78834200D077E0397981
:102D3000BB78FA7800250F2902D89A426D41EDB28E
:102D40007B790F2B00D90025FB7E403BDBB2BE2BED
:102D500065D9002D63D02000A4224830390000F04E
:102D6000EBF84022FF21394800F0EAF8364C384BA6
:102D7000220019786C3211705A789E78944622009D
:102D800060466B32107022006A321670DA782000CA
:102D900001926A46127969300270200068300200A0
:102DA00018795B791070200067300370230072334C
:102DB0001970230061467133197023006A4670331D
:102DC0001E70230012796F331A7022000123E4323F
:102DD0005B4213802200E63213700233A377039B19
:102DE000029E9B00F3180193019BB34226D100265B
:102DF000A3199B6B002B0FD05B68002B09D00099A7
:102E0000002900D089593A00002D00D12A00200065
:102E100098470436102EEBD1200005B0F0BDA42257
:102E20000C490D4800F088F84022FF210B4800F0C3
:102E300087F801220A4B00251A7092E702CE200083
:102E4000FFF7D7F8D0E7C046AC0000201001002003
:102E5000704600008C470000F40000205001002064
:102E6000EAFFFF1F10B51E2304009C43A12C01D0D4
:102E7000C12C06D1A52802D00123A72804D1022302
:102E800002E00123184201D1137010BD20396129DD
:102E9000F5D9F9E72030C0B20223042800D9012374
:102EA0000B70704710B5062802D001221A7010BDB1
:102EB00019001000FFF7EEFFF9E770B504001600E7
:102EC0000D00FEF7E1FC320029002000FEF7E2FCD5
:102ED00005002000FEF7EAFC280070BDEA300388F8
:102EE0008B4203D00122024B01801A707047C0460A
:102EF0009C010020034B1878002802D000220120FA
:102F00001A7070479C0100200823064A91781942E4
:102F100002D091780B43937088230021024A5B0111
:102F2000D150704700D007400070044010B500F049
:102F30000BF8FDF73DFF10BD10B500F0D8FA10BD3D
:102F400010B500F0EAFA10BD37B5184C1849220048
:102F5000002000F079F8802380225B00D20000215D
:102F6000200000F04DF8134C134D220029000120E1
:102F700000F06AF8802380225B00D200002120004C
:102F800000F03EF80D4B1B680193022B0DDD0C4C3D
:102F900029002200022000F057F8802380225B00E5
:102FA000D2000021200000F02BF837BDA401002042
:102FB000B04B0000E0010020B24B0000B44B000019
:102FC0001C02002003000B4330B59B0707D00024F0
:102FD000A2420BD100200FE004300431043A032A4E
:102FE000F5D903680C68A342F6D0F0E7035D651CD1
:102FF0000C5DA34201D0181B30BD2C00E8E7FFFF99
:10300000F0B5C5680124AE0710D08026B600B242E4
:1030100007D08026F600B2420AD080267600B2425F
:1030200004D1084F5E1E0124BE4204D92000F0BD29
:10303000010023002431154301610160C361C560B3
:103040000024F3E7FEFFFF00F7B50D00019010002C
:10305000140000F033F82B78722B1FD0772B04D09C
:10306000612B26D10823144A01E004230222022006
:10307000691C032784460426012508782B2810D0D4
:10308000622813D0E260019A62611B0704D5022214
:103090000021200000F062F82000FEBD0023012284
:1030A000E5E760463A4303430131E6E732432B4309
:1030B000FAE70024F0E7C04602800000F0B5C468DB
:1030C00089B00500A30722D0230718D447690669F1
:1030D00000F022F8380000F04DFA230502D5300048
:1030E00000F092F90B4BA40DA4059C4207D12022BD
:1030F000296A684600F05CFA684600F0CBF83C228A
:1031000000212800FFF71CFF002009B0F0BD0120BE
:103110004042FAE7000080AD73B5002813D000F0FC
:10312000EFF80500280076BD30006043094BC01859
:1031300000F0E6F8002801D001256D420134019B22
:10314000A342F1DCEEE7044B04001B680500019389
:103150003C26F4E7A4010020B44B0000F7B5394B3E
:10316000C56804000E0000921D4201D1022741E013
:1031700043691800019300F009FA071EF6D1009B7D
:10318000012B28D0022B2BD0002BEFD1002EEDDB12
:10319000AB0404D52368E26A9A4200D2E362A069D4
:1031A000B0420EDCE26A2368934200D21300226927
:1031B00019180092891AB14203DB216B4218B242FE
:1031C0002EDC20231D430023A662A36063601E4BF8
:1031D0001D40E5600EE0200000F038F83618D5E715
:1031E000019800F0CDF9E268002805DA8023012774
:1031F0001343E3603800FEBDE16A2368994200D9B9
:103200000B00A1695B1821695B1A920603D5A26ABB
:10321000934200DA1300834200DA0300F618B5E7A0
:10322000361AAA0701D5711AA160EA0703D5009AD8
:103230009B1AF31A6360009B9E19202326609D430E
:10324000C5E7C04603001000BFCFF7FFC268930771
:1032500005D1212201200E4B40421A6070472023E5
:10326000134012030AD5002B02D0806A0138F5E71B
:103270000368826900699B18181AF7E7002B01D0D0
:10328000806AEBE70368826900699B18181AE5E712
:10329000A001002010B5040000F006F80100200095
:1032A00000F07AF910BDFFFF032110B5421C08425F
:1032B00018D1114C0368114959189943214219D06A
:1032C000DCB2411C002C0BD0FF242402811C2342C1
:1032D00006D0FF2109040B40591E8B41C318D91C8D
:1032E000881A04E0431C0078002801D1981A10BD08
:1032F0001800DCE70430DDE780808080FFFEFEFE02
:1033000070B50326C36804001E4011D09B0611D57A
:10331000856A00F08FF8E268094B20001340E360F3
:1033200000F010F80022060029002000FFF716FF29
:10333000300070BD036882699D180369ED1AEAE7E1
:10334000FFCFFFFF70B5040005690168C26A124B28
:10335000C0680340E36082230340022B02D00120B7
:10336000404270BD80235B021840FAD0914200D2E7
:1033700011008D4208D10020E268084BE56213403D
:103380002560A060E360ECE7491B2200280000F004
:1033900007F80028EFD0E2E7FFFFF7FFFFFFFEFF8F
:1033A000F7B5D56801900E0014005769EB0205D5FA
:1033B000102338001D4300F0E3F8A061104B1D42BC
:1033C0000FD0A169380000F0EDF8002806DA80235C
:1033D0000120E26840421343E3600FE0094B1D40C7
:1033E000E56032000199380000F0E8F843005B081E
:1033F000F61AA3699E19A6610028E8D1FEBDC04651
:1034000010000200EFFFFDFF10B5002811D0802151
:103410000C38490501608268002A0AD013688B4283
:1034200007D14368546803331B1943609368836072
:10343000F1E710BD202310B50400C2689A43E26092
:103440008369826A93420CD0FFF77CFFE368074AE6
:103450001A4010231343E360A36AA3612369E36264
:103460002360E268024B1340E36010BDEFCFFFFF23
:10347000BFBFFFFF03000B4321D4002931D001223D
:10348000D207030901E0090112099942FBD9430857
:1034900001E0490052089942FBD900E04908401A6E
:1034A00007D35241FAD301461046704749084018E5
:1034B000F7D29218FAD34018014610467047CB0F46
:1034C00000D04942021000D54042534008B5FFF7F2
:1034D000D4FF0CBC521000D34042002A00D5494210
:1034E0001847F446002000F001F860477047844612
:1034F000830708D18B0706D1131F04D304C904C066
:10350000043BFBD21A1D524205D0891A801A8B5CEB
:1035100083540132FBD1604670478446043A09D394
:10352000830707D109060B0A19430B0C1943043A08
:1035300002C0FCD2043203D001700130013AFBD149
:10354000604670478C4671460139095C49008E44DB
:10355000614670478C46411E7144095E49008E44A5
:10356000614670478C46411E7144095A49008E4499
:103570006146704703B469460220ABBE02B0704793
:1035800003B469460C20ABBE02B0704703B4694671
:103590000920ABBE02B0704703B469460E20ABBE33
:1035A00002B0704703B469460A20ABBE02B0704750
:1035B0000FB469460D20ABBE04B070470FB4694626
:1035C0000520ABBE04B070470000000028230000B7
:1035D00028230000282300002823000028230000BF
:1035E00028230000282300002823000028230000AF
:1035F000282300002823000028230000282300009F
:10360000282300002823000028230000282300008E
:1037E00028230000701700009C180000C819000072
:1037F000F41A0000BC1B0000841C00004C1D0000DB
:10380000781E0000401F0000082000003421000046
:10381000602200008C230000B824000080250000F6
:10382000AC26000074270000A028000068290000D2
:10383000942A0000C02B0000EC2C0000182E000081
:10384000442F0000703000009C310000C83200009E
:1038500058340000E83500007837000008390000CF
:10386000983A0000283C00001C3E00001040000078
:10387000A04100009443000024450000B44600002D
:1038800044480000D4490000644B0000F44C0000A0
:10389000844E0000145000000852000098530000AD
:1038A000C45400005456000048580000D859000085
:1038B000685B0000F85C0000885E00001860000093
:1038C000A86100009C630000906500002067000074
:1038D00014690000086B0000FC6C0000F06E000032
:1038E00048710000A073000094750000EC770000A0
:1038F000447A00009C7C0000F47E00004C810000B3
:1039000008840000C4860000E4890000A08C000048
:103910005C8F000018920000D494000058980000BA
:10392000DC9B0000FC9E00001CA20000A0A5000083
:1039300024A900000CAD0000F4B00000DCB40000CD
:10394000C4B80000ACBC000094C0000044C5000036
:1039500090C90000DCCD0000F0D2000004D80000C7
:1039600018DD0000C8E1000078E6000054EC00001B
:10397000CCF100000CF80000E8FD0000C4030100D9
:10398000A00901007C0F0100BC150100C41C01004E
:10399000CC230100382B0100A4320100483901007A
:1039A000184101004C4901001C510100B4590100AB
:1039B000B0620100106C010044740100DC7C010065
:1039C000A0860100A0860100000000006B0300003B
:1039D0006F03000073030000780300007C03000005
:1039E0008003000084030000880300008C030000B3
:1039F0009103000095030000990300009D0300005F
:103A0000A1030000BE030000DC030000010400006D
:103A1000220400004C0400007A040000A804000006
:103A2000DA040000100500004A05000085050000CA
:103A3000C3050000060600004D06000093060000C6
:103A4000DE0600002E07000081070000D4070000FA
:103A500018150000BA130000821400004A15000077
:103A6000121600007017000038180000001900003E
:103A7000C8190000F41A0000EE1B00004C1D0000E5
:103A8000141E0000401F00006C2000009821000060
:103A900028230000B824000048260000D827000092
:103AA00004290000942A0000242C0000502D00005E
:103AB0007C2E0000A82F000038310000C832000022
:103AC00058340000E835000014370000403800008A
:103AD000D0390000603B0000F03C00001C3E0000BC
:103AE000483F0000D840000068420000F843000052
:103AF0008845000018470000A8480000384A000028
:103B0000C84B0000584D0000E84E000078500000FF
:103B100008520000985300008C55000080570000A8
:103B200010590000A05A0000305C0000C05D000089
:103B3000505F0000E0600000706200000064000060
:103B40009065000020670000B0680000406A000037
:103B5000D06B0000606D00008C6E00001C700000D7
:103B60004871000074720000A0730000CC74000063
:103B7000F875000088770000B4780000E079000054
:103B80000C7B0000387C0000C87D0000587F0000DE
:103B9000848000004C810000DC8200006C84000006
:103BA00098850000C48600008C8700001C890000F6
:103BB000AC8A0000D88B0000048D0000308E00001D
:103BC0005C8F000088900000189200004493000071
:103BD00070940000009600002C970000BC98000034
:103BE0004C9A0000789B0000089D0000349E000065
:103BF000609F0000F0A000001CA20000ACA3000029
:103C00003CA50000CCA60000F8A7000088A9000091
:103C100018AB0000A8AC000038AE0000C8AF000030
:103C2000F4B0000084B2000014B40000A4B5000099
:103C300034B70000C4B80000B8BA000048BC0000A7
:103C4000D8BD000068BF0000F8C0000088C20000B6
:103C500018C400000CC600009CC700002CC900005E
:103C600020CB0000B0CC0000A4CE000034D0000077
:103C7000C4D10000B8D3000048D50000D8D6000059
:103C800068D800005CDA000050DC000044DE000070
:103C9000D4DF0000C8E1000058E300004CE500005C
:103CA00040E7000034E90000C4EA0000B8EC00007E
:103CB000ACEE0000A0F0000094F2000088F40000D8
:103CC0007CF6000070F8000064FA000058FC000068
:103CD0004CFE0000400001003402010028040100F5
:103CE0008006010074080100680A01005C0C0100F4
:103CF000500E010044100100381201002C14010084
:103D000084160100781801006C1A0100C41C01001F
:103D1000B81E010010210100042301005C250100F0
:103D2000B4270100A82901009C2B0100F42D0100FB
:103D30004C300100A4320100FC3401005437010072
:103D4000483901003C3B0100943D0100EC3F01007B
:103D5000444201009C440100F44601004C4901002A
:103D6000A44B0100FC4D010054500100AC52010075
:103D7000045501005C570100B45901000C5C0100BE
:103D8000645E010020610100DC6301003466010013
:103D90008C680100E46A01003C6D0100F86F0100CD
:103DA000507201000C75010064770100207A010057
:103DB000787C0100347F0100F0810100AC840100B7
:103DC0006E860100A0860100000000006B03000069
:103DD0006F03000073030000780300007C03000001
:103DE0008003000084030000880300008C030000AF
:103DF0009103000095030000990300009D0300005B
:103E0000A1030000BE030000DC0300000104000069
:103E1000220400004C0400007A040000A804000002
:103E2000DA040000100500004A05000085050000C6
:103E3000C3050000060600004D06000093060000C2
:103E4000DE0600002E070000540B0000800C00006E
:103E5000E40C0000160D0000740E00003C0F000082
:103E60006E0F00006810000094110000C0120000E6
:103E700088130000B4140000E0150000A81600002C
:103E8000D4170000001900002C1A0000581B000075
:103E9000841C0000B01D0000DC1E00000820000093
:103EA00034210000C4220000F02300001C25000083
:103EB0004826000074270000A0280000CC2900003C
:103EC000F82A0000882C0000B42D0000E02E00002D
:103ED000703000009C310000C8320000F433000054
:103EE00084350000B0360000403800006C39000016
:103EF000FC3A00008C3C00001C3E0000AC3F00007F
:103F00003C410000CC4200005C44000050460000F0
:103F100044480000D4490000644B0000584D0000A4
:103F2000E84E0000DC500000D05200006054000059
:103F3000F0550000E457000074590000045B0000D5
:103F4000F85C0000245E0000B45F000044610000E3
:103F5000D4620000006400002C650000BC66000014
:103F6000E867000014690000A46A0000D06B00003C
:103F7000FC6C0000286E0000B86F0000E4700000C8
:103F800074720000A0730000CC740000F87500008B
:103F90002477000050780000E07900000C7B0000DE
:103FA000387C0000647D0000907E000020800000CE
:103FB000B0810000DC8200006C8400009885000065
:103FC000C4860000F087000080890000108B00008C
:103FD000A08C0000CC8D0000F88E000088900000BE
:103FE00018920000A8930000389500006496000025
:103FF0009097000020990000B09A0000409C0000BB
:10400000D09D0000609F0000F0A0000080A2000092
:1040100010A40000A0A5000030A70000C0A8000068
:1040200050AA0000E0AB0000D4AD000064AF000077
:10403000F4B0000084B2000014B40000A4B5000085
:1040400034B7000028B90000B8BA000048BC00002E
:104050003CBE0000CCBF0000C0C1000050C3000047
:10406000E0C40000D4C60000C8C80000BCCA0000FC
:104070004CCC000040CE0000D0CF0000C4D10000E6
:10408000B8D30000ACD500003CD7000030D9000008
:1040900024DB000018DD00000CDF000000E1000060
:1040A000F4E20000E8E40000DCE60000D0E80000F4
:1040B000C4EA0000B8EC0000ACEE0000A0F0000084
:1040C000F8F20000ECF40000E0F6000038F900001F
:1040D0002CFB000020FD000014FF00006C0101001B
:1040E000C40301001C06010048070100D8080100B4
:1040F000940B0100EC0D0100E00F0100D411010050
:104100002C1401008416010078180100D01A010057
:10411000281D01001C1F010074210100CC23010097
:10412000242601007C280100702A0100C82C01000F
:10413000202F010078310100D03301002836010022
:10414000803801003C3B0100943D0100EC3F010040
:10415000444201009C440100F44601004C49010026
:10416000A44B0100FC4D0100B850010010530100A8
:1041700068550100245801007C5A0100385D010097
:10418000905F0100E8610100A46401006067010024
:104190001C6A0100746C0100CC6E010024710100E6
:1041A000E07301009C76010058790100147C010045
:1041B000D07E01008C810100AC840100A08601004A
:1041C000A0860100A086010052BF906590659065B1
:1041D0009065906590659065906590659065906537
:1041E000906564640C6218601860C05D305CD859DA
:1041F00080572855345340514C4FF44CD4491847FC
:10420000C04468421040543DFC3A403820350032EA
:10421000E02E562C36291027E425C422DC1EBC1BB8
:104220009C181815F811D80EF00A080740067805F2
:10423000B0044C04E80352BF6842684268426842D6
:10424000684268426842684268426842684268421E
:10425000684268426842684268426842684268420E
:104260001040543DFC3A403820350032E02E562CA8
:1042700036291027E425C422DC1EBC1B9C18181507
:10428000F811D80EF00A080740067805B0044C046F
:10429000E80352BF90659065906590659065906564
:1042A0009065906564640C6218601860C05D305C55
:1042B000D85980572855345340514C4FF44CD44969
:1042C0001847C04468421040543DFC3A40382035FD
:1042D0000032E02E562C36291027E425C422DC1E9D
:1042E000BC1B9C181815F811D80EF00A08074006D8
:1042F0007805B0044C04E80352BF68426842684243
:10430000684268426842684268426842684268425D
:104310006842684268426842684268421040543DC0
:10432000FC3A403820350032E02E562C3629102732
:10433000E425C422DC1EBC1B9C181815F811D80EED
:10434000F00A080740067805B0044C04E80352BFA1
:10435000684268426842684268426842684268420D
:10436000684268426842684268421040543DFC3AE4
:10437000403820350032E02E562C36291027E4250F
:10438000C422DC1EBC1B9C181815F811D80EF00AAC
:10439000080740067805B0044C04E80352BF58668D
:1043A00058665866906564640C621860C05D305C45
:1043B000D85980572855345340514C4FF44CD44968
:1043C0001847C04468421040543DFC3A40382035FC
:1043D0000032E02E562C36291027E425C422DC1E9C
:1043E000BC1B9C181815F811D80EF00A08074006D7
:1043F0007805B0044C04E80352BF68426842684242
:10440000684268426842684268426842684268425C
:1044100068421040543DFC3A403820350032E02ECE
:10442000562C36291027E425C422DC1EBC1B9C1800
:104430001815F811D80EF00A080740067805B004E0
:104440004C04F40152BFC05D305CD85980572855E8
:10445000345340514C4FF44CD4491847C04468423F
:104460001040543DFC3A403820350032E02E562CA6
:1044700036291027E425C422DC1EBC1B9C18181505
:10448000F811D80EF00A080740067805B0044C046D
:10449000E80352BF68426842684268426842684224
:1044A0006842684268421040543DFC3A403820352A
:1044B0000032E02E562C36291027E425C422DC1EBB
:1044C000BC1B9C181815F811D80EF00A08074006F6
:1044D0007805B0044C04E80352BF52BF52BF52BF2C
:1044E00052BF52BF52BF52BF52BF52BF52BF52BF44
:1044F00052BF52BF52BF52BF52BF52BF52BF52BF34
:1045000052BF52BF52BF52BF52BF52BF52BF52BF23
:1045100052BF52BF52BF52BF52BF52BF52BF52BF13
:1045200052BF52BF52BF52BF52BF52BF52BF52BF03
:1045300052BF52BF52BF52BF52BF52BF52BF52BFF3
:1045400052BF52BF52BF52BF52BF52BF52BF52BFE3
:1045500052BF52BF52BF52BF52BF52BF52BF52BFD3
:1045600052BF52BF52BF52BF52BF52BF52BF52BFC3
:1045700052BF52BF1CBB04BFA0BE3CBED8BD74BD61
:1045800080BB8CB998B7A4B5B0B3BCB1C8AFD4AD3B
:10459000E0ABECA930A774A4B8A1FC9E409C849920
:1045A000C8960C945091948ED88B5488D0844C81AA
:1045B000C87D447AC0763C73B86F346CB0682C65A3
:1045C000A861245E7459F0556C52844E9C4AEC45A7
:1045D0003C418C3CDC372C337C2ECC291C25401FE5
:1045E0006419A00FD00752BF2855345340514C4F87
:1045F000F44CD4491847C04468421040543DFC3A3A
:10460000403820350032E02E562C36291027E4257C
:10461000C422DC1EBC1B9C181815F811D80EF00A19
:10462000080740067805B0044C04E80352BF68420E
:10463000684268426842684268421040543DFC3A11
:10464000403820350032E02E562C36291027E4253C
:10465000C422DC1EBC1B9C181815F811D80EF00AD9
:10466000080740067805B0044C04E803FFFFFFFF8D
:1046700000000000000000000800100018002000EA
:104680003000400060008000C00000018001000296
:1046900000030004000610B5002905D004688C430F
:1046A0009340194021430160BFF36F8FBFF34F8FD9
:1046B00010BD8021017002780A42FCD07047FFFFD4
:1046C00018003C1019003C101A003C1000000000BB
:1046D000000001004D17000013180000171800001B
:1046E000511700006D170000391C0000391C000034
:1046F000391C0000391C0000391C0000391C000066
:10470000391C0000391C0000A1170000A917000087
:10471000B7170000BF170000431800001B18000067
:104720001F18000023180000271800002B18000095
:104730002F18000033180000371800000B18000075
:104740000F180000C5170000CD170000D717000094
:104750003B18000006000000E91600000000000001
:10476000E117000025170000000000000000000015
:104770000000000000000000000000000000000039
:10478000000000000000000000000000FEFE01FE2E
:104790000700FFFFFF0000FFFFFFFFFFFFFFFFFF1E
:1047A000FFFFFFFFFFFFFFFF00FFFFFF0000000014
:1047B00000000000000000000000000000000000F9
:1047C00000000000000000000000000000000000E9
:1047D00000000000000000000000000000000000D9
:1047E00000000000000000000000000000000000C9
:1047F00000000000000000000000000000000000B9
:1048000000000000000000000000000000000000A8
:104810000000000000000000000000000000000098
:104820000000000000000000000000000000000088
:10483000CB2C0000CD2200006D220000A12C000036
:10484000732C00005D2C0000472C0000212C000080
:10485000F12B0000411F0000391C0000391C000032
:10486000391C0000391C0000391C0000391C0000F4
:10487000212200002122000021220000212200002C
:10488000212200002122000021220000212200001C
:10489000212200002122000021220000212200000C
:1048A00021220000212200002122000021220000FC
:1048B000A52B00003D1C0000391C0000391C000025
:1048C000391C0000391C0000391C0000391C000094
:1048D000391C0000391C0000652B0000252B00004E
:1048E0004D1C0000651C00007D1C00009D1C00008C
:1048F000391C0000391C0000391C0000391C000064
:10490000391C0000391C0000391C0000391C000053
:10491000391C0000391C0000391C0000391C000043
:10492000391C0000391C0000391C0000391C000033
:10493000C51C0000C51C0000C51C0000C51C0000F3
:10494000C51C0000C51C0000C51C0000C51C0000E3
:10495000C51C0000C51C0000C51C0000C51C0000D3
:10496000C51C0000C51C0000C51C0000C51C0000C3
:10497000DD1C0000DD1C0000DD1C0000DD1C000053
:10498000DD1C0000DD1C0000DD1C0000DD1C000043
:10499000DD1C0000DD1C0000DD1C0000DD1C000033
:1049A000DD1C0000DD1C0000DD1C0000DD1C000023
:1049B000F11C0000F11C0000F11C0000F11C0000C3
:1049C000F11C0000F11C0000F11C0000F11C0000B3
:1049D000F11C0000F11C0000F11C0000F11C0000A3
:1049E000F11C0000F11C0000F11C0000F11C000093
:1049F0001D1D00001D1D00001D1D00001D1D0000CF
:104A00001D1D00001D1D00001D1D00001D1D0000BE
:104A10001D1D00001D1D00001D1D00001D1D0000AE
:104A20001D1D00001D1D00001D1D00001D1D00009E
:104A3000491D0000751D0000391C0000391C0000D4
:104A4000391C0000391C0000391C0000391C000012
:104A5000391C0000391C0000391C0000391C000002
:104A6000391C0000391C0000391C0000391C0000F2
:104A70008D1F0000891D0000891D0000891D000098
:104A8000891D0000591F0000891D0000891D0000BC
:104A9000891D0000891D0000891D0000891D00007E
:104AA000891D0000891D0000391C0000391C000010
:104AB000891D0000891D0000891D0000891D00005E
:104AC000891D0000891D0000391C0000391C0000F0
:104AD000391C0000391C0000391C0000391C000082
:104AE000391C0000391C0000391C0000391C000072
:104AF0007D1D00007D1D00007D1D00007D1D00004E
:104B00007D1D00007D1D00007D1D00007D1D00003D
:104B10007D1D00007D1D00007D1D00007D1D00002D
:104B20007D1D00007D1D00007D1D00007D1D00001D
:104B3000891D0000891D0000891D0000891D0000DD
:104B4000891D0000791E00000000FC0DE209FE0630
:104B5000F6047E037902BF013C01E0009E00700074
:104B60004F00380028001C00000000000000BC02BC
:104B7000010000000100900102000000020020037B
:104B8000040000000500BC02080000000B002C011E
:104B90001000000016005802200000002D002C011B
:104BA000400000005A00F4010000C8000000C800E6
:084BB000720077000300000011
:044BB80000004001B8
:107C00000000000000000000000000000000000074
:107C10000000000000000000000000000000000064
:107C20000000000000000000000000000000000054
:107C30000000000000000000000000000000000044
:107C40000000000000000000000000000000000034
:107C50000000000000000000000000000000000024
:107C60000000000000000000000000000000000014
:107C70000000000000000000000000000000000004
:107C800000000000000000000000000000000000F4
:107C900000000000000000000000000000000000E4
:087CA0000000000000000000DC
:040000030000020DEA
:00000001FF
