:1000000000060020D10400001505000019050000BD
:1000100000000000000000000000000000000000E0
:100020000000000000000000000000001D050000AE
:100030000000000000000000210500002505000070
:100040001105000011050000110500001105000058
:100050001105000011050000110500001105000048
:1000600029050000110500002D0500001105000004
:100070003105000011050000110500001105000008
:100080001105000029090000E90E0000110500001B
:100090001105000011050000110500001105000008
:1000A00011050000110500001105000011050000F8
:1000B0006D11000011050000110500001105000080
:10040000FFFFFFFFFFFFFFFFFFFFFFFFFE7BFFFF81
:1004100010B5064C2378002B07D1054B002B02D0DA
:10042000044800E000BF0123237010BD80FEFF1FC1
:100430000000000020360000044B10B5002B03D054
:100440000349044800E000BF10BDC04600000000A2
:1004500084FEFF1F20360000164B002B00D1144BEA
:100460009D46402292029A1A924600218B460F46E0
:100470001348144A121A02F048F80F4B002B00D010
:1004800098470E4B002B00D0984700200021040015
:100490000D000D48002802D00C4800E000BF02F01B
:1004A00007F82000290001F0CBFA01F0EBFFC0466D
:1004B000000008000006002000000000000000000E
:1004C00080FEFF1F4001002000000000000000002F
:1004D00072B6084808490160084880470849094A37
:1004E000094B9B1A03DD043BC858D050FBDC62B6B5
:1004F0000648804708ED00E0000000000509000004
:100500004836000000FEFF1F80FEFF1F5904000058
:10051000084800470848004708480047084800477F
:10052000084800470848004708480047084800476F
:1005300008480047110500001505000019050000D6
:100540001D05000021050000250500001121000007
:10055000E1210000A921000002B4714649084900C8
:10056000095C49008E4402BC7047C04603B4714622
:10057000490840004900095A49008E4403BC7047AD
:10058000002243088B4274D303098B425FD3030AD2
:100590008B4244D3030B8B4228D3030C8B420DD3E5
:1005A000FF22090212BA030C8B4202D31212090273
:1005B00065D0030B8B4219D300E0090AC30B8B42B1
:1005C00001D3CB03C01A5241830B8B4201D38B035F
:1005D000C01A5241430B8B4201D34B03C01A524104
:1005E000030B8B4201D30B03C01A5241C30A8B4247
:1005F00001D3CB02C01A5241830A8B4201D38B0232
:10060000C01A5241430A8B4201D34B02C01A5241D5
:10061000030A8B4201D30B02C01A5241CDD2C30947
:100620008B4201D3CB01C01A524183098B4201D3C3
:100630008B01C01A524143098B4201D34B01C01AAE
:10064000524103098B4201D30B01C01A5241C30826
:100650008B4201D3CB00C01A524183088B4201D395
:100660008B00C01A524143088B4201D34B00C01A81
:100670005241411A00D20146524110467047FFE7ED
:1006800001B5002000F006F802BDC0460029F7D0F1
:1006900076E770477047C046002B11D1002A0FD172
:1006A000002900D1002802D00021C943081C07B44A
:1006B000024802A14018029003BDC046D9FFFFFFC7
:1006C00003B4684601B5029800F030F8019B9E46DD
:1006D00002B00CBC7047C046F0B5CE464746150484
:1006E0002D0C2E0080B50704140C3F0C9946030C0A
:1006F0007E435D43674363437F19340CE4199C4692
:10070000A54203D980235B029846C4444B46434329
:100710005143250C36046544360C2404A4195B1996
:10072000591820000CBC90469946F0BDF0B54F46D4
:100730004646D646C0B5040082B00D0091469846A4
:100740008B422FD82CD04146484600F0B1F8290002
:100750000600200000F0ACF8331A9C46203B9A4675
:1007600000D576E04B46524693401F004B4662460A
:1007700093401E00AF4228D825D05346A41BBD414C
:10078000002B00DA7BE0002200230092019301237A
:10079000524693400193012362469340009318E030
:1007A0008242D0D900220023009201930A9B002BA1
:1007B00001D01C605D600098019902B01CBC90469D
:1007C0009946A246F0BDA342D7D900220023009249
:1007D00001936346002BE9D0FB0798464146720817
:1007E0000A437B0866460EE0AB4201D1A2420CD818
:1007F000A41A9D41012024196D410021013E2418B5
:100800004D41002E06D0AB42EED9013E24196D4178
:10081000002EF8D100980199534600196941002B28
:1008200023DB2B005246D3402A006446E2401C00E2
:1008300053461500002B2DDB26005746BE403300E3
:1008400026006746BE403200801A9941009001910F
:10085000ACE7624620239B1A4A46DA406146130001
:1008600042468A4017001F4380E7624620239B1AB6
:100870002A0066469A402300F3401343D4E76246B9
:10088000202300219B1A0022009101920122DA40CC
:10089000019280E72023624626009B1ADE402F004B
:1008A000B0466646B74046463B003343C8E7C046BD
:1008B00010B5002903D100F007F8203002E0081C31
:1008C00000F002F810BDC0461C2101231B04984211
:1008D00001D3000C10391B0A984201D3000A0839D1
:1008E0001B09984201D30009043902A2105C401888
:1008F0007047C0460403020201010101000000002C
:10090000000000000823064A9178194202D091782D
:100910000B43937088230021024A5B01D15070473A
:1009200000D00740007004408022114B52001A652D
:10093000104A1278D2B2012A07D0002A02D0022A25
:1009400009D070471A619A61FBE79A6801321A610F
:100950009A680132F7E718699A68002101329042DB
:1009600001D11961F4E79A6801321A619961E8E7E7
:10097000008003409CFEFF1FF7B5022500260400FF
:10098000170001744574867401F07CFCE77427003D
:100990000837380025702575667501F073FC2572DF
:1009A0001A4D2100280001F029FC3900280001F02F
:1009B00025FCF5232100164F10310093012233004E
:1009C0000197280001F068FCF52321000122133172
:1009D000009301973300280001F05EFC802128007D
:1009E000490001F0B3FC80220A4B92021A601823DE
:1009F0002A689A432A602A681A40FCD16A602A68E9
:100A00009A43082313432B60F7BDC0460080034080
:100A1000006CDC0200E100E0012904D0002902D0D2
:100A2000022900D07047014B1970FBE79CFEFF1FA5
:100A300070B5040001F052F800230D4D237063706F
:100A4000A3706371E370A371013323721933210022
:100A50002800E36000F0FAFF40222B6A280093434D
:100A60002B6201F05FF82800032101F045F870BD0A
:100A700000B00340F8B500211A230200C3600174DE
:100A80000C32294801F091F88025274C00212000E4
:100A900001F097F82842F8D0502023696421584388
:100AA000FFF76EFD214B0200214C984230D9214BBB
:100AB000984221D9002323701F4A204913782078B7
:100AC0005B0058520B8848888F888446C8886344E6
:100AD0000E89DB194D8918188C898019C98940192C
:100AE000001913784018C008062B1AD81378013360
:100AF000DBB2C0B21370F8BDFA2080005043104B37
:100B00001049C018FFF73CFD1923181A2070D3E7CD
:100B10000D480E4B50430B49C018FFF731FD1930FB
:100B2000F4E70023E5E7C04600B00340CB02000035
:100B3000AFFEFF1FF3020000AEFEFF1F9EFEFF1F71
:100B40002013F5FF5406000018FCFFFFE0EC0A003C
:100B5000F7B5092302000090C3600C320021A548BC
:100B600001F023F88025A34C0021200001F029F892
:100B70002842F8D0A04A20691388503B834202D310
:100B80001388002B26D19D499D4A0B7884B25B00C7
:100B90009C52138857889688D5881489DB19A446F7
:100BA00054899B1901945D19019B94896544D289EC
:100BB000ED182C19934BA2181A601B688E4ADB089B
:100BC0009BB213800B78062B00D9C0E00B78013361
:100BD000DBB20B70884C8C4923888C4A503B834293
:100BE00000D3B6E001230B70894B1C780B789C4234
:100BF00006D114780B789C4202D00B78DBB21370CC
:100C00001378844C002B01D1013323702378824D5B
:100C1000002B08D01378002B00D0A3E07F4E337850
:100C20000133DBB233702B78132B12D900238027CA
:100C30007A4E23702B7023703370794E2B70336093
:100C4000784EFF013760784E3370784E3370784EAF
:100C500033706F4B1E7813789E4232D02378002B6E
:100C60002FD06B4B1E786F4B002E00D08DE06B4D5C
:100C70002E780A2E09D96D4F3E78002E05D12E7898
:100C80006C487608067001263E70684E3678002E55
:100C90000ED0674E3678002E0AD02E78654D2D780E
:100CA000AE4269D8604D2E78002E60D101232B70A2
:100CB0005A4E614F33789B00DD590135DD510023D9
:100CC000337013785248DBB2037000200B78554E16
:100CD000DBB2137033680193834237D1504D01303A
:100CE0002B68072703409C466246009B0099DA75F3
:100CF0002B68009AC34093752A68DBB2520A3A40C7
:100D00004A7529689B18090B39405B18034003306A
:100D10009C450BD1009B1B7D8B4202D00198002982
:100D200004D10020022A01D8444B985C00233B4A9E
:100D300023701370384A13708022D2012B60326006
:100D4000394A1370394A1370394A1370FEBD0023B3
:100D50003FE72388A03B834201D9002343E7137870
:100D6000DBB240E72B780133DBB22B705BE71E6808
:100D700076081E6000239AE7294E35681F683D43B8
:100D800035601D686D081D6092E72A4E2F78367811
:100D9000B74209D8264E3778002F05D1234F3F7828
:100DA000002F01D001273770204E3678002E0ED04C
:100DB0001F4E3678002E0AD02E781E4D2D78AE426A
:100DC00013D8194D2E78002E05D101232B70124E09
:100DD0001B4F33786FE7124F3E68186806433E603A
:100DE0001E6876081E600023F0E71D686D081D6010
:100DF000EDE7C04600B0034054FFFF1F66FFFF1F32
:100E000056FFFF1F68FFFF1F05FEFF1F04FEFF1FA9
:100E100006FEFF1F6CFFFF1FB1FEFF1FB0FEFF1F8E
:100E200070FFFF1F08FEFF1F77FFFF1F74FFFF1FEC
:100E300075FFFF1F76FFFF1FB4FEFF1F2025000078
:100E400004FFFF1F70B504000E0000F047FE0023F2
:100E50000A4D6370A3706371E370A37101332800BE
:100E60002372210000F0F2FD40222B6A28009343F8
:100E70002B62032100F040FE267570BD00B00340D8
:100E80007FB50023040001AA02AE03AD41680068EB
:100E900013705370337073702B706B7001F024F902
:100EA0003200E168A06801F01FF92A006169206939
:100EB00001F01AF97FBD0200036830B51969836833
:100EC000D4681B690069E340012400695569234027
:100ED000E840A340204080001B185068C140080033
:100EE00020401818107630BD8022094B52001A6538
:100EF000084A18691188884202D0118889B219619C
:100F000098695188884202D0528892B29A6170479B
:100F10000090034078FFFF1FF0B50400270087B062
:100F200008370291039201F0ADF9380001F0AAF9F7
:100F300000260123274D05AA2800022113705670B0
:100F400001F0D2F80423AB606B461B7A6A46237427
:100F50000223214D127B23706374237523721F4B70
:100F6000E27421002800A67466751E805E8001F080
:100F700045F93900280001F041F9F5232100184F07
:100F800010310093012233000197280001F084F909
:100F9000F52321000122133100930197330028002B
:100FA00001F07AF980212800490001F0CFF9802270
:100FB0000C4BD2021A6018232A689A432A602A68C6
:100FC0001A40FCD16A602A689A43082313432B60B5
:100FD00007B0F0BD40F00F400090034078FFFF1FC6
:100FE000006CDC0200E100E070B50200042540481E
:100FF000002905D13F4B404A85601A80598070BD59
:10100000537F8B4254D94560107F01280FD13B4854
:101010004900095A374C9B0021803949CB589069C7
:1010200038495843FFF7ACFA80B26080E7E70228FE
:1010300002D149003448ECE70C2802D1490033487A
:10104000E7E7032802D149003148E2E7042802D14A
:1010500049003048DDE70B2807D12F484900095ADD
:10106000244C9B0021802D49D8E7052802D1490056
:101070002B48CEE7062807D12A484900095A1D4CBB
:101080009B0021802849C9E7072802D14900274849
:10109000F4E7082802D149002548EFE7092802D1E2
:1010A00049002448EAE70A28A9D149002248E5E78F
:1010B0000023104C45602380FF2914D0137F581E55
:1010C000042801D90C2B02D189000D4BA6E7981FEB
:1010D000042802D88900144BA0E70B2B00D08EE720
:1010E00089000E4B9AE793699BB2638087E7C046FD
:1010F00040F00F4078FFFF1F1027000092310000E2
:10110000242D0000A086010054320000AA32000005
:1011100054330000EE330000343400002425000076
:10112000883500002431000024290000EE31000041
:10113000F8320000A0330000423500001823026896
:101140009A43026002681A42FCD170470023FA21D8
:1011500010B5054C49002360FFF712FA2368984246
:1011600000D810BDC046F9E784FFFF1F8023214A45
:1011700010B5116820480B431360204B20491A68B2
:10118000204C01321A600A6801320A60026801329A
:1011900002602268013222601B4A14680134146024
:1011A0000468032C04D90024046018480134047036
:1011B0000868312804D900200860154901300870FA
:1011C00090211068FF31884204D900211160114A32
:1011D000013111701968104A914206D900220F4856
:1011E0001A60FFF747FC0E4B186001220D4B1A7076
:1011F00010BDC046000004408CFFFF1FA4FFFF1F6E
:1012000094FFFF1F84FFFF1F9CFFFF1F88FFFF1F2E
:1012100090FFFF1F98FFFF1FCF0700002401002051
:10122000A0FFFF1FE4FFFF1FF7B501F0DFF801F09B
:10123000A7F8534D534B03222B60AB602B61072360
:101240006A60280001326B61EA60FFF719FE4E4EBA
:1012500034220021300001F058F9300000F0CEFDBA
:101260004A4B4B4C19785A788A4261D199788A4214
:101270005ED1DB7893425BD1237000260123454980
:1012800045484B708B700E7000F09CFF4348FFF791
:10129000CFFB21784248FFF7D5FD8022414B424CDD
:1012A000D202DA67310001222000FFF735FE3F4FFE
:1012B000320038000121FFF75FFB02213800FFF701
:1012C000ABFB684600F066FF6946394F0E71380087
:1012D0004E718E7100F036FF072000F013FDFA22E8
:1012E000002352003100FFF7F7F9324A0023FFF7DD
:1012F000D3F98021402380B2B8603A682E488A43EF
:10130000134380223B602D4B52051A6001223B683B
:101310008B4313433B60FFF719FF2800FFF7CBFD1A
:10132000062814D8FFF718F91C0F142028241800D9
:10133000F8210027224A1023C9013000176000F06D
:1013400005FE277099E71F4BA3611F4BA383F7BDD1
:101350001E4BA3611E4BF9E71E4BA3611E4BF5E725
:101360001E4BA3611E4BF1E71E4BA3611E4BEDE725
:101370001E4BA3611E4BE9E71E4BA3611E4BE5E725
:101380000801002000F00F40B0FFFF1F007C0000AC
:1013900082FFFF1F7CFFFF1F7FFFFF1F2401002034
:1013A000CC00002004E100E0E4000020B4000020B4
:1013B0000000044080841E00A086010000E100E0DF
:1013C000ECFFFF1F603B0000012E00009443000073
:1013D000022B0000985300000C270000A05A0000C8
:1013E00003260000086B000004230000AC7100001D
:1013F0000B87FFFF0C7B000005200000F7B5A84C11
:101400002378002B06D0A748FFF7A2FBA64B187045
:1014100000232370A54C2078082818D8FFF7A6F8D9
:1014200009002D004F005100FC0031017E01170022
:10143000B00100229E4B9F481A701978C9B2FFF77D
:10144000D3FD994B1B78022B02D0032B0CD0F7BD98
:10145000944B9A7D984B1A701B78002B02D1002375
:101460002370F4E70223FBE78E4B9A7D924B1A70B0
:101470001B78002BF3D00123F2E7904D2B78002B43
:1014800000D1EBE08A4B1A780132D2B21A708A4A44
:1014900018781178884200D2D9E01278D2B21A7046
:1014A00003222270D3E07F4B9A7D834B1A70804ACF
:1014B00018781178884200D3E5E00423D0E7804D06
:1014C000DCE7794B1B78032B16D0052B25D0022B9C
:1014D0002BD1744A917D784A117075491578087836
:1014E000854201D2023303E010780A78904201D994
:1014F00023701AE00323FBE76A4B9A7D6E4B1A7048
:101500006B4A18781178884201D20523F0E71978E0
:1015100013789942EED90123EAE7654B1B78FF2B3C
:1015200003D1604B9B7D062BDCD0664D2B78002BC6
:101530002DD008236A46002163480093802700F0DD
:1015400034FB614E0021300000F03BFB3842F8D004
:1015500033695E4E5E483360FFF7ADFC5D4A31682B
:10156000544B91420BD9062809D8FEF7F5FF4504E4
:101570003D49514D4100584A9A61584A9A834C4A14
:1015800018001178C9B2FFF72FFD00232B70544DBE
:101590002B686D2B15D9534E3378002B11D1552064
:1015A000434B64211B785843FEF7EAFF424BC0B21D
:1015B00018701B784C4ADBB213700123337004336C
:1015C00023702B687C2B00D841E7464B1B78002BFF
:1015D00000D13CE71922364B36481A701978C9B247
:1015E000FFF702FD07233BE7404A9A61404AC5E7FF
:1015F000404A9A61404AC1E7404A9A61404ABDE781
:10160000404A9A61404AB9E7404A9A61404AB5E780
:10161000404A9A61404AB1E7294D2B78002B1DD0F2
:10162000234B1A78002A03D01A78013AD2B21A70E2
:10163000214A18781178884204D81278D2B21A70E8
:10164000032222701A78D2B2002A00D129E7197831
:101650001848C9B2FFF7C8FC00232B70124B1B7847
:10166000022B00D11FE7032B00D0F0E60D4B9A7D33
:10167000114B1A700E4A1878117888420AD2052345
:10168000EEE60E4DC9E719781378994200D9E9E6DC
:101690000323E5E619781378994200D9EBE6F7E7DA
:1016A000E4FFFF1FCC000020040100201FFEFF1FED
:1016B00083FFFF1FE40000200CFEFF1F88FFFF1FB9
:1016C00090FFFF1F0EFEFF1F00B00340ACFFFF1F87
:1016D00008010020E40800001C3E0000063700005E
:1016E000A0FFFF1FA8FFFF1F0DFEFF1F50460000B9
:1016F00007330000985300000C2700009D5D000098
:10170000082E0000C46D000009270000AC71000025
:101710000B87FFFFC87D00000A230000AC4E337822
:10172000002B15D0AB4DAC4A2B78AC48DBB2D35C68
:10173000AB4ADBB213701178C9B2FFF755FC2B78B6
:101740000E2B1BD82B780133DBB22B7000233370A8
:10175000A44B1B78052B00D079E6A34B9B7D072B70
:1017600000D074E600259E4B9C481D701978C9B2C4
:10177000FFF73AFC974B25701D7068E60023E4E7FD
:10178000984B1B78052B00D061E6974B9D7D002D73
:1017900043D18122954E9648336893433360FFF7D7
:1017A000CDFC9448FFF7CAFCF821934A1023C901E5
:1017B0009248156000F0CAFB29008B4B1D75904BB9
:1017C0001D70854B595501350F2DFBD18D4A1820C1
:1017D0001570FF225A70DA705A71DA715A72DA7221
:1017E0005A73DA73884BF73A1960794B19700623EC
:1017F00023707F4C616023688343134323607D4BD8
:101800005960196881430A431A6080223368934300
:101810001A0001231343336019E6012D40D18122C0
:10182000724E7348336893433360FFF787FC714807
:10183000FFF784FC8022F821704F744BD200C9015D
:10184000380000F03DFBF821714A724BC90113606A
:101850003800102300F07AFB634B5F491D75684B1D
:101860001D7000231A00CA5401330F2BFBD16A48A4
:101870000370F033CB71644B18201A60544B08216D
:101880001A70062323705A4C6260236883430B430B
:101890002360584B5A601A68824311431960B4E7B9
:1018A000022D2DD18122514E51483368934333602C
:1018B000FFF744FC4F48FFF741FC8022F8214F4FCF
:1018C000524BD200C901380000F0FAFAF821534A0D
:1018D000534BC90113603800102300F037FB424B13
:1018E0003D491D75464B1D7000231A00CA54013333
:1018F0000F2BFBD14B480370F033CB714B72BAE71F
:10190000032D2ED18122394E3948336893433360F9
:10191000FFF714FC3748FFF711FC8022F821374FFE
:101920003A4BD200C901380000F0CAFAF8213E4A09
:101930003E4BC90113603800102300F007FB2A4B0F
:1019400025491D752E4B1D7000231A00CA54013302
:101950000F2BFBD136480370F033CB714B72CB7237
:1019600089E7042D2FD18122204E214833689343EB
:101970003360FFF7E3FB1F48FFF7E0FB8022F8210D
:101980001E4F224BD200C901380000F099FAF8210D
:10199000284A294BC90113603800102300F0D6FAF9
:1019A000114B0D491D75164B1D7000231A00CA54AA
:1019B00001330F2BFBD121480370F033CB714B72F5
:1019C000CB724B7357E7072D00D040E560E6C04669
:1019D00098FFFF1F99FFFF1F0FFEFF1FE40000206D
:1019E00083FFFF1F04010020CC0000200000044002
:1019F0000080034000900340F0FFFF1FB0FFFF1F77
:101A000082FFFF1FE5FFFF1F9CFFFF1F6B66656BDB
:101A1000F4FFFF1F01010101E6FFFF1FF8FFFF1F99
:101A200002020202E7FFFF1FFCFFFF1F0303030385
:101A3000E8FFFF1F0000002004040404E9FFFF1F6B
:101A400010B5FFF7F1FBFFF7D9FCFCE78023224A32
:101A500030B514681B05234313600C2203240B7953
:101A60009B0013404A7822404C791A43042C01D041
:101A700010231A436025CB785B012B401343CA79AE
:101A8000002A01D0802213430F228360C36893434E
:101A9000042C02D00C3A144023438A79002A01D046
:101AA000042213438A78002A01D008221343032416
:101AB000C360026A0B78A2432340134303620A7A8D
:101AC0000823002A03D0426A1343436230BD426AAE
:101AD0009A434262FAE7C0463C8004400321012257
:101AE000002382700271521803704170C1704271FC
:101AF0008371C371037270470722436A93430429B9
:101B000004D0043A1140013211430B434362704741
:101B1000036A0200802018404023526A1A4200D013
:101B200018437047F7B54022036A040000261342A9
:101B300003D0036A013693430362C0238027402504
:101B4000626A1343636223683B422AD12000FFF795
:101B5000DFFF2842F7D0012523690193002E03D02F
:101B60004023226A134323622000FFF7D1FF43067C
:101B700019D4002D13D1E26CA36C676CD318266CBA
:101B8000DB19E06B9B19A16B1B185B180193802379
:101B9000019A1B02520813430193019BE362280040
:101BA000FEBD0025D8E70125F9E71F2310B514680D
:101BB00012792340002A01D04022134389000B50A0
:101BC00010BD802389000858184070470222084B36
:101BD0001878104004D19A791207920F012A05D182
:101BE00001225B781340034A9B0098587047C04617
:101BF00000400640C83500000020044B1B785BB253
:101C0000834201DA024B18687047C0460050064014
:101C10003C0100200C4B10B51C682403A40F022CBF
:101C20000CD0032C0DD0002C01D0002010BDFFF7EC
:101C3000E3FF80231B029842F7D1F7E7034B1868B4
:101C4000F4E7FA208000F1E700700440380100203A
:101C50004168074A074BD1500378C0209B0400031A
:101C600011680340044801400B4313607047C046AD
:101C70000070044044100000FFFFF3FF70B5074BF5
:101C80001C7A1D7EFFF7A2FF0723E4B2EDB26408C1
:101C90001D401C406419E04070BDC0460040064035
:101CA000074A137E5BB2002B08DB90790007800F98
:101CB00043425841034B4042184070470148FCE7FB
:101CC00000400640006CDC0210B50B4CA3791B07EA
:101CD0009B0F012B07D0002B0CD00020022B08D12A
:101CE000064B186805E0FFF771FF237A1B075B0FAF
:101CF000D84010BD0248FCE7004006403C010020EF
:101D0000006CDC0270B50B2807D8FEF725FC08082C
:101D100012121F2206250628282B002070BDFFF76F
:101D2000D3FF124A124BD158090F0131FEF728FC9C
:101D3000F4E70E4D0E4CFFF7C7FF2959090F01318B
:101D4000FEF71EFC29594903490FEEE7FFF762FF32
:101D5000E4E7FFF751FFE1E7FFF790FFDEE7FFF76A
:101D60009FFFDBE7FA208000D8E7C0460070044000
:101D70004410000070B503251F4B01789A798478D0
:101D800092082A40012A0DD101290BD15A780A4024
:101D9000A24207D03F261A7832401A709A799208E8
:101DA0002A42FBD10E250726C27852002A401A7219
:101DB00042790579D20135402A430125D2B21A76FB
:101DC0005A782C40AA4322435A7040788A01024331
:101DD000D2B21A705A78520705D5022903D10A00E7
:101DE00098791042FCD003209A79920802409142DF
:101DF000FAD1002070BDC0460040064070B5040016
:101E00000420002C27D0164A164BD35883401B0FB2
:101E10000F2B21D0144A5B009B5A9B026360012365
:101E2000A36080230025DB002560E3606561A56178
:101E30002561200000F016F9A84209D00B4B0C4A8E
:101E4000E3615A600B4A20001D609A6000F014F8AC
:101E500000202062606270BD80231B02DEE7C04666
:101E6000007004404C100000D03500004C000020F1
:101E7000580000200C00002070B50423002815D065
:101E8000C5690C226C680A49200000F035FB094B3B
:101E900001341C60AC680A222000074900F02CFBCA
:101EA000064B01341C6002232B600023180070BD18
:101EB000F835000008000020EE3500000400002086
:101EC000F0B505000E0014008BB002AA019300F0DB
:101ED000EDF8069B22003100280000F0D0F8002821
:101EE00014D1029E039F701E041939002000FEF7D2
:101EF000CDFB002902D001307843441EA64207D909
:101F000000230093280000F095F800980BB0F0BD76
:101F10009022330212051B0A13430A4A13600A4B2C
:101F2000019A9A420CD1280000F064F82B690090C5
:101F3000002B00D09847009B002BE3D1F619DDE77A
:101F40006B20E3E7040002406B66656BF0B50500AB
:101F50008BB00F0014001E000420002A0CD002AA2F
:101F6000280000F0A3F83900059B3200280000F09B
:101F700086F8029F00281ED00BB0F0BD231D0193F0
:101F80002268194B1A60059B042B1CD1C0223B020E
:101F9000D2041B0A1343154A1360280000F02AF8E4
:101FA0002B690400002B00D09847002C06D1059B1C
:101FB000019CFF18F61A002EE0D13400280000F032
:101FC00039F82000D8E7082BE7D123000833019324
:101FD0006268074B1A60E0223B02D2041B0A1343DB
:101FE000024A1360D9E7C0460800024004000240DC
:101FF0000C000240702370B50C4D2B7000F032F8CD
:10200000041E0ED10A4B28001B6898472B78DBB2C0
:102010009A0605D4DA0606D4DB0702D5692400E067
:102020006724200070BD6824FBE7C0460000024022
:102030000800002080B584B000AF78607B6818008D
:1020400000F010F80300FB60FB68002B04D1044B88
:102050001B680020984700E0C046BD4604B080BD24
:10206000040000200423002807D0C2696933002A35
:1020700003D01268022A00D100231800704730B53F
:1020800004000420002C10D0581E0B001343034002
:102090006520002B09D125680130A94205D3891894
:1020A0006268AD18A94200D8180030BD70B50500AF
:1020B0000E0014000420002D15D020220021200045
:1020C00000F023FA2B68A968F61AEB686868636069
:1020D0002660FEF755FA0423A0600020E360236128
:1020E0006361A361E36170BD01238B401178002916
:1020F00003D142699A43426170475278002A04D161
:102100008360426913434361F6E74360F9E70000E7
:1021100010B5084B08481968C378DB0602D48378E9
:102120009B0604D5054B04481B68984710BD044B1B
:102130001B68FAE798000020006006409C00002021
:10214000A00000200123124A10B514682343136035
:10215000022208240B785B0013408A78D2002240C8
:102160001343CA782834920013434A78120122405C
:10217000134303600B794A792D3C22409B001343A3
:102180008A797821A2400A401343436010BDC046BB
:102190003880044000230122037043708370C370B1
:1021A000027142718371704710B5034B034A1B687B
:1021B00011680348984710BDA8000020A400002023
:1021C00000400540402210B50B788C785B0122431B
:1021D00013434A7812011343DBB2037010BD0000B1
:1021E00010B5034B034A1B6811680348984710BD9C
:1021F000B0000020AC000020006007401D4A30B550
:102200000023904204D01C4BC3185A1E9341013343
:102210001A4A9B009C581A4B220CD2180123A4B2D4
:10222000A3401568F0242B43136007220B78240584
:1022300013400360CB784A785B01520213434A791A
:10224000083092041343CA79120413438A79520462
:1022500013438A78120622401343C3670A79C023C6
:10226000002A03D0C26F1343C36730BDC26F9A43C5
:10227000C267FAE7008003400070FCBF043600002C
:1022800000700440002303704370C37003714371F6
:102290008371C37183707047F7B50D000721170074
:1022A0000268060009980A40D040002B03D0012B99
:1022B0001AD0012017E02022336808999343336035
:1022C000FEF75EF9441E204B9C42F2D803235F4385
:1022D000EB193C270093631C9BB2B4600193009BF5
:1022E0009D420BD10020FEBD202332681343336092
:1022F000089B5900FEF744F90400E4E7A878642835
:10230000D7D80021884207D064316043FEF738F9FE
:102310000199A04200D281B22B78DB00F318DA6871
:10232000BA43DA60DA683A42FCD16A78D868920037
:1023300094462022104362460243DA60DA683A4249
:10234000FCD019610335CAE7FFFF000070B5CAB2BF
:10235000CB0503D5402301680B430360002301250F
:102360004026002A00D170BD2A4204D0D90041186D
:10237000CC683443CC600133DBB25208F1E7000093
:10238000802210B5104B114C5202E2501048FFF75A
:10239000F1FC1048FFF75CFC0F4B104A10491A6023
:1023A000104BE25811408022D2040A43E250E25816
:1023B0000D491140802252040A43E021E250E258C4
:1023C0000A43E25010BDC0464410000000700440B3
:1023D0000C3600001436000000FEFF1F006CDC020B
:1023E000FFFFFFF304100000FFFFFFFC80211E4BE6
:1023F00089001A6870B50A431A608022C0241868E0
:10240000D20002431A60194B194A1868A400104000
:1024100008431860586806251040204358609868A3
:10242000104004438020400006002E439C609E81A3
:102430000224060026430C431E829C821C839E833A
:102440000C4B29431C680C4D14401C605C680B4EFF
:1024500014405C600A4C998229593140295199688D
:102460000A401043986070BD3880044000900440DA
:10247000FFF8FFFF00A0044000700440FFFFFBFFD7
:102480000C100000084B10B50400002B02D00021F6
:1024900000E000BF054B1868836A002B00D0984706
:1024A000200000F03BF8C046000000001C36000091
:1024B00070B500260C4D0D4C641BA410A64209D12A
:1024C000002601F0ADF80A4D0A4C641BA410A64288
:1024D00005D170BDB300EB5898470136EEE7B30065
:1024E000EB5898470136F2E74036000040360000CE
:1024F0004036000044360000002310B59A4200D157
:1025000010BDCC5CC4540133F8E7030012189342A9
:1025100000D1704719700133F9E70000FEE7C046AB
:10252000020305000000000028230000282300000B
:10253000282300002823000028230000282300006F
:10254000282300002823000028230000282300005F
:10255000282300002823000028230000282300004F
:10256000282300002823000028230000282300003F
:10274000701700009C180000C8190000F41A00005F
:10275000BC1B0000841C00004C1D0000781E000003
:10276000401F00000820000034210000602200000B
:102770008C230000B824000080250000AC26000057
:1027800074270000A028000068290000942A000097
:10279000C02B0000EC2C0000182E0000442F00007D
:1027A000703000009C310000C83200005834000036
:1027B000E83500007837000008390000983A00003A
:1027C000283C00001C3E000010400000A04100001A
:1027D0009443000024450000B44600004448000033
:1027E000D4490000644B0000F44C0000844E00000B
:1027F000145000000852000098530000C454000018
:102800005456000048580000D8590000685B00008A
:10281000F85C0000885E000018600000A8610000FD
:102820009C630000906500002067000014690000B0
:10283000086B0000FC6C0000F06E000048710000A6
:10284000A073000094750000EC770000447A00004B
:102850009C7C0000F47E00004C8100000884000095
:10286000C4860000E4890000A08C00005C8F00009A
:1028700018920000D494000058980000DC9B0000DF
:10288000FC9E00001CA20000A0A5000024A90000DE
:102890000CAD0000F4B00000DCB40000C4B80000CF
:1028A000ACBC000094C0000044C5000090C900000A
:1028B000DCCD0000F0D2000004D8000018DD0000DC
:1028C000C8E1000078E6000054EC0000CCF1000004
:1028D0000CF80000E8FD0000C4030100A00901009D
:1028E0007C0F0100BC150100C41C0100CC230100B9
:1028F000382B0100A43201004839010018410100C1
:102900004C4901001C510100B4590100B0620100A2
:10291000106C010044740100DC7C0100A086010001
:10292000A0860100000000006B0300006F030000A0
:1029300073030000780300007C03000080030000A4
:1029400084030000880300008C0300009103000052
:1029500095030000990300009D030000A1030000FF
:10296000BE030000DC03000001040000220400009C
:102970004C0400007A040000A8040000DA040000FF
:10298000100500004A05000085050000C305000091
:10299000060600004D06000093060000DE0600005B
:1029A0002E07000081070000D40700001815000062
:1029B000BA130000821400004A150000121600002D
:1029C000701700003818000000190000C819000036
:1029D000F41A0000EE1B00004C1D0000141E000045
:1029E000401F00006C2000009821000028230000F8
:1029F000B824000048260000D82700000429000061
:102A0000942A0000242C0000502D00007C2E000091
:102A1000A82F000038310000C832000058340000F0
:102A2000E83500001437000040380000D0390000BD
:102A3000603B0000F03C00001C3E0000483F0000EE
:102A4000D840000068420000F843000088450000BC
:102A500018470000A8480000384A0000C84B000092
:102A6000584D0000E84E0000785000000852000069
:102A7000985300008C55000080570000105900004A
:102A8000A05A0000305C0000C05D0000505F0000F4
:102A9000E0600000706200000064000090650000CB
:102AA00020670000B0680000406A0000D06B0000A2
:102AB000606D00008C6E00001C700000487100000A
:102AC00074720000A0730000CC740000F875000060
:102AD00088770000B4780000E07900000C7B0000EB
:102AE000387C0000C87D0000587F00008480000012
:102AF0004C810000DC8200006C840000988500009E
:102B0000C48600008C8700001C890000AC8A00008D
:102B1000D88B0000048D0000308E00005C8F000018
:102B20008890000018920000449300007094000008
:102B3000009600002C970000BC9800004C9A000002
:102B4000789B0000089D0000349E0000609F0000FC
:102B5000F0A000001CA20000ACA300003CA50000F7
:102B6000CCA60000F8A7000088A9000018AB000060
:102B7000A8AC000038AE0000C8AF0000F4B0000000
:102B800084B2000014B40000A4B5000034B7000003
:102B9000C4B80000B8BA000048BC0000D8BD0000AE
:102BA00068BF0000F8C0000088C2000018C4000020
:102BB0000CC600009CC700002CC9000020CB000000
:102BC000B0CC0000A4CE000034D00000C4D100007E
:102BD000B8D3000048D50000D8D6000068D800005F
:102BE0005CDA000050DC000044DE0000D4DF0000AE
:102BF000C8E1000058E300004CE5000040E7000099
:102C000034E90000C4EA0000B8EC0000ACEE0000BB
:102C1000A0F0000094F2000088F400007CF60000B0
:102C200070F8000064FA000058FC00004CFE000040
:102C30004000010034020100280401008006010068
:102C400074080100680A01005C0C0100500E0100CC
:102C500044100100381201002C14010084160100F8
:102C6000781801006C1A0100C41C0100B81E010094
:102C700010210100042301005C250100B42701009C
:102C8000A82901009C2B0100F42D01004C3001000B
:102C9000A4320100FC34010054370100483901001E
:102CA0003C3B0100943D0100EC3F01004442010027
:102CB0009C440100F44601004C490100A44B010072
:102CC000FC4D010054500100AC52010004550100BC
:102CD0005C570100B45901000C5C0100645E010006
:102CE00020610100DC630100346601008C68010092
:102CF000E46A01003C6D0100F86F010050720100B0
:102D00000C75010064770100207A0100787C0100D5
:102D1000347F0100F0810100AC8401006E86010067
:102D2000A0860100000000006B0300006F0300009C
:102D300073030000780300007C03000080030000A0
:102D400084030000880300008C030000910300004E
:102D500095030000990300009D030000A1030000FB
:102D6000BE030000DC030000010400002204000098
:102D70004C0400007A040000A8040000DA040000FB
:102D8000100500004A05000085050000C30500008D
:102D9000060600004D06000093060000DE06000057
:102DA0002E070000540B0000800C0000E40C000013
:102DB000160D0000740E00003C0F00006E0F0000A6
:102DC0006810000094110000C01200008813000079
:102DD000B4140000E0150000A8160000D41700008D
:102DE000001900002C1A0000581B0000841C000071
:102DF000B01D0000DC1E000008200000342100008F
:102E0000C4220000F02300001C250000482600001A
:102E100074270000A0280000CC290000F82A000038
:102E2000882C0000B42D0000E02E0000703000005F
:102E30009C310000C8320000F433000084350000EB
:102E4000B0360000403800006C390000FC3A000049
:102E50008C3C00001C3E0000AC3F00003C410000E8
:102E6000CC4200005C440000504600004448000092
:102E7000D4490000644B0000584D0000E84E0000AB
:102E8000DC500000D052000060540000F0550000FB
:102E9000E457000074590000045B0000F85C000077
:102EA000245E0000B45F000044610000D4620000B2
:102EB000006400002C650000BC660000E8670000AC
:102EC00014690000A46A0000D06B0000FC6C0000D4
:102ED000286E0000B86F0000E470000074720000FB
:102EE000A0730000CC740000F87500002477000087
:102EF00050780000E07900000C7B0000387C000076
:102F0000647D0000907E000020800000B081000001
:102F1000DC8200006C84000098850000C4860000FC
:102F2000F087000080890000108B0000A08C00005A
:102F3000CC8D0000F88E00008890000018920000F0
:102F4000A893000038950000649600009097000058
:102F500020990000B09A0000409C0000D09D000025
:102F6000609F0000F0A0000080A2000010A40000FC
:102F7000A0A5000030A70000C0A8000050AA0000D3
:102F8000E0AB0000D4AD000064AF0000F4B000007E
:102F900084B2000014B40000A4B5000034B70000EF
:102FA00028B90000B8BA000048BC00003CBE0000D0
:102FB000CCBF0000C0C1000050C30000E0C400004E
:102FC000D4C60000C8C80000BCCA00004CCC000039
:102FD00040CE0000D0CF0000C4D10000B8D3000024
:102FE000ACD500003CD7000030D9000024DB000045
:102FF00018DD00000CDF000000E10000F4E200003A
:10300000E8E40000DCE60000D0E80000C4EA0000CC
:10301000B8EC0000ACEE0000A0F00000F8F20000F8
:10302000ECF40000E0F6000038F900002CFB000092
:1030300020FD000014FF00006C010100C40301002A
:103040001C06010048070100D8080100940B01008C
:10305000EC0D0100E00F0100D41101002C1401005F
:103060008416010078180100D01A0100281D010003
:103070001C1F010074210100CC2301002426010043
:103080007C280100702A0100C82C0100202F0100BB
:1030900078310100D033010028360100803801006A
:1030A0003C3B0100943D0100EC3F01004442010023
:1030B0009C440100F44601004C490100A44B01006E
:1030C000FC4D0100B850010010530100685501008B
:1030D000245801007C5A0100385D0100905F010016
:1030E000E8610100A4640100606701001C6A01003E
:1030F000746C0100CC6E010024710100E0730100CA
:103100009C76010058790100147C0100D07E0100FA
:103110008C810100AC840100A0860100A086010022
:10312000A086010052BF906590659065906590659E
:103130009065906590659065906590659065646414
:103140000C6218601860C05D305CD85980572855F3
:10315000345340514C4FF44CD4491847C044684252
:103160001040543DFC3A403820350032E02E562CB9
:1031700036291027E425C422DC1EBC1B9C18181518
:10318000F811D80EF00A080740067805B0044C0480
:10319000E80352BF68426842684268426842684237
:1031A00068426842684268426842684268426842CF
:1031B0006842684268426842684268421040543D32
:1031C000FC3A403820350032E02E562C36291027A4
:1031D000E425C422DC1EBC1B9C181815F811D80E5F
:1031E000F00A080740067805B0044C04E80352BF13
:1031F0009065906590659065906590659065906527
:1032000064640C6218601860C05D305CD8598057E7
:103210002855345340514C4FF44CD4491847C044BE
:1032200068421040543DFC3A403820350032E02ED0
:10323000562C36291027E425C422DC1EBC1B9C1802
:103240001815F811D80EF00A080740067805B004E2
:103250004C04E80352BF68426842684268426842D0
:10326000684268426842684268426842684268420E
:1032700068426842684268421040543DFC3A403817
:1032800020350032E02E562C36291027E425C422A2
:10329000DC1EBC1B9C181815F811D80EF00A080784
:1032A00040067805B0044C04E80352BF6842684207
:1032B00068426842684268426842684268426842BE
:1032C0006842684268421040543DFC3A403820351C
:1032D0000032E02E562C36291027E425C422DC1EAD
:1032E000BC1B9C181815F811D80EF00A08074006E8
:1032F0007805B0044C04E80352BF58665866586617
:10330000906564640C621860C05D305CD859805769
:103310002855345340514C4FF44CD4491847C044BD
:1033200068421040543DFC3A403820350032E02ECF
:10333000562C36291027E425C422DC1EBC1B9C1801
:103340001815F811D80EF00A080740067805B004E1
:103350004C04E80352BF68426842684268426842CF
:103360006842684268426842684268426842104067
:10337000543DFC3A403820350032E02E562C362998
:103380001027E425C422DC1EBC1B9C181815F8115C
:10339000D80EF00A080740067805B0044C04F40182
:1033A00052BFC05D305CD8598057285534534051C6
:1033B0004C4FF44CD4491847C04468421040543D27
:1033C000FC3A403820350032E02E562C36291027A2
:1033D000E425C422DC1EBC1B9C181815F811D80E5D
:1033E000F00A080740067805B0044C04E80352BF11
:1033F000684268426842684268426842684268427D
:1034000068421040543DFC3A403820350032E02EEE
:10341000562C36291027E425C422DC1EBC1B9C1820
:103420001815F811D80EF00A080740067805B00400
:103430004C04E80352BF52BF52BF52BF52BF52BFEB
:1034400052BF52BF52BF52BF52BF52BF52BF52BFF4
:1034500052BF52BF52BF52BF52BF52BF52BF52BFE4
:1034600052BF52BF52BF52BF52BF52BF52BF52BFD4
:1034700052BF52BF52BF52BF52BF52BF52BF52BFC4
:1034800052BF52BF52BF52BF52BF52BF52BF52BFB4
:1034900052BF52BF52BF52BF52BF52BF52BF52BFA4
:1034A00052BF52BF52BF52BF52BF52BF52BF52BF94
:1034B00052BF52BF52BF52BF52BF52BF52BF52BF84
:1034C00052BF52BF52BF52BF52BF52BF52BF52BF74
:1034D0001CBB04BFA0BE3CBED8BD74BD80BB8CB9B4
:1034E00098B7A4B5B0B3BCB1C8AFD4ADE0ABECA94C
:1034F00030A774A4B8A1FC9E409C8499C8960C94F3
:103500005091948ED88B5488D0844C81C87D447A55
:10351000C0763C73B86F346CB0682C65A861245ECB
:103520007459F0556C52844E9C4AEC453C418C3C9D
:10353000DC372C337C2ECC291C25401F6419A00FAE
:10354000D00752BF2855345340514C4FF44CD44906
:103550001847C04468421040543DFC3A403820357A
:103560000032E02E562C36291027E425C422DC1E1A
:10357000BC1B9C181815F811D80EF00A0807400655
:103580007805B0044C04E80352BF684268426842C0
:103590006842684268421040543DFC3A4038203549
:1035A0000032E02E562C36291027E425C422DC1EDA
:1035B000BC1B9C181815F811D80EF00A0807400615
:1035C0007805B0044C04E80380841E0000127A00E1
:1035D000080010001800200030004000600080004B
:1035E000C000000180010002000300040006BFF3D8
:1035F0006F8FBFF34F8F70478021017002780A42AE
:10360000FCD0704718003C1019003C100002010368
:1036100000010000000000000000010020FEFF1F6C
:10362000F8B5C046F8BC08BC9E467047F8B5C04621
:08363000F8BC08BC9E4670477F
:0836380020CEFF7F010000001D
:043640003904000049
:04364400110400006D
:1036480000127A000101010000400000FFFF01FFA5
:1036580000FF00FF00FF0000000000000000000164
:103668000000000000000000000000000000000052
:103678000000000000000000000000000000000042
:103688000000000000000000000000000000000032
:103698000000000000000000000000000000000022
:1036A8000000000000000000000000000000000012
:1036B8000000000000000000000000000000000002
:08780000000000000000000080
:047C00000000000080
:04000003000004D124
:00000001FF
